:020000040800F2
:1000000078060020050100083D03000839030008B8
:100010003B03000813020008CD08000800000000A0
:100020000000000000000000000000009104000833
:100030001502000800000000CB030008AD04000812
:100040001F0100081F0100081F0100081F01000810
:100050001F0100081F0100081F0100081F01000800
:100060001F0100081F0100081F0100081F010008F0
:100070001F0100081F0100081F0100081F010008E0
:100080001F0100081F0100081F0100081F010008D0
:10009000B90600081F0100081F0100081F01000821
:1000A0001F0100081F0100081F0100081F010008B0
:1000B0001F0100081F0100081F0100081F010008A0
:1000C0001F0100081F0100081F0100081F01000890
:1000D0001F0100081F0100081F0100081F01000880
:1000E0001F0100081F0100081F0100081F01000870
:1000F000DFF80CD000F05CF800480047210A000847
:10010000780600200648804706480047FEE7FEE7DD
:10011000FEE7FEE7FEE7FEE7FEE7FEE7FEE7FEE7B7
:10012000B1040008F1000008D2B201E000F8012B90
:10013000491EFBD270470022F6E710B513460A4667
:1001400004461946FFF7F0FF204610BD2DE9F05F89
:100150000546002092469B46884606468146402436
:100160001BE0284641464746224600F042F85346E7
:100170005A46C01A914110D311461846224600F043
:1001800029F82D1A67EB01084F462246012000216D
:1001900000F020F817EB00094E41201EA4F10104E5
:1001A000DFDC484631462A464346BDE8F09F000062
:1001B000064C074D06E0E06840F0010394E80700B4
:1001C00098471034AC42F6D3FFF796FF3020000872
:1001D00050200008202A04DB203A00FA02F1002017
:1001E00070479140C2F1200320FA03F31943904075
:1001F0007047202A04DB203A21FA02F000217047E0
:1002000021FA02F3D040C2F120029140084319467E
:100210007047FEE77047000080B56FF0040000F003
:1002200039F9064892494FF47A720068B0FBF1F050
:100230000C490870C0B25043488080BD1C000020AB
:10024000084949884143984841600021816001681C
:1002500041F001010160016801F001110129FAD0AA
:1002600000F0A0B8200000202DE9F04391F80390A1
:1002700009F00F085FEAC96344BF8B7848EA0308B6
:1002800009880B0621D0046800254FF0010E4FF0BD
:100290000F0C0027082F17D00EFA07F30B4210D0CF
:1002A0000CFA05F208FA05F6B9F1480F24EA020241
:1002B00042EA060404D0B9F1280F08BF436100E008
:1002C000036104350137E5E70460B1F5807F23D38E
:1002D000446800254FF4807E4FF00F0C0027082F54
:1002E00019D00EFA07F606EA0102B24210D10CFA52
:1002F00005F308FA05F2B9F1480F24EA030343EACB
:10030000020404D0B9F1280F08BF466100E006617D
:1003100004350137E3E74460BDE8F08380680840B6
:1003200018BF01207047C068084018BF01207047FF
:100330004161704701617047FEE7FEE770470000CA
:1003400070B5C2781149A2B1154A072312684578E1
:100350008678047823EA12220F23D340C2F10402E4
:10036000334005FA02F21A430B19120183F80023F5
:1003700000E080310078012300F01F02C0F342103A
:1003800003FA02F241F8202070BD00BF00E100E056
:100390000249084302490860704700BF0000FA059F
:1003A0000CED00E0016821F0010101600021816095
:1003B0007047812000210022002300F035BE08F1A3
:1003C000080108F11002404618477047044A002906
:1003D00011680CBF21EA000008431060704700BF9D
:1003E0001C100240044A002911680CBF21EA0000D9
:1003F00008431060704700BF1810024010B51B4939
:100400000A6802F00C031A4A082B0CD10B680C681E
:10041000C3F383430233E40323D4174C2468E40674
:1004200000D4144A5A430260144C0B68C3F30313FC
:10043000E35CDA4042600B68C3F30223E35C22FA18
:1004400003F383600B68C3F3C223E35CDA400C4B15
:10045000C2600968C1F38131595CB2FBF1F10161FD
:1004600010BD0C68A403DCD4DCE700BF041002401C
:1004700000127A0000093D0000380240281F0008E1
:10048000241F000801490860704700BFD80042429D
:1004900070470000044904280A6822F0040208BFDB
:1004A00004320A60704700BF10E000E070470000AF
:1004B00082B03648364A016841F001010160416866
:1004C0001140344A4160016811400160016821F423
:1004D00080210160416821F4FE0141604FF41F0159
:1004E0008160002101910091016841F48031016037
:1004F000016801F4003100910199013101910099E5
:1005000019B90199B1F5A06FF2D10168890354BFFF
:100510000021012100910099012936D11E490A6864
:1005200042F010020A600A6822F003020A600A68B8
:1005300042F002020A6041684160416841604168DE
:1005400041F480614160416821F47C11416041685F
:1005500041F4E8114160016841F080710160016877
:100560008901FCD5416821F003014160416841F0F7
:1005700002014160416801F00C010829FAD10748E5
:100580004FF00061016002B07047FEE700100240CA
:100590000000FFF8FFFFF6FE0020024008ED00E03B
:1005A000002918BF0121828922F4005242EA413118
:1005B000818170470088084018BF01207047000003
:1005C00070B586B004460D46C888218A21F4405192
:1005D00008434EF6F3112082A0890840A9880843F9
:1005E0002989084369890843A081A889A18A21F43F
:1005F00040710843A08201AE3046FFF7FFFE2B4951
:1006000006F108006FF063038C4208BF06F10C008E
:100610000068192101224843B4F90C10B1F1FF3FE1
:10062000C8BF0222296803259140B0FBF1F0642184
:10063000B0FBF1F202FB0300B4F90C30B3F1FF3F61
:10064000C8BF0425A8403230B0FBF1F00721B3F158
:10065000FF3FC8BF0F21084040EA0210208106B0CA
:1006600070BD00BFB0B586B0054644F2040001215C
:10067000FFF7B8FE0C48E94C0590A4F5405005A9D9
:10068000FFF7F2FD0020ADF81000CDE901504FF466
:100690000020039001A92046FFF792FF2046012188
:1006A000FFF77EFF06B0B0BD00020318003801401E
:1006B0006FF35F21818070472DE9F04F85B0804D49
:1006C000B5F9440086B2B0F1FF3F40F38780700572
:1006D00010D57C4C88212046FFF72DFD40200021BD
:1006E0006060012000F0F8FCB5F8440020F4806060
:1006F000A5F84400700405D5B5F8440020F4804006
:10070000A5F84400B00405D5B5F8440020F4005025
:10071000A5F84400F00411D5B5F8400020F004001D
:10072000A5F84000B5F8400020F00800A5F840000A
:10073000B5F8440020F48050A5F8440030053AD5BF
:10074000002101A8082905D035F8212020F8112022
:100750000131F7E7B5F8401041F00101A5F840106C
:10076000B5F8401021F00101A5F84010B5F844108B
:100770004905FBD5B5F8441021F48061A5F8441073
:100780000021082905D030F8112025F82120013159
:10079000F7E7B5F8400040F00800A5F84000B5F8CC
:1007A000440020F40060A5F84400B5F8400040F093
:1007B0000400A5F84000B00505D5B5F8440020F4C4
:1007C0000070A5F84400F00505D5B5F8440020F404
:1007D0008070A5F8440005B0BDE8F08FDFF864BC78
:1007E0004FF0FF3740F60F79B5F94400B8423FF7B4
:1007F0006EAFB5F8446016F00F0422D035F824A08F
:100800004FEA44085FEA0A400AD535F81800214645
:1008100000EA0900803025F81800112000F05CFC87
:100820005FEA0A60E0D535F8180004F1800100EABB
:10083000090000F5004025F81800102000F04CFCDD
:10084000D2E72888F1061ED400EA0900002100F54D
:10085000004028800E2000F03FFC9BF8000000289C
:10086000C2D0B5F85000184931F810008005BBD14E
:100870009BF8000040F08000C0B2A5F84C000020BA
:100880008BF80000B0E7010508D40004ACD5288837
:1008900000EA0900803028800F2005E0288800EA5F
:1008A0000900803028800D20002100F015FC2888E8
:1008B00043F60F7108404BF280014840288093E7CF
:1008C000005C00407C00002004600040FEE7000067
:1008D00008480121FFF722BDE0B50548012101903C
:1008E0000420FFF77FFD034801A9FFF7BDFC8CBD85
:1008F0000100032800080140E0B5054801210190EE
:100900000820FFF76FFD0D4801A9FFF7ADFC8CBD76
:100910000400031010B5094C04212046FFF703FD25
:10092000012805D120460421BDE81040FFF700BD95
:1009300020460421BDE81040FFF7FCBC000C01403C
:1009400010B54378222B15D0212B1FD0202B1CBF94
:100950004FF0FF3010BD0868264C0168D0F8030046
:10096000C4F803002160206823796279A17900F03E
:1009700069F90FE044881F48C47104F0010000F0D9
:100980005BF9C4F3400000F05EF903E0072010605B
:1009900018480860002010BDB0B50E4800F08EF970
:1009A0000D4C04F10C01204600F04EF904F128052D
:1009B0002046294600F048F9084C2846214600F018
:1009C000DAFC04F10C01284600F0D5FCBDE8B0408B
:1009D00000F0CCBC381F00083400002004000020C8
:1009E000012806D1034808218171034901600021D3
:1009F000818070470401002080841E00B0B5074D3F
:100A0000044628464021FFF7D5FD0028F9D0E1B281
:100A10002846FFF74DFE2046B0BD00BF003801401C
:100A20004FF4A060FFF7B4FCFFF7F6FB4FF4E130A2
:100A3000FFF718FEFFF750FFFFF75EFF1E4C17A0F1
:100A4000A0471EA0A04723A0A04729A0A0472D484B
:100A500001682DA001F002F82FA0A047FFF79CFF2E
:100A6000FA2400250135B5FBF4F000FB145008B959
:100A7000FFF750FFFFF72CFF58B1FFF729FF18B120
:100A80003220FFF7DDFBF8E7FA2C4FF0FA0408BF3D
:100A900064240120FFF7D4FBE4E700BF0D0A57658B
:100AA0004163742053747564696F20436F726520CD
:100AB000426F6172640D0000011F00087765616379
:100AC0007473747564696F2E74616F62616F2E63E5
:100AD0006F6D0D00776561637473747564696F2E53
:100AE000616C69657870726573732E636F6D0D004C
:100AF000777777772E77656163742D74632E636ED5
:100B00000D0A0D001C00002053797374656D436C51
:100B10006B3A25640D0A00007573625F6364635F5E
:100B200061636D0D0000000010B5844C88212046E3
:100B3000FFF701FB4020606000F00EF8054801213E
:100B4000018000210180818001824FF43F410180BA
:100B5000002010BD405C0040E0B50020FFF792FC93
:100B60000D480121FFF732FC0C48019001A8FFF766
:100B7000E7FB0B48016841F0020101600948016888
:100B800021F47F210160816821F4C05181600168F6
:100B900041F4082101608CBD0400800014050001AF
:100BA0000038024004080140024600680028FBD1DA
:100BB000002011600860704701A001F0A1B900BFDA
:100BC000696E0D00F0B591B001AD6B464022044650
:100BD000294600F0C9F9002715A60099F8B281420C
:100BE00005D9295C304600F039FF0137F5E70BA045
:100BF00001F086F900990AA000F030FF204600219C
:100C00000022002300F0B0F9009A01A981200023FE
:100C100000F00AFAFFF7CDFB11B0F0BD0D000000A7
:100C200072656164206C656E3A25640D0A000000EF
:100C3000253032782000000001490870704700BF5D
:100C40007800002070477047B0B505460A480C464A
:100C50000168A94203D00560284600F023F807493F
:100C6000074A0020C4E90110C4E9030228462146CE
:100C7000BDE8B04000F006B81001002041090008AE
:100C8000E109000870B5064D08300C462E780E7547
:100C9000FFF78AFF701C28700020A06170BD00BFA4
:100CA0001401002010B50446034821460C30FFF71C
:100CB0007BFF0020A06010BD240000200149886156
:100CC000704700BF1801002010B542B2D549002A74
:100CD00014D44000C2B201EB420031F812104904B2
:100CE0004BF2800107D5028840F60F731A4001F5D8
:100CF00080531A43028043F60F7219E000F07F021E
:100D000001EB820031F82210490648F2A00107D514
:100D1000038840F60F74234001F12004234303802D
:100D2000EC4B03EBC202927A012A05D040F63F72E7
:100D300003881A4051400180002010BD7C00002033
:100D400010B54100E14A44B248F28000C9B2002C1B
:100D500032F811300ED45B0409D532F8113040F668
:100D60000F74234000F58044234322F8113043F6EA
:100D70000F730DE05B0609D532F8113040F60F74A1
:100D8000234000F14004234322F8113040F63F7322
:100D900032F811402340184322F81100002010BD02
:100DA000002070472DE9F0430178457848F2800C27
:100DB00001F07F044FB2032D07D0012D08D048F277
:100DC00080033DB90CF5007304E00CF5C06301E04D
:100DD0000CF58063BD4A40F60F16DFF868E64FEA6F
:100DE000440832F824103140194340F60F7322F8BA
:100DF000241032F824101940FBB2194341EA0C01C7
:100E0000002F22F82410468835D40EEBC40739464B
:100E100031F84C3F9E4201F8025C21F8046C1CD969
:100E2000DEF8043000253344B5EB532F36D10E8065
:100E3000DEF80410A7F84E1002F58161B2F85030C8
:100E4000DEF8045041EA041125F00105CD52468830
:100E5000DEF804003044CEF8040064492001B2F802
:100E600050400843F6B13E2E24D806F0010101EBB4
:100E70005601890229E00EEBC407394631F80C3FD0
:100E80009E4201F8025C21F8046C4AD9DEF8043075
:100E900003EB06090023B3EB592F2DD04FF0FF30A1
:100EA000BDE8F083215A2F4B21F4F8412152215AF9
:100EB00019430AE0F3064FF0FF314FEA561308BF1B
:100EC00001EB5613274941EA8321215232F81800D9
:100ED000400409D532F8180040F60F7108400CF5AF
:100EE0008041084322F8180032F8180043F60F71C9
:100EF00008400CF540512EE00E80DEF80410F98118
:100F000002F5806141EA0411B2F85030DEF8044085
:100F100024F00104CC524088DEF804100844CEF8D6
:100F2000040032F81800400609D532F8180040F6DF
:100F30000F7108400CF14001084322F8180032F804
:100F4000180040F63F710840012D02D140EA0C0024
:100F500002E00CF12001484022F818000020BDE812
:100F6000F08300BF0080FFFF70B519B912B14FF0D8
:100F7000FF3070BD00F07F053AB35648534E00EB8A
:100F8000C500B0F84E0006EB400000F58064B6F8EE
:100F9000500000EBC500154D35F810006FF39F2091
:100FA000904228BF10464208013132B134F8045B48
:100FB000013A21F8015C0231F7E7C2071CBF228821
:100FC00001F8012C7BB118600DE065B140003F498C
:100FD00043F60F73C0B231F810201A404BF2800371
:100FE0005A4021F81020002070BD00BF0C60004066
:100FF00010B541B20A4A354BB1F1FF3F40F63F719F
:10100000C8BF02F57F62C8BF43F60F714000C0B28F
:1010100033F810402140514023F81010002010BD3B
:101020009080FFFF005C00402DE9F04121B91AB12A
:101030004FF0FF30BDE8F08100F07F0E234D4FEA06
:101040004E0435F8146006F03006302EF9D02048F2
:1010500048F2B00C42B3FB4E804606EBCE07FE8949
:101060003F89974238BF3A4605EB4606571C06F5BE
:1010700080667F082FB131F8020B013F26F8040B80
:10108000F8E7B5F8501048EA0E10425240F63F71AA
:1010900035F81400084080EA0C0025F8140003B16C
:1010A0001A600020BDE8F081B5F8502040EA0E112A
:1010B0000020885240F63F7235F81410114081EA42
:1010C0000C0125F81410BDE8F08100BF005C004061
:1010D000046000407C0000202DE9FC478246112876
:1010E0001AD88946DFE80AF009210909090909091E
:1010F0000909090909536A75969E994800F10C0679
:101100003668002E00F0CB80B0680269002AF7D064
:10111000504649469047F3E76D48924CA0479248A5
:101120005146A0477448214686E000204FF0000851
:1011300000F07EF98948654F6E4600903046A7F86A
:101140005C81FFF72FFE30468DF80080FFF72AFE06
:1011500083480C3000680028CFD000F108010968EE
:101160000029F7D001F118021268002AF7D093681D
:10117000002BF9D0167906F07F04360607EB8404BD
:1011800004F58E7558BF04F59E752B60ECE74F4C47
:101190000020082200232146FFF7E6FEB0F1FF3FC2
:1011A0004DDDE18894F90000B1F5807F6CD900280D
:1011B0006AD4474800F052FC5AA044E04348C16852
:1011C00011B9017D00296AD0C088BDE8FC4700F054
:1011D000D5B83E4C00200190E268002A3DD0A168BD
:1011E00001AB0020FFF7C0FEB0F1FF3F3EDDD4E9C8
:1011F0000201019A891A1044C4E902014FD104F195
:101200001C00A06000F036F9002859D0E08800F0FA
:10121000B5F844E02D4909F07F0001EB8000D0F8DB
:101220001C1106E0294909F07F0001EB8000D0F88D
:101230003C11A1B35FFA89F0BDE8FC470847244898
:1012400000F00CFC3EA000F05BFE2B4800F006FC1A
:101250008020BDE8FC47FFF7CBBE00200021002224
:101260000023FFF781FEB0F1FF3F18DC184800F0C3
:10127000F5FB224800F044FE1F4800F0EFFB802001
:10128000FFF7B6FEBDE8FC8700222161227504F15C
:101290001C02C4E9022121B1B0F1FF3F01DDBDE82C
:1012A000FC8700F0E7F830B12169E088814228BF6F
:1012B0000146E16089E7064800F0D0FB10A0C2E7D4
:1012C000034800F0CBFB03A0D4E700BF18010020C7
:1012D0001B200008757362645F73657475705F72BC
:1012E0006571756573745F68616E646C65723120D9
:1012F0006661696C65640D00292000080220000801
:10130000757362645F73657475705F72657175651E
:1013100073745F68616E646C6572206661696C6588
:10132000640D0000526571756573742062756666A0
:10133000657220746F6F20736D616C6C0D0000001E
:1013400052656164205365747570205061636B65EC
:1013500074206661696C65640D00000080004000C7
:10136000240000205D1A0008EA1F000880B5FFF77E
:10137000DBFB002080BD1830FFF716BCBCB51D4D4F
:101380000446287D58B10020002100220023287542
:101390008020FFF749FEB0F1FF3F1CDDBCBDD5E961
:1013A00002128020019201ABFFF73EFEB0F1FF3F39
:1013B00016DDD5E90201019A891A1044C5E9020136
:1013C000ECD12869A042E9D210F03F0002BF012011
:1013D0002875BCBDE2E7084800F040FB07A003E029
:1013E000054800F03BFB0CA000F08AFD094800F026
:1013F00035FBBCBD180100201B20000855534220BE
:101400007772697465207A6C70206661696C6564B6
:101410000D0000002920000855534220777269749E
:10142000652064617461206661696C65640D00000B
:1014300010B9034980220A800249087000207047D1
:101440004C5C00407C000020E0B58178C278808848
:101450006FF3DF208DF80410ADF8060002F00300F2
:101460008DF8050001A8FFF79DFCB0FA80F0400957
:101470008CBD00002DE9F041DFF8988198F800500C
:1014800005F00300012816D16348B8F804100C30A9
:10149000C9B2006878B100F108021268002AF8D0D9
:1014A000D368002BF9D0147D8C42F6D1FEF787FF6C
:1014B000002800F0AB8005F06000402811D0202803
:1014C00021D0002840F0998098F8000000F0030037
:1014D000022875D0012876D0002877D100F0D2F804
:1014E00073E04D49086848B3427998F80130934257
:1014F00032D1B8F80410052900F0828004296AD19D
:10150000816880897EE098F8000000F003000128DF
:101510003AD002284FD1404898F805100C300068A6
:10152000002848D000F108021268002AF7D0D368DA
:10153000002BF9D0147DA142F6D137E0486858B1AC
:10154000827998F80130934206D1B8F8041007293F
:1015500041D10168808855E001F10C0708F10805C8
:1015600008F110063F68002F3ED007F108042468F8
:10157000002CF7D0A368002BF9D04046294632460C
:1015800098470028F3D141E02348B8F804100C3004
:10159000C9B2006878B100F108021268002AF8D0D8
:1015A0005368002BF9D0147D8C42F6D1FEF707FF6B
:1015B000B0F1FF3F2ADC194800F050FA25A017E0EF
:1015C00000F054F901E000F0C9F9F8B9134800F04F
:1015D00045FA26A00CE0114800F040FA10A000F0F7
:1015E0008FFC154800F03AFA0C4800F037FA13A0C7
:1015F00000F086FC104800F031FA0020BDE8F081D0
:101600000169808AC8F80810C8F810000120BDE8F8
:10161000F08100BF18010020240000201B200008DA
:10162000756E6B6E6F776E2076656E646F72206379
:101630006F64650D000000002920000876656E6467
:101640006F722072657175657374206572726F7246
:101650000D000000636C61737320726571756573B2
:1016600074206572726F720D000000007374616EF9
:10167000646172642072657175657374206572723D
:101680006F720D00F8B5564E71780B2919D8708815
:101690000124DFE801F0060C161F16262A9C3E44A2
:1016A0009D9D0220306106F5AF70B06075E00128A5
:1016B00073D100200021A6F85E010A20FFF70CFD7F
:1016C0006BE04848564CA047717861A0A04752484B
:1016D000A0477CE0012401287AD10920A6F85E41C8
:1016E00050E0C0B2FFF7A4FE57E00321C4B2B1EB53
:1016F000102F08BFEE2C49D0050A291F022966D3F6
:101700000F2D4CD145488068002860D0D0E90010EA
:1017100041E0012406F25D103461B06058E0C5B2CA
:101720000DB3B4690020FF21FF222378C3B167788D
:10173000052F08D0042F10D0022F0FD16279AA42B2
:101740000CD1012007E049B9AA4207D12046FFF792
:101750007BFE237800212A4600E0E1781C44E4E780
:10176000C00709D133E01F4800F078F91EA000F04F
:10177000C7FB294800F072F9012486F85D51042066
:1017800086F85C410021FFF7A7FC21E023480068B0
:10179000E8B101680079B1603061012418E0400AC5
:1017A000022814D8B069002102783AB143789D42EA
:1017B00002D1A1420ED001311044F5E70948184E7C
:1017C000B04718A029462246B0471348B047002426
:1017D0002046F8BDB060022D0CBF40880078DBE7E2
:1017E000180100201B200008446576696365206E9F
:1017F0006F7420636F6E66696775726564202D2053
:10180000696E76616C696420636F6E666967757274
:101810006174696F6E0D000029200008240000200B
:101820005D1A000864657363726970746F72203C9E
:10183000747970653A25782C696E6465783A2578F4
:101840003E206E6F7420666F756E64210D0A000075
:10185000496C6C6567616C206465766963652072AC
:101860006571203078253032780D0A0070B5274E2A
:1018700070780C2848D03479012811D0032823D05F
:10188000D0BB600602D096F85D01E8B306F5AF75EF
:1018900020462946FFF784FA0220B560306129E02E
:1018A000708888BB600602D096F85D0160B3184866
:1018B000184DA8471EA02146A8471C48A847204607
:1018C000FFF702FA0C2012E07088E8B9600602D037
:1018D00096F85D01C0B10E480E4DA8470EA02146F6
:1018E000A8471248A8472046FFF782FB0B2000219B
:1018F000FFF7F2FB012070BD0548064CA047717848
:1019000010A0A0470948A047002070BD1801002082
:101910001B2000085D1A000865703A257820736561
:10192000742068616C740D0A000000002920000812
:1019300065703A257820636C6561722068616C740B
:101940000D0A0000496C6C6567616C20657020723F
:101950006571203078253032780D0A002DE9F0418C
:10196000324D95F85D01002828D0AC692E792046CB
:10197000017819B34278022A02D10279B24201D821
:101980000844F5E769780B2910D80020DFE801F05A
:1019900008060E060E0E0E0E0E0E1920BDE8F08182
:1019A0000220286105F5AF70A8603BE02048214C7B
:1019B000A047697820A0A0472748A0470020BDE89D
:1019C000F081A8680021017001202861BDE8F08144
:1019D00095F80280FF270025FF202178F1B161787A
:1019E00005290BD0042916D1A078E77880EA0601F2
:1019F00087EA0802114308BF25460CE0B0420AD12D
:101A0000474504D12046FFF71FFD474602E0A07876
:101A1000FFF796F9304621780C44DEE70820294686
:101A2000FFF75AFB0120BDE8F08100BF180100203C
:101A30001B2000085D1A0008496C6C6567616C200A
:101A4000696E7465726661636520726571203078B5
:101A5000253032780D0A0000292000080FB4054B0C
:101A600010B503A9044A029800F018F810BC5DF8FC
:101A700014FB0000FD0900080000002002E008C877
:101A8000121F08C1002AFAD170477047002001E0F8
:101A900001C1121F002AFBD1704700002DE9FF4F42
:101AA0008DB00F460546002606E025280BD0DDE95F
:101AB0000F1290476D1C761C28780028F5D111B0C4
:101AC0003046BDE8F08F0024A246A1460122EC4931
:101AD00000E0044315F8013F203B02FA03F00842FE
:101AE000F7D128782A2810D06FF02F022878A0F19B
:101AF0003001092914D80AEB8A0102EB410144F0B4
:101B0000020400EB010A6D1CF0E701CF5FEA000A56
:101B100003D544F40054CAF1000A44F002046D1CD9
:101B200028782E2817D115F8010F44F004042A282C
:101B30000ED06FF02F022878A0F1300109290AD8C1
:101B400009EB890102EB410100EB01096D1CF2E791
:101B500057F8049B6D1C28786C280FD006DC4C28A5
:101B600017D068280DD06A2814D104E0742810D04A
:101B70007A280FD10DE044F400140AE044F48014F4
:101B800001E044F440146978814202D104F58014E4
:101B90006D1C6D1C2A786E2A1FD00CDC632A31D094
:101BA00004DC002A8BD0582A11D1A3E0642A68D023
:101BB000692A0CD165E0732A2ED004DC6F2A73D019
:101BC000702A04D19BE0752A6FD0782A6ED0104617
:101BD000DDE90F129047761C50E1C4F30250022851
:101BE00006D0032809D0042801CF09D0066045E1BA
:101BF00001CFF117C0E9006140E101CF06803DE16E
:101C000006703BE117F8040B8DF8000000208DF8FA
:101C10000100EB46012003E057F804BB4FF0FF3012
:101C200061074FF0000102D40DE008F10101884680
:101C300049450FDA8045F8DB1BF808100029F4D17C
:101C400008E008F1010188468142FADB1BF8081020
:101C50000029F6D1DDE90F23AAEB080081462146D1
:101C600000F036F9304400EB080604E0DDE90F121D
:101C70001BF8010B9047B8F10108F7D221464846FE
:101C8000F7E00A21C4F302534FF0000B0891022B36
:101C900004D001CFC117032B09D00AE0FF1D27F0A4
:101CA0000707F7E8020108E032E01FE020E000B299
:101CB000C117042B01D140B2C117031E71F10003FB
:101CC00007DA4FF0000CD0EB0C006CEB01012D2378
:101CD00002E0230504D52B238DF82430012303E0F3
:101CE000E30701D02023F7E7984658E00A2110E0E7
:101CF00010210EE010204FF0000B08900CE0102196
:101D00004FF0000B44F004044FF00809089103E081
:101D100008214FF0000B0891C4F30253022B04D0AA
:101D200001CF0021032B06D006E0FF1D27F0070797
:101D3000F7E8020103E080B2042B00D1C0B24FF0FB
:101D4000000823072BD5702A07D0DDF820C08CF0BF
:101D5000100C5CEA0B0C05D00EE040238DF824300B
:101D6000012308E050EA010306D030238DF8243027
:101D70008DF8252002239846DDF820C08CF0080C51
:101D80005CEA0B0C0BD150EA010301D1630706D5C5
:101D900030238DF824304FF00108A9F10109582AA9
:101DA00004D038A20B9208AA0A920BE03AA2F9E7F3
:101DB0005B46089AFEF7CAF90B9B9B5C0A9A521E77
:101DC0000A92137050EA0102F2D10A98ADEB0000BA
:101DD00000F1200B600702D524F4803401E04FF0BD
:101DE0000109D94502DDA9EB0B0000E0002000EB62
:101DF0000B0141440890AAEB010AE00306D4DDE997
:101E00000F232146504600F063F806444FF00009C6
:101E100008E009A911F80900DDE90F12904709F15E
:101E20000109761CC145F4DBE0030CD5DDE90F2385
:101E30002146504600F04CF8064404E0DDE90F125C
:101E400030209047761C0899481E08900029F5DC40
:101E500008E00A980A990078491C0A91DDE90F12F6
:101E60009047761CBBF10001ABF1010BF1DC214680
:101E70005046DDE90F2300F019F806446D1C1BE6FF
:101E80000928010030313233343536373839616250
:101E90006364656600000000303132333435363714
:101EA0003839414243444546000000002DE9F041E5
:101EB000044600251E461746880404D405E039462A
:101EC0002020B0476D1C641EF9D52846BDE8F0817E
:101ED0002DE9F041044600251E469046C80301D571
:101EE000302700E02027880404D505E04146384625
:101EF000B0476D1C641EF9D52846BDE8F08100008E
:101F000010B5044601E0FEF779FD14F8010B044911
:101F10000028F8D1BDE810400A20FEF76FBD000090
:101F20000000002002040608000000000102030473
:101F3000010203040607080912010002EF02014032
:101F40003412341200010102030109024B000201A4
:101F5000008032080B0002020201000904000001A7
:101F600002020102052400100105240100010424DD
:101F7000020205240600010705830340000009044E
:101F80000100020A000000070502024000000705E8
:101F90008102400000040309041403430068006543
:101FA000007200720079005500530042002603437E
:101FB000006800650072007200790055005300420D
:101FC0000020004300440043002000440045004D31
:101FD000004F001603320030003200320031003270
:101FE0000033003400350036000055534220756E32
:101FF0006B6E6F776E206576656E743A2025640D82
:102000000A00526561642044415441205061636B71
:102010006574206661696C65640D001B5B33316D0E
:102020005B452F5553425D20001B5B306D00000067
:102030005020000800000020200000007C1A00084A
:102040007020000820000020580600008C1A0008AC
:10205000000000000000000002000000C50B0008A6
:102060000000000081000000B90B000800A24A0433
:04000005080000F1FE
:00000001FF
