:100000006F10B01A1300000013000000130000006E
:100010001300000013000000130000001300000094
:100020001300000013000000130000001300000084
:08003000130000007300100032
:100038006FF09FFC000000006F10006F6F10006FE2
:1000480000000000000000000000000000000000A8
:100058000000000000000000000000000000000098
:100068006F10F00E000000006F10900E00000000EE
:100078006F10300E6F10100E6F10F00D6F10D00D46
:100088006F10B00D6F10900D6F10700D6F10500D38
:100098006F10300D6F10100D6F10F00C6F10D00C2A
:1000A8006F10B00C6F10900C6F10700C6F10500C1C
:1000B8006F10300C6F10100C6F10F00B0000000068
:1000C8000000000000000000000000006F10D00ACF
:1000D8006F10B00A6F10900A6F10700A6F10500AF4
:1000E8006F10300A6F10100A6F10F0096F10D009E6
:1000F8006F10B0096F1090096F1070096F105009D8
:100108006F1030096F1010096F10F0086F10D008C9
:100118006F10B0086F1090086F1070086F000072B1
:1001280000000000000000000000000000000000C7
:080138000000000000000000BF
:100140003D432A876373C3029377F700BDEFADE5A4
:10015000937606FF3D8ABA960CC34CC30CC74CC7B6
:100160004107E36BD7FE11E28280B306C3408A06E3
:100170009702000096966780A6002307B700A306A3
:10018000B7002306B700A305B7002305B700A304F3
:10019000B7002304B700A303B7002303B700A302EB
:1001A000B7002302B700A301B7002301B700A300E3
:1001B000B7002300B700828093F5F50F9396850072
:1001C000D58D93960501D58D61B79396270097023B
:1001D000000096968682E78086FA9680C1171D8F6A
:1001E0003E96E374C3F8A5B7411113062004814578
:1001F0001385819C06C6A937EF10E053B73602403D
:1002000023800640938706401307C0FC2386E7003F
:10021000A386E7002387E7003147A387E70013871A
:10022000C1B898CB1387C1B0D8CB1387C1A098CFE2
:10023000370700201307070DD8CF1387C1BC98D309
:1002400013878194D8D31387818C98D71387C1A83B
:10025000D8D709472389E7024947238BE702238D33
:10026000E702238FE7022381E7042383E704238542
:10027000E7042387E704239A0702239C0702239EAF
:10028000070223900704239207042394070423966C
:1002900007047D572383E7001D472381E700A381DF
:1002A0000700130790022380E640130710F8A3808D
:1002B000E700B24001454101828009E9B7370240B9
:1002C00003C7374013770708A381E7402384A19C25
:1002D00001458280834705008355250003461500AC
:1002E0009396870113F7F707E1869387819C63C391
:1002F000060021070A07BA972391B7002382C70097
:1003000001458280014582809377F507620561850A
:100310001D476342050C6361F7020D671307871FD2
:100320008A07BA979843B7370240938707400287F6
:100330001307C0F82389E7020145828003C76703DA
:100340001377370F238BE7021367C700238BE7026E
:10035000E5B703C7A7031377370F238DE7021367AA
:10036000C700238DE702C9BF03C7E7031377370F21
:10037000238FE7021367C700238FE70275BF03C708
:1003800027041377370F2381E7041367C7002381FE
:10039000E7045DB703C767041377370F2383E704C8
:1003A0001367C7002383E70441BF03C7A70413777C
:1003B000370F2385E7041367C7002385E704ADBF24
:1003C00003C7E7041377370F2387E7041367C700D2
:1003D0002387E70495B7E361F7F60D6713078721D5
:1003E0008A07BA979843B737024093870740028736
:1003F0001307300481B703C767031377C70F238B35
:10040000E7021367370099B703C7A7031377C70F2E
:10041000238DE70213673700A9B703C7E7031377F4
:10042000C70F238FE70213673700B9B703C7270445
:100430001377C70F2381E7041367370089BF03C70A
:1004400067041377C70F2383E7041367370099BF47
:1004500003C7A7041377C70F2385E7041367370083
:10046000A9BF03C7E7041377C70F2387E704136700
:100470003700B9BF9377F5076205FD17618593F7DC
:10048000F70F1947634105086363F7020D67130708
:1004900087238A07BA979843B73702409387074064
:1004A000028703C7670313773707238BE7020145EA
:1004B000828003C7A70313773707238DE702C5BFE1
:1004C00003C7E70313773707238FE702CDB703C7C7
:1004D0002704137737072381E704D1BF03C76704D5
:1004E000137737072383E704D9B703C7A704137724
:1004F00037072385E70465BF03C7E704137737078A
:100500002387E7046DB7E364F7FA0D671307472500
:100510008A07BA979843B737024093870740028704
:1005200003C767031377C70B13672700BDBF03C754
:10053000A7031377C70B1367270041B703C7E70368
:100540001377C70B1367270041B703C72704137737
:10055000C70B1367270041B703C767041377C70B9F
:100560001367270041B703C7A7041377C70B1367A7
:10057000270041B703C7E7041377C70B13672700AA
:1005800041B701458280411122C406C626C24AC035
:1005900032849377F50789E97D5501CAB240224438
:1005A00092440249410182805DE21D470145E367B3
:1005B000F7FE0D658A0713050527AA979843B737F5
:1005C0000240938707400287239807020145F9B745
:1005D000239A070203C767031377C70F238BE7022A
:1005E000F5B7239C070203C7A7031377C70F238D13
:1005F000E702E9BF239E070203C7E7031377C70F8C
:10060000238FE702E1B72390070403C7270413777A
:10061000C70F2381E7045DBF2392070403C7670464
:100620001377C70F2383E70455B72394070403C741
:10063000A7041377C70F2385E70449BF2396070450
:1006400003C7E7041377C70F2387E70441B7368949
:100650001387819C93962700369703572700637A68
:10066000C7029DE78546238CD1803A842286138574
:10067000C1B8EF10B00A131704014183B737024025
:100680002398E7420145E30B09F02320890039B79D
:100690003A841D47E368F7FE8D6793870729B6976D
:1006A0009C4393140401C180828722861385C1B4C0
:1006B000EF10D006B7370240239A974203C767432B
:1006C0001377C70F238BE74275BF22861385C1A41A
:1006D000EF10D004B7370240239C974203C7A743CB
:1006E0001377C70F238DE74271BF22861385818858
:1006F000EF10D002B7370240239E974203C7E7436B
:100700001377C70F238FE742B5BF22861385C1C079
:10071000EF10D000B73702402390974403C7274417
:100720001377C70F2381E744B1BF228613858198D1
:10073000EF10C07EB73702402392974403C7674447
:100740001377C70F2383E74435BF22861385819033
:10075000EF10C07CB73702402394974403C7A744E7
:100760001377C70F2385E74431BF22861385C1ACB9
:10077000EF10C07AB73702402396974403C7E74487
:100780001377C70F2387E744F5BD91E53336C000E3
:100790003305C040828019E201458280373702402C
:1007A0001307074003578700411122C4420706C6BA
:1007B00026C24183AA8732846373C7003A8493F7C1
:1007C000F7071D47B6842E85636DF7020D678A070C
:1007D0001307072BBA979C438287A147631EF60035
:1007E00081EE21469385C1B8EF104073B240224498
:1007F000924401454101828022869385C1B8EF1061
:10080000E071EDD480C0DDB722869385C1B0C5BF4D
:1008100022869385C1A0E5B7B7050020228693857F
:10082000050DF1BF22869385C1BCD1BF2286938579
:100830008194F1B722869385818CD1B722869385E6
:10084000C1A875BFB7370240411122C613840740C3
:100850008347640093F7F70F13F72700630E072809
:10086000834774001307000293F70703638BE704C1
:10087000130700036381E70295EB834774001D476C
:1008800093F7F7036364F7020D671307072D8A07D1
:10089000BA9798430287930720FC2309F402814505
:1008A00035454926930700FC2309F402B737024077
:1008B00009472383E740938707403244410173008F
:1008C0002030834774001D4793F7F703811793F790
:1008D000F70FE36DF7FC0D671307072F8A07BA9729
:1008E0009843028781453945352E83C7819C93F70C
:1008F000F70F91CF373702408347374003C6819CBB
:1009000093F70708D18FA301F7402384019C138735
:10091000818183460700B73702409387074093F6EB
:10092000F60F91CA2300070003C7270313470704E4
:100930002389E702A5BF0947E5BF03476403930581
:10094000100813470704230BE402034764031377DB
:10095000C70F13672700230BE4024145E124B9B711
:100960000347A4039305200813470704230DE4025B
:100970000347A4031377C70F13672700230DE4026F
:10098000E9BF0347E4039305300813470704230F27
:10099000E4020347E4031377C70F13672700230F0D
:1009A000E40265BF03472404930540081347070486
:1009B0002301E404034724041377C70F13672700B8
:1009C0002301E40459BF0347640493055008134707
:1009D00007042303E404034764041377C70F136772
:1009E00027002303E40495BF0347A404930560088C
:1009F000134707042305E4040347A4041377C70F30
:100A0000136727002305E40489BF0347E404930523
:100A10007008134707042307E4040347E40413772B
:100A2000C70F136727002307E40405BF81453D4531
:100A300035B70347740013770704E30907E6034754
:100A40006403854513470708230BE402454539B77E
:100A50000347740013770704E30A07E40347A4037A
:100A6000894513470708230DE402CDB703477400F7
:100A700013770704E30C07E20347E4038D451347AC
:100A80000708230FE402D9B703477400137707045C
:100A9000E30E07E0034724049145134707082301A9
:100AA000E4046DB70347740013770704E30007E01D
:100AB000034764049545134707082303E40479B703
:100AC0000347740013770704E30207DE0347A40417
:100AD0009945134707082305E4048DBF03477400B5
:100AE00013770704E30407DC0347E4049D45134739
:100AF00007082307E40499BF13F7170015CF8947A8
:100B0000A30104002309F402230BF402230DF402D1
:100B1000230FF4022301F4042303F4042305F40453
:100B20002307F40481450545F5288347640093E7CE
:100B300017002303F40051B313F747007DDB83470D
:100B400054009147FDB7011106CE834725002306C7
:100B5000F1008347550003474500A207D98F93F75B
:100B6000F77F2317F1008347350068008D8BA306BC
:100B7000F100EFF02FF6F240133515000561828089
:100B8000011122CC1384C1C48347440106CE26CA76
:100B900002C6A5E750440C44AA847400130500085B
:100BA00032C6D53263550502373500001305C546F8
:100BB000EF102042373500001305C547EF100053F2
:100BC0003735000013054549EF10A04015A0B24687
:100BD00018445C443697958F18C45CC491EB1C484C
:100BE00063F8970093F7F70381E78547230AF4003A
:100BF000F2406244D24405618280814601468145CB
:100C000013050008230A0400BD3AE35305FE3735F7
:100C100000001305C546EF10C03B37350000130533
:100C2000C54969BF01114AC806CE22CC26CAC547AC
:100C30002A8963EBA7200D67931725001307073157
:100C4000BA979C432E8482870145EFF00FE7938784
:100C5000C1C4239E0714B7074000938707086800A4
:100C60003EC6EFF02FE7680023060100EFF08FE6A5
:100C700083A6C1829384C1C491EA83A4C182A1E402
:100C8000F2406244D244424905618280904619E2B2
:100C90009442DDB7184E19E31042D5BF0C4799CDE9
:100CA00083474700139587016185635B050093F7D0
:100CB000F707938747048A07A697CCC71843E1BF75
:100CC0009387C704CDBF9C449C4B81C7A2854A85AE
:100CD000829784406DB7814621469385C1C4014502
:100CE0006D34268963590502373500001305C54662
:100CF000EF10202E373500001305853BEF10003F25
:100D00003735000013054549EF10A02C13050008E6
:100D1000EFF08FDFB5B79387C1C483D767001307A0
:100D200000101384C1C46371F7020387C1C4634D0B
:100D30000700373500001305C546EF108029373509
:100D400000001305453D5DBF138781C618C45CC410
:100D50001CC8230A040089C78387C1C4E3D207F2F1
:100D6000012A01ED373500001305C546EF10602656
:100D7000373500001305053F51B7035564001C4883
:100D80001389C1C46373F500AA872326F900CD3BFC
:100D9000C5BD1387C1C458479387C1C409E703C7BA
:100DA0004701E30F07EC03D56700D5B71384C1C42F
:100DB000504402C615E2814681450145F932E351AE
:100DC00005EC373500001305C546EF108020373598
:100DD0000000130545411DB70C44740001457532F0
:100DE000E34105FEB24618445C443697958F18C41B
:100DF0005CC4E39707E8938781C61CC4952801ED7E
:100E0000373500001305C546EF10A01C373500002C
:100E100013050543E5B50355640095BF13F5F50FBC
:100E20001377F507130747040A079387C1C4BA97D6
:100E3000DC47E38707E48297A1B513F5F50F137735
:100E4000F5071307C704CDB7373500001305C546AE
:100E5000EF10201837350000CA8513054545EF10FF
:100E600040173735000013054549EF10801609BDBE
:100E7000397122DC83C7C1C426DA06DE93F4070683
:100E80004AD84ED652D456D25AD05ECE8D8B054714
:100E9000639BE70603A7C1829387C1C403C64700CB
:100EA0000DEF6390043E9387C1C483C7D7151389A0
:100EB000C1C4B5C783248901834949008946A687EF
:100EC00003C7070029CF03C617006316D60003C661
:100ED000470063E3C954BA97E5B71C4799E3184341
:100EE000C1B7D44799CE83C54701639CC50013861B
:100EF000C1C5938541C51385C1C4829609E50545E1
:100F000091A09C43E1BF639E043683C7C1C40547DB
:100F10008D8BE38AE7F8B1C389466388D7263735D6
:100F200000001305C546EF10C00A37350000130551
:100F30000556EF10A01B3735000013054549EF108B
:100F400040090145F2506254D2544259B259225AD2
:100F5000925A025BF24B216182809387C1C403D510
:100F6000270083C717002D479384C1C46368F71611
:100F70000D678A0713078735BA979C4382871384C6
:100F8000C1C49387A1DA1CC489471CC88DBF85479B
:100F9000E317F5F6239F041481452945613185B790
:100FA0008547E31EF5F4239FA41481452545FDB72D
:100FB0001375F50FEFF06FB099B7935585008D4716
:100FC00093F6F50F1376F50F639FF5009307E00E88
:100FD0006317F60283A74182B9D3984398C483C7A5
:100FE00047009CC829BF3D476399E50083A7C1819D
:100FF0009DD79843DC4398C4EDB7E3E2B7F29C4C2D
:10100000014703C5070015E1373500001305C54644
:1010100032C62EC4EF00F07B3246A24537350000C1
:101020001305055CEF00F07AC1A803C8170063152B
:10103000D8006308E63C0507AA97E1B783C7070015
:101040004DB7938791DA9CC4854761BF1374F50F40
:101050000DC003A9840101459309F00F130AF00F95
:10106000914A154B894B8347090095EFE30905EA3F
:101070001DA0373500001305C546EF0090753735C4
:1010800000001305454BEF106006373500001305CF
:101090004549EF0010748547A38E8414238EF41401
:1010A00081451145E5BD83471900638F5701638072
:1010B000670363977701834959006313340105453A
:1010C000834709003E9945B7034A3900D5BFE31964
:1010D00034FFE3170AFE4A85BD34DDB7373500001B
:1010E0001305C546EF00F06E83C5140037350000C8
:1010F0001305454EEF00F06D3735000013054549E7
:10110000C1A8832789002380070085472328F90089
:10111000FDB3834A29001304F00F1309F00F014AAD
:10112000114B954B83C7040081E7D2852145BDB59E
:1011300083C71400638867016380770383C7040053
:10114000BE94CDB703C4240003C93400E39889FEDC
:10115000E3962AFF268ADDB7E39289FE63872A0198
:1011600003C52400EFF00F9AD1BF2685E93AF9B7FD
:10117000373500001305C546EF00B0653735000070
:101180008345190013050550B5B71384C1C48347BF
:101190001400834444001389C1C46380E70685CFEB
:1011A0000D473735000037390000638CE7083147B9
:1011B000E387E7D61305C546EF00B0618345140009
:1011C0003735000013058554EF00B0601305494919
:1011D000EF003060A9B393F7F40789C78347D915A7
:1011E000E38F07D29385A1DA2685EFF08FB91384B8
:1011F000A1DA23248900894711BF83572400E39093
:1012000007D293F7F40789C78347D415E38907D03A
:10121000373500001305C546EF00B05B37350000D9
:10122000A68513050552EF00D05A37350000130587
:101230004549EF00105A2685EFF0CFA3814531458F
:10124000B1BB83572400E39C07CC93F7F40789C70D
:101250008347D415E38507CC1305C546EF007057C7
:1012600037350000A68513054553EF00905613054A
:101270004949EF0010562685EFF00F8981452D452D
:1012800031BB930700026391F40A83C7C1C40547C9
:101290008D8B639AE70403A7C1829387C1C403C6F9
:1012A000470001EF373500001305C546EF007052C7
:1012B0003735000013058557ADB91C4799E318432E
:1012C000CDB7D44399CE83C54701639CC50013862F
:1012D000C1C5938541C51385C1C48296E35105C23A
:1012E000D1B79C43E1BF0947E39EE7FA03A7C18258
:1012F0009387C1C483D64700A1824DD71C4799E389
:101300001843E5BF03A8C700630E080003C64701E2
:10131000631AD6001386C1C5938541C51385C1C420
:1013200002986DBF9C43E1BF930700040145E39B16
:10133000F4C003A741822DCB9387C1C403C6170015
:10134000834657006317D60883D647001146638249
:10135000C60415466385C604373500001305C54627
:10136000EF0030473735000013050559EF001058DE
:101370003735000013054549EF00B045373500000B
:101380001305C546EF00F044373500001305855AB4
:101390004DB614470357C70094C798CB8DB6144B6E
:1013A0000357470194C7D5BF03A781821DC3938705
:1013B000C1C403C6170083466700631CD60003D66A
:1013C00047009D46E31AD6F814430357470094C7D5
:1013D000E9B783A4C182DDD003A9840063140900A6
:1013E0008440D5BF8327890081E703290900FDB721
:1013F0001386C1C5938541C51385C1C4829775F510
:10140000FDBC9CC40947E39BE6C203C7270083C712
:101410003700A207D98FF1B6834719002D47E3693A
:10142000F7D40D678A0713078738BA979C438287DA
:1014300023A2A1C682809387C182984319E788C3FB
:1014400023200500232405008280BA87FDB703C747
:101450000182210593870182238AE500144191EAE4
:101460000CC1050723A0050023AC05002380E7007D
:1014700082803685E5B761051C4189E70CC123A050
:10148000050082803E85CDBF411106C6EFE0DFD565
:10149000B24001454101828085476318F502130778
:1014A00000F82386E1DA130740F8A386E1DA7947EA
:1014B0002387E1DAA38701DA21479387C1DA2383FF
:1014C000E700A382070023820700828093870183BD
:1014D0009843011122CC06CE2A846306A7002EC6AB
:1014E00088C3913FB245B717000093870751DCC10D
:1014F0002285B71700006244F2409387874923A6EC
:10150000050023A405009CC9056191B782808280F3
:1015100083471500130710026382E708411106C6CE
:1015200022C426C213072002638AE70413070002BD
:101530007D556390E7048C411D461385C1DAEF00A9
:10154000F01D03C5D1DA83C7C1DA9384C1DA22055D
:101550005D8D83C7E1DA83C6440003C65400C20729
:10156000C98F03C5F1DA83C5640062055D8D793FDB
:101570000145B24022449244410182800344350037
:101580008347250022045D8C13751400A38981DA3A
:10159000F5201355140005899D3FD9BF9387C1DA03
:1015A0009CC19D471CC20145828037350000130550
:1015B000056A6F00B0331D717400130600040C0837
:1015C000A2CCA6CACAC886CEAA840144EFF0EF9B7B
:1015D00037390000B2476362F40437350000130561
:1015E000054BEF00B030B245373500001305C56A32
:1015F000EF00301E8146014681452685EFF0EF98C9
:1016000032460C08814613051008EFE0DFF7F6407C
:101610006644D6444649256182809C08A29783C5CA
:1016200007FC1305496A0504EF00B01A1374F40FA0
:1016300055B70D6541111305C55E06C622C426C205
:10164000C53B138541DD938501DE4935938581DBFB
:10165000138541DDA53DB7050020138581DB93850A
:10166000C500113DB7050020138581DB938505007A
:1016700019352244B2409244410139B593874183E0
:1016800009C505472380E700828023800700828008
:1016900001118545114506CE02C202C402C60D2DB8
:1016A00085472312F10037150140930780023EC69B
:1016B0004C008D47130505803EC4AD26F240056100
:1016C00082803715014085451305058029A9011140
:1016D0008545214506CE02C202C402C6D52B9147DC
:1016E0002312F10037150140C1473EC64C008D471B
:1016F000130505C03EC43D26F240056182804111BC
:1017000022C4371401409145130504C006C6CD26F6
:10171000854791456318F500130504C02244B24083
:101720004101F1AE130504C02244B2404101F1A6CB
:101730007300203001A001118545114506CE492BCB
:101740000145412985450565AD239307B053231411
:10175000F100280085473EC623050100752637475E
:10176000024083270780B716F0FFFD1693E7470076
:101770002320F780B717014003A74780F240758FF9
:1017800023A2E78003A7C780F9769386F67F758F3B
:1017900023A6E78003A74780B7860800558F23A2BA
:1017A000E780056182804111094506C622C426C230
:1017B0004AC0812E9125716513050520592DC93D1B
:1017C0003937373500001305C56BEF003012373558
:1017D00000001305856DEF0070113735000013050B
:1017E000056FEF00B010373500001305C570EF002E
:1017F000F00FB707002083A58708373500001305D1
:101800000572EF00007D3735000013050573EF000A
:10181000F00D05351304A00F81441309A00F8504B2
:10182000B3F7840291E3E13D693D19E50545D52B08
:10183000FDB713052003F523693565FD6305240114
:101840001304A00FE5B713044006CDB7B717024045
:101850009843B706FFF841111367170098C3D843A0
:1018600037060200758FD8C39843B706F7FEFD16FA
:10187000758F98C39843B706FCFFFD16758F98C304
:10188000D843B70681FFFD16758FD8C337079F0071
:1018900098C702C402C69843C166558F98C3B7164D
:1018A0000240130700509C42F18F3EC6A2478507B5
:1018B0003EC4B24781E7A247E397E7FEB71702406D
:1018C0009C431397E7006354070885473EC6324799
:1018D0008547631CF706B72702409843B706C1FF48
:1018E000FD161367070198C39843719B98C39843EB
:1018F0001367270098C3B7170240D843D8C3D8430B
:10190000D8C3D84313670740D8C3D843758FD8C30B
:10191000D843B7061D00558FD8C39843B7060001BA
:10192000558F98C3984393166700E3DD06FED843AE
:10193000B7160240719BD8C3D84313672700D8C39A
:101940002147DC42B18BE39EE7FE4101828002C663
:10195000BDBF01A001A001A001A001A001A001A0A4
:1019600001A001A001A001A001A001A001A001A06F
:1019700001A001A001A001A001A001A001A001A05F
:1019800001A001A001A001A001A001A001A001A04F
:1019900001A001A001A001A001A001A001A001A03F
:1019A00001A001A001A001A001A097F1FF1F938158
:1019B000E1ED173100201301E16417250000130544
:1019C00025E297E5FF1F9385E5631386818163FA1E
:1019D000C5008322050023A0550011059105E3EA07
:1019E000C5FE13858181938501E06377B5002320CF
:1019F00005001105E36DB5FE9302800873A0023067
:101A000097E2FFFF9382826393E212007390523059
:101A1000EFF0DFE397020000938222D97390123433
:101A2000730020309C4513F7070113F8F70001C736
:101A3000D8413368E80083D5050013F7F50F39C3A3
:101A400018418146854E3D4F930F800293028004DA
:101A5000214E3396DE00B3F8C50063111603939848
:101A6000260033131F011343F3FF3377E300B3184A
:101A7000180133E7E800639FF70550C98506E39A2C
:101A8000C6FD18C11307F00F6375B7045441214612
:101A9000854E3D4F930F800293028004414EB398D0
:101AA000CE0033F715016392E802131726000117E1
:101AB0003313EF001343F3FFB376D3003317E8007B
:101AC000D98E639DF701232A15010506E319C6FD8A
:101AD00054C18280E39457FA10C94DB7E39757FE7B
:101AE00023281501DDB708456D8D3335A0008280B0
:101AF00048456D8D3335A00082800CC982804CC969
:101B0000828023ACA18282809387818394430347A0
:101B1000050089E683472500920731A894430546CE
:101B20006391C6048347250003461500920763149A
:101B3000D60093E707F8B7E600E093F7F70FBA96F9
:101B40002380F6408546935757003397E60054416B
:101B5000ADC6938707048A07B7E600E0B69798C337
:101B600082808C4389466393D50283461500834760
:101B700025006365D6008A06B69779BF9386E6038B
:101B80008A06B69793F7F70F920765B790438D468D
:101B9000631ED60083461500834725006364D60084
:101BA0008606D9BF9386C6078606E1BF9443914750
:101BB000E39AF6F88347150085B7B7E600E0938708
:101BC0000706B042C1458A07ACC2B69798C3B0C2F7
:101BD000828009C9371702405C43B7064000D58FA1
:101BE0005CC38280B7160240DC423707C0FF7D1716
:101BF000F98FDCC28280371702405C439146B18B7B
:101C00006385D700A1466386D706B7177A00938706
:101C100007201CC1371602405C423707002013071B
:101C200087019183BD8BBA9783C607001C41B3D748
:101C3000D7005CC15442A1829D8ABA9683C6060031
:101C4000B3D6D70014C55442AD829D8A3697034758
:101C50000700B3D7E7005CC5584239839376370055
:101C600013874180369703470700B3D7E7021CC9A3
:101C700082805C435443C983BD8B1396F600890769
:101C8000634D06003747024003270780418B19CB7D
:101C900037177A001307072011A858439316E70057
:101CA000E3D806FE37173D0013070790B387E70216
:101CB0008DB799C5371702405C4B5D8D48CB82804C
:101CC000B7170240D84B1345F5FF798DC8CB8280FA
:101CD00099C5371702401C4F5D8D08CF8280B7171A
:101CE0000240984F1345F5FF798D88CF8280835647
:101CF0000501F577FD17F58F83D66500397122DC74
:101D000006DED58F03D7C5002318F5008356C5001E
:101D1000FD779387379FF58F83D645002A842EC69B
:101D2000D58F83D68500D58F83D6A500D58F231672
:101D3000F50083574501C207C18393F7F7CFD98FC9
:101D4000231AF5006808453DB7470140938707808F
:101D5000B245631EF404A2578356C4006547B38797
:101D6000E702C206C186984163D5060406070356FA
:101D7000C4004206B3D7E702130740064186B3D634
:101D8000E702B3F7E7029206635706028E079387CE
:101D90002703B3D7E70213F77700B367D700C2076B
:101DA000C1832314F400F25062542161828092575F
:101DB00065B70A076DBF920793872703B3D7E7027A
:101DC000BD8BD58FE9BF81C98357C5000967D98FFE
:101DD0002316F50082800357C500F977FD17F98FA8
:101DE000C5BF93F5F51F2312B5008280035505008A
:101DF0006D8D3335A0008280B707002083A7870848
:101E000037177A0013070720B3D7E70293F7F70FC6
:101E1000238FF1821307803EB387E702239EF1826E
:101E20008280B7F700E023A0070003D7C183238295
:101E30000700A3820700238307003305A702A383BB
:101E40000700054798C337F700E05C43E37FF5FEE2
:101E50008280797122D42A8411658545110506D6C0
:101E6000853D930700202312F100371501408D476F
:101E70003EC44C00E147130505803EC6EFF09FBA13
:101E800022C837440140B70708000C081305048036
:101E90003ECC02CA231E0100993D130504808545EE
:101EA0001D37B250225445618280011126CAB744C1
:101EB000014022CC4AC84EC606CEAE8932890144C2
:101EC00093840480634A2401F24062444A85D244E8
:101ED0004249B2490561828093050004268539375D
:101EE00065DDB38789008385070026850504C20563
:101EF000C181C53DC1BF138781801C43938601E02A
:101F00003E95636BD500B75600209386068063E547
:101F1000A60008C33E858280FD57EDBFB3C7A5006C
:101F20008D8B3307C50081E78D4763EEC700AA8715
:101F30006370E50A83C6050085078505A38FD7FE74
:101F4000E3EAE7FE828093763500AA8791CA83C6CA
:101F5000050085078505A38FD7FE93F63700FDB7EB
:101F60009376C7FF138606FE63F0C70683A30500BA
:101F700083A2450083AF850003AFC50083AE050192
:101F800003AE450103A3850183A8C50193854502DE
:101F900023A0770003A8C5FF23A2570023A4F701BD
:101FA00023A6E70123A8D70123AAC70123AC670012
:101FB00023AE17019387470223AE07FF75B7904101
:101FC0009107910523AEC7FEE3EBD7FEE3E4E7F606
:101FD000828039713EDA2ED232D436D63AD842DCFB
:101FE00046DE9387C18022CC804326CA06CEAA84CF
:101FF00009C41C4C99E3228515230C4454102686F1
:10200000228536C6EF007016F2406244D244216148
:102010008280011126CA4AC806CE22CC4EC652C4BE
:10202000AA842E8901C51C4D91E3CD299C4C804486
:1020300099E32685E521971700009387A772631C13
:10204000F402C0408357C400A18BB1C71C48A1C78C
:10205000FD59294A1C4483450900FD17B1E91CC4F8
:1020600063DE07062286A94526857120FD57630891
:10207000F502294535A0971700009387A7706314D0
:10208000F4008044C1B7971700009387A76BE31B48
:10209000F4FAC04445BFA2852685312A55D97D551D
:1020A000F2406244D2444249B249224A05618280E8
:1020B0001CC4050963D70700184C63CBE70063898C
:1020C00045011C401387170018C02380B70059B77B
:1020D000228626850D20E31F35F7D1B71C401387D4
:1020E000170018C029472380E70061B79387C18094
:1020F000AA85884339BF011122CC26CA4AC806CE18
:102100004EC6AA842E89328401C51C4D91E3392123
:1021100097170000938707656319F406C0401C4CAD
:102120001CC48357C400A18BC9C31C48BDCF1C4825
:1021300008409379F90F1379F90F1D8D5C486346B8
:10214000F500A2852685652C2DE51C440505FD17A7
:102150001CC41C401387170018C0238037015C483B
:102160006389A7008357C400858B81CBA947631679
:10217000F900A285268561240DEDF24062444A856E
:10218000D2444249B2490561828097170000938783
:10219000675F6314F400804459B797170000938772
:1021A000675AE31EF4F6C0449DBFA2852685212010
:1021B0003DDD7D59D9B741119387C18026C2844343
:1021C00022C44AC006C62A892E8489C49C4C99E33D
:1021D0002685A926971700009387C758631CF40229
:1021E000C0400317C40093170701C18393F687000B
:1021F000B5EE93F607019DEEA5472320F90013677E
:1022000007042316E4007D55B2402244924402495B
:1022100041018280971700009387C7566314F4002A
:102220008044C1B7971700009387C751E31BF4FAA6
:10223000C04445BF918B8DC74C5889C9930744044E
:102240006384F5004A85352B232A04028357C40092
:102250002322040093F7B7FD2316F4001C481CC08A
:102260008357C40093E787002316F4001C4881EFCE
:102270008357C4001307002093F707286385E700FE
:10228000A2854A8585218357C40013F7170005C727
:102290005C4823240400B307F0401CCC1C480145D3
:1022A000A5F78317C40013F7070839DF93E707047E
:1022B0002316F40089BF898B014791E3584818C45D
:1022C000F1BF83D7C500011122CC26CA06CE4AC869
:1022D0004EC613F78700AA842E8471EFD841634D50
:1022E000E000B841634AE0000145F2406244D24454
:1022F0004249B2490561828058547DD703A9040040
:102300009396370123A0040063DD060670488357C7
:10231000C400918B99C75C401D8E5C5899C33C40AA
:102320001D8E5C540C50814626858297FD570357BD
:10233000C400631DF5009440F54763E8D706B7076E
:1023400040208507B3D7D700858BA5C31C4823221F
:1023500004001CC09317370163D80700FD576314AE
:10236000F5009C4091E368C84C5823A02401ADDDE2
:10237000930744046384F50026852121232A04025F
:10238000A5B70C500146854626850297FD572A863B
:10239000E31FF5F69C40A5DF75476385E7005947C5
:1023A0006394E70423A0240181B71367070423166D
:1023B000E4007D551DBF83A90501E38709F203A948
:1023C00005008D8B23A0350133093941014791E385
:1023D000D84918C4E35A20F11C540C50CA864E86C2
:1023E000268582976349A0008357C40093E70704BA
:1023F0002316F4007DBFAA993309A940E1BF9C4987
:10240000B9CF011122CC06CE2A8411C51C4D81E71B
:102410002EC62922B245971700009387A734639BE5
:10242000F5004C408397C50095C722856244F24071
:10243000056141BD971700009387C7346394F50089
:102440000C44CDB7971700009387C72FE39CF5FC8A
:102450004C44C9BFF2406244014505618280014598
:102460008280411122C406C62A842316B500231790
:10247000C500232005002322050023240500232274
:10248000050623280500232A0500232C05002146E4
:1024900081451305C505EFD0BFCA97170000938784
:1024A00087B45CD0971700009387E7B61CD49717C2
:1024B0000000938727BB5CD4971700009387E7BD84
:1024C00000D01CD8B2402244410182809705000010
:1024D000938525F3A9A2411126C213068006938491
:1024E000F5FFB384C4024AC02E8922C406C6938570
:1024F0004407252E2A8401CD23200500232225010F
:10250000310508C4138684068145EFD07FC3228538
:10251000B240224492440249410182801C4DADE305
:10252000411106C622C497070000938767FA1CD59D
:10253000938701819C432324050423260504232833
:1025400005046314F50085471CCD2A841D2848C066
:102550002285052808C422852D2048C4484001460C
:102560009145013708440546A545E53D48440946DF
:10257000C945C53D85471CCCB240224441018280FB
:10258000828041119387018126C284434AC006C6D6
:102590009C4C22C42A8999E3268549379384840474
:1025A0008044DC40FD1763D607009C40B9CF8440CF
:1025B000C5BF0317C40039E7C17785072322040686
:1025C0002320040023220400232404005CC42328C5
:1025D0000400232A0400232C04002146814513050E
:1025E000C405EFD0FFB5232A0402232C04022324C0
:1025F0000404232604042285B24022449244024962
:10260000410182801304840671BF91454A85E135FA
:1026100088C051FDB1472320F9000144E9BF797119
:1026200022D44AD052CC56CA5AC85EC606D626D242
:102630004ECE2A8AAE8A130485040149054BFD5B00
:1026400009ECB25022544A8592540259F249624A26
:10265000D24A424BB24B45618280044483294400F4
:10266000FD1963D409000040E1BF83D7C400637B38
:10267000FB008397E40063877701A6855285829AE1
:102680003369A90093848406E1BF1971A6DAAE8488
:102690008395E500A2DC86DE328463DC050083D707
:1026A000C40023A0060093F7070885E793070040BE
:1026B0001DA0300836C6EF00D023B246E34105FE28
:1026C0007247BD67F98F7977BA9793B717009CC2A5
:1026D000F1BF930700041CC0F6506654D654014560
:1026E0000961828083D7C500011122CC06CE26CA9B
:1026F0004AC8898B2E8489CF930774041CC01CC8D8
:1027000085475CC8F2406244D244424905618280F8
:1027100074003000AA84953FA2452A89268531227B
:1027200001ED8317C40013F7072069FFF19B93E7BE
:1027300027002316F400C9B797070000938747D9ED
:102740009CD48357C40008C008C893E70708231621
:10275000F400A2475CC8B24791CF8315E4002685F8
:10276000EF00D01B01C98357C400F19B93E717000A
:102770002316F4008357C4003369F900231624019B
:1027800051B7DDC183A7C5FF411122C406C626C2C9
:102790001384C5FF63D307003E94AA84EF00F01EA4
:1027A000938701849C4381EF2322040023A081842A
:1027B0002244B2402685924441016F00301D637E61
:1027C000F40014403307D4006396E7009843DC43D9
:1027D000369718C05CC0D9BFBA87D84319C3E37D08
:1027E000E4FE94433386D700631F86001040B29600
:1027F00094C33386D700E31DC7FA10435843B296FB
:1028000094C3D8C375B76375C400B1479CC04DB7B6
:102810001040B306C4006316D70014435843B29661
:1028200014C058C0C0C369B78280011126CA9384FE
:102830003500F19806CE22CC4AC84EC6A104B14755
:1028400063F3F404B14463E2B4042A89EF00F013A3
:102850009387018498433A8439E0938741849C4369
:1028600091E781454A85892F23A2A184A6854A85BF
:10287000A127FD5963193507B1472320F9004A857F
:10288000EF00D01029A0E3D004FCB1471CC10145E2
:10289000F2406244D2444249B249056182801C4000
:1028A000858F63CF0702AD4663F6F6001CC03E94E9
:1028B00004C031A05C406313870223A0F1844A85E1
:1028C000EF00D00C1305B40093074400619933075F
:1028D000F5405DDF3A94898F1CC05DBF5CC3C5B70E
:1028E0002287404095BF130435007198E30285FCB0
:1028F000B305A4404A85C925E31C35FBB5BF1C467A
:10290000FD171CC663DA0700184E63C5E700A94728
:102910006394F5006FF02FFE1C422E85138717007D
:1029200018C22380B7008280011122CC26CA4AC86F
:102930004EC652C406CE2A89AE893284B304D6006C
:102940007D5A63149400014509A8834504004E860E
:102950004A8575370504E31645FFF2406244D244C8
:102960004249B249224A05618280357122CD26CB87
:102970004AC94EC706CF52C556C35AC1DEDEE2DC95
:10298000E6DAAA89AE843289368409C51C4D99E3FA
:10299000EFF0DFB8971700009387C7DC639BF40C58
:1029A00083A4490083D7C400A18BF5C79C48E5C721
:1029B00093070002A304F1029307000302D2230548
:1029C000F10222C6930B5002971A0000938A8ADD07
:1029D000054C294B4A848347040099C36390770FC1
:1029E000B30C2441638D0C00E6864A86A6854E858D
:1029F000253FFD576306F51E9256E69636D283476D
:102A00000400638F071CFD571309140002C802CE8F
:102A10003ECA02CCA309010482D4834509001546AD
:102A20005685B92713041900C24759E913F707015E
:102A300009C713070002A309E10413F7870009C7B8
:102A40001307B002A309E104834609001307A0029B
:102A50006380E608F2474A8481462546034704001E
:102A600093051400130707FD6379E60AB5CA3ECE45
:102A700085A8971700009387E7D06395F40083A497
:102A800089000DB7971700009387C7CBE39CF4F03C
:102A900083A4C90001BFA6854E85EFF0CFF109D907
:102AA0007D55FA406A44DA444A49BA492A4A9A4A60
:102AB0000A4BF65B665CD65C0D618280050421BF23
:102AC000330555413315AC00C98F3EC82289B1B7D3
:102AD000324793064700184336C6634907023ACE89
:102AE000034704009307E002631FF7040347140041
:102AF0009307A002631BF702B2470904138747003C
:102B00009C433AC663C107023ECA35A83307E0407A
:102B100093E727003ACE3EC8E1B7B38767038546FF
:102B20002E84BA9725BFFD57C5B7050402CA814652
:102B3000814725460347040093051400130707FD4A
:102B40006376E606F1F2834504000D461715000092
:102B50001305C5C5312D11CD97170000938707C503
:102B60001D8D93070004B397A700424505045D8DB2
:102B70002AC883450400194617150000130545C3EC
:102B8000130914002304B102E5233DC197D7FFFFC9
:102B90009387474795E74247B2471377071009CF16
:102BA00091073EC69257D2973ED22DB5B3876703A1
:102BB00085462E84BA97BDBF9D07E19BA107D5B777
:102BC000780097060000938666D626860C084E8508
:102BD00097000000E7000000FD572A8AE314F5FC87
:102BE00083D7C40093F70704E39C07EA125555BD49
:102BF000780097060000938666D326860C084E85DB
:102C0000012AD9BF797156CA9C49BA8A984522D4FB
:102C100026D24ECE52CC06D64AD05AC85EC6AA8913
:102C20002E84B284368A63D3E700BA879CC00347F8
:102C3000340419C385079CC01C4093F7070281C761
:102C40009C4089079CC00329040013796900631A1A
:102C50000900130B9401FD5B5C449840998F634C11
:102C6000F9041C408346340493F70702B336D000BE
:102C7000A5EB13063404D2854E85829AFD57630373
:102C8000F5041C4011469840998B54448144639745
:102C9000C700B384E64063D3040081441C44184851
:102CA0006354F700998FBE94014969047D5B639872
:102CB0002405014509A885465A86D2854E85829A03
:102CC000631E75017D55B250225492540259F24947
:102CD000624AD24A424BB24B456182800509ADBF80
:102CE0003307D40013060003A301C70403475404A9
:102CF00093871600A2978906A381E7049DBF8546A6
:102D00002286D2854E85829AE30E65FB050945B77A
:102D1000797122D426D24AD04ECE06D652CC56CA8B
:102D20005AC8B68983C68501930790063289AA845A
:102D30002E8413863504638DF60263E2D70693076B
:102D400080056387F61863EDD7006380062293073A
:102D50003004638EF60A930A24042301D404C9A024
:102D6000930730066385F60A93074006E395F6FE5F
:102D70001C40084393F6070893054500C5C61C414F
:102D80000CC363D807001307D002B307F040A301B8
:102D9000E40497160000938626A229476DA893079E
:102DA00000076383F61663E5D7029307E006638A9C
:102DB000F6189307F006E390F6FA0C401C4313F85C
:102DC0000508138547006307080608C39C438DA8C0
:102DD00093075007E383F6FE93078007638AF61292
:102DE00093073007E399F6F61C43D041814593865B
:102DF000470014C383AA070056859D2E01C53305DD
:102E0000554148C05C401CC8A301040471A81C4380
:102E1000930A2404938647009C4314C32301F404BB
:102E20008547D5B793F607041C410CC3B9DAC2072E
:102E3000C18781BF93F5050408C3C9D983D70700AB
:102E40001307F0066387E60E971600009386C69672
:102E50002947A30104044C400CC463C50500084085
:102E60006D9908C099E3B28A91CDB28AB3F5E702B1
:102E7000FD1AB69583C505002380BA00B3D5E702D5
:102E800063FFE70AA147631EF7001C40858B91CBC7
:102E900058401C4863C7E70093070003A38FFAFE5E
:102EA000FD1A3306564110C84E87CA867000A285A7
:102EB0002685893B7D5A631E450B7D55B2502254B1
:102EC00092540259F249624AD24A424B4561828089
:102ED000A382D504971600009386068E0C40084303
:102EE00013F805081C411105630D080208C313F708
:102EF000150001C793E505020CC04147B9FB0C4022
:102F000093F5F5FD0CC0B1B79C4193E707029CC156
:102F100093078007A302F404971600009386068B9C
:102F200075BF13F8050408C3E30308FCC207C18397
:102F30007DBF9716000093862688214719BFAE876C
:102F400035B794411C43CC4913F806081385470054
:102F50006306080008C39C438CC301A808C393F60A
:102F600006049C43F5DA2390B70023280400B28AB4
:102F700025BF14485686CA8526858299E30F45F3F6
:102F80001C40898B8DE7B2474844E359F5F23E85F2
:102F900035B785465686CA8526858299E30F65F141
:102FA000050A5C443247998FE345FAFEE9BF014ABE
:102FB000930A94017D5BF5B7411122C42A842E85C2
:102FC00023AE01DE06C6EFE01FF3FD576317F500E1
:102FD0009387C1DF9C4391C31CC0B240224441018E
:102FE0008280411122C42E848395E50006C64522C5
:102FF000634905007C48AA977CC8B240224441013D
:1030000082808357C4007D777D17F98F2316F400E3
:10301000EDB783D7C500011122CC26CA4AC84EC6D7
:1030200006CE93F70710AA842E843289B68991C7F9
:103030008395E5008946014631228357C4007D7798
:103040007D17F98F2316F4008315E4006244F240E3
:10305000CE864A86B24942492685D24405613DA8BA
:10306000411122C42E848395E50006C6E128FD5750
:103070000357C400631BF500FD77FD17F98F231676
:10308000F400B2402244410182808567D98F231623
:10309000F40068C8FDB78395E50005A8411122C476
:1030A0002A842E85B285368623AE01DE06C6EFE081
:1030B000DFDFFD576317F5009387C1DF9C4391C3A2
:1030C0001CC0B240224441018280411122C42A84A2
:1030D0002E8523AE01DE06C6CD20FD576317F50011
:1030E0009387C1DF9C4391C31CC0B240224441017D
:1030F0008280411122C42A842E85B28523AE01DE4E
:1031000006C6D120FD576317F5009387C1DF9C43A6
:1031100091C31CC0B240224441018280411122C4AB
:103120002A842E8523AE01DE06C66520FD5763176F
:10313000F5009387C1DF9C4391C31CC0B240224479
:1031400041018280411122C42A842E85B2853686AF
:1031500023AE01DE06C66120FD576317F500938795
:10316000C1DF9C4391C31CC0B24022444101828014
:1031700093F5F50F2A966314C500014582808347B5
:103180000500E38DB7FE0505FDB782808280411101
:1031900022C42A842E85B285368623AE01DE06C679
:1031A000A920FD576317F5009387C1DF9C4391C3A6
:1031B0001CC0B2402244410182809307800523AEA7
:1031C000F1DE7D5582809307800523AEF1DE7D55CB
:1031D00082809307800523AEF1DE0145828093074C
:1031E000800523AEF1DE7D5582809307800523AEF6
:1031F000F1DE7D5582800000300300003C030000BA
:1032000052030000680300007E03000094030000E6
:10321000AA030000C0030000F0030000F603000052
:10322000080400001A0400002C0400003E04000002
:103230005004000062040000A2040000B204000078
:10324000C0040000CE040000DC040000EA0400001A
:10325000F8040000200500002E0500003C050000D9
:103260004A050000580500006605000074050000CE
:10327000C8050000D0050000E2050000F4050000CC
:1032800006060000180600002A0600003C060000A2
:103290006C060000AA060000CA060000EA0600004C
:1032A0000A0700002A0700004A0700006A0700001A
:1032B000DA070000080800001008000018080000E5
:1032C000240800002C080000340800003C0800001E
:1032D0002C0A0000320A0000500A00006C0A0000AC
:1032E000880A0000A40A0000C00A0000DC0A0000EE
:1032F000E40800003A0900006009000082090000AB
:10330000A4090000C6090000E80900000A0A00003C
:103310007A0C0000480C00007A0C00007A0C0000C7
:103320007A0C00007A0C00007A0C00007A0C000085
:103330007A0C00007A0C00007A0C00007A0C000075
:103340007A0C0000D60C0000920D0000AC0D0000BD
:103350001C0E00003A0E00007E0F00008E0F0000D1
:10336000DC100000A00F0000DC100000B00F000017
:10337000BA0F00001E0F0000421000004C100000A9
:10338000FE0E0000FE0E00007E0F00001E0F00006B
:10339000701100001E0F000070110000701100007D
:1033A0007011000070110000701100007011000019
:1033B000021100001211000052656164205365740F
:1033C0007570205061636B6574206661696C65641B
:1033D0000D00000052657175657374206275666634
:1033E000657220746F6F20736D616C6C0D0000004E
:1033F000757362645F73657475705F72657175650E
:1034000073745F68616E646C6572206661696C6577
:10341000640D0000526561642044415441205061B4
:10342000636B6574206661696C65640D0000000063
:10343000757362645F73657475705F7265717565CD
:1034400073745F68616E646C657231206661696C6B
:1034500065640D0055534220756E6B6E6F776E205C
:103460006576656E743A2025640D0A001B5B333166
:103470006D5B452F5553425D20000000555342209F
:1034800077726974652064617461206661696C6536
:10349000640D00001B5B306D00000000555342209E
:1034A0007772697465207A6C70206661696C6564F6
:1034B0000D000000446576696365206E6F742063BB
:1034C0006F6E66696775726564202D20696E76611E
:1034D0006C696420636F6E66696775726174696F89
:1034E0006E0D0000496C6C6567616C2064657669DF
:1034F000636520726571203078253032780D0A00BE
:10350000496C6C6567616C20696E74657266616395
:103510006520726571203078253032780D0A000000
:1035200065703A257820636C6561722068616C74FF
:103530000D0A000065703A25782073657420686173
:103540006C740D0A00000000496C6C6567616C20AA
:10355000657020726571203078253032780D0A0050
:103560007374616E646172642072657175657374E1
:10357000206572726F720D00636C617373207265E7
:103580007175657374206572726F720D00000000B2
:10359000756E6B6E6F776E2076656E646F722063EA
:1035A0006F64650D0000000076656E646F722072B6
:1035B000657175657374206572726F720D0000001D
:1035C00064657363726970746F72203C747970659E
:1035D0003A25782C696E6465783A25783E206E6FBE
:1035E0007420666F756E64210D0A000012010002DE
:1035F000EF020140341234120001010203010902FA
:103600004B000201008032080B0002020201000997
:10361000040000010202010205240010010524013A
:10362000000104240202052406000107058303406B
:10363000000009040100020A000000070502024020
:10364000000007058102400000040309041403433D
:103650000068006500720072007900550053004256
:10366000002603430068006500720072007900556F
:103670000053004200200043004400430020004467
:103680000045004D004F001603320030003200327A
:1036900000310032003300340035003600000000F5
:1036A000696E0D002530327820000000726561647B
:1036B000206C656E3A25640D0A0000000D0A5765FE
:1036C0004163742053747564696F20436F72652081
:1036D000426F6172640D0000776561637473747585
:1036E00064696F2E74616F62616F2E636F6D0D0080
:1036F000776561637473747564696F2E616C696555
:103700007870726573732E636F6D0D0077777777BE
:103710002E77656163742D74632E636E0D0A0D0040
:1037200053797374656D436C6B3A25640D0A000020
:103730007573625F6364635F61636D0D0000000019
:103740000000000000000000000000000000000079
:103750000000000000000000000000000000000069
:103760000000000000000000000000000000000059
:103770000000000000000000000000000000000049
:103780000000000000000000000000000000000039
:103790000000000000000000000000000000000029
:1037A000232D302B20000000686C4C0065666745B7
:1037B00046470000303132333435363738394142EC
:1037C000434445460000000030313233343536374B
:0C37D00038396162636465660000000027
:1037DC000000000081000000AA150000000000009D
:1037EC0002000000B61500000000000001020304F6
:1037FC0001020304060708090000000060370000FE
:10380C00803700004037000000000000000000007E
:10381C00000000000000000000000000000000009C
:10382C00000000000000000000000000000000008C
:10383C00000000000000000000000000000000007C
:10384C00000000000000000000000000000000006C
:10385C00000000000000000000A24A040204060858
:10386C00880600202800002028000020000000000E
:00000001FF
