:100000006F10506413000000130000001300000084
:100010001300000013000000130000001300000094
:100020001300000013000000130000001300000084
:08003000130000007300100032
:100038000000000000000000421C0000461C0000F8
:1000480000000000DC1D00000000000000000000AF
:10005800DE1D0000E01D00000000000000000000A0
:10006800E21D000000000000E41D00000000000088
:10007800E61D0000E81D0000EA1D0000EC1D000060
:10008800EE1D0000F01D0000F21D0000F41D000030
:10009800F61D0000F81D0000FA1D0000FC1D000000
:1000A800FE1D0000001E0000021E0000041E0000CD
:1000B800061E0000081E00000A1E00000C1E00009C
:1000C80042120000101E0000121E0000141E000044
:1000D800161E0000181E00001A1E00001C1E00003C
:1000E8001E1E0000201E0000221E0000241E00000C
:1000F800261E0000281E00002A1E00002C1E0000DC
:100108002E1E0000301E0000321E0000341E0000AB
:10011800361E0000381E0000361200003C1E00008B
:100128003E1E0000401E0000421E000000000000AD
:080138000000000000000000BF
:10014000397101436EC619A0397141536AC866CA34
:1001500062CC5ECE19A0397101535AD056D252D416
:100160004ED64AD826DA22DC06DE3301614082828E
:1001700041114AC026C222C406C68282B24D410144
:10018000024D924C224CB24B4101024B924A224A00
:10019000B2494101024992442244B2404101828065
:1001A0003D432A876373C3029377F700BDEFADE544
:1001B000937606FF3D8ABA960CC34CC30CC74CC756
:1001C0004107E36BD7FE11E28280B306C3408A0683
:1001D0009702000096966780A6002307B700A30643
:1001E000B7002306B700A305B7002305B700A30493
:1001F000B7002304B700A303B7002303B700A3028B
:10020000B7002302B700A301B7002301B700A30082
:10021000B7002300B700828093F5F50F9396850011
:10022000D58D93960501D58D61B7939627009702DA
:10023000000096968682E78086FA9680C1171D8F09
:100240003E96E374C3F8A5B7EFF29FF211E583A7DA
:10025000818305479AAB3DBF83A701849C43829766
:1002600003A581832905C5BFEFF29FF011E583A7A0
:10027000818305479AAB39BF83A701849C47829746
:1002800003A581833105C5BF03A7818301E58947A4
:100290001EAB8280EFF2DFED239A01821C231384D0
:1002A000418393F7F70795E718379377070299C3C8
:1002B00089471CA0137707041C2011CB93E7170074
:1002C0001CA083A701849C4B82972285E1B5F99BF2
:1002D000C5BF854613854183E38AD7FE894601451C
:1002E000E396D7FE5833B7660040938606C09377EF
:1002F000F7008A07B69762079C4361876359070036
:1003000093F707034147E39EE7FA854755BF0D671B
:10031000F98F0567CDBFEFF21FE483A481833E8A86
:10032000822829E8982491476316F70413870183EC
:1003300014438547639BF602B767004083A707C550
:10034000B73600208906C207C183B697860723A067
:100350000700930700032394F18423200700114929
:1003600083A78183238427010DB5C1472394F1849A
:100370001D49FDB7DE28114963F38700094963F37E
:1003800087003E849C4C4204418022858297AA8A41
:100390000145EF0030552286AA855685EF001032C0
:1003A000A2850145EF00B0579E280D67818F9EA85A
:1003B000BE283E94930700032394F184A2A82393BC
:1003C000E18479BF83A7818383C61181B83309454E
:1003D00063EFE600B42381EED62391EAEFF25FD912
:1003E000B8A783A70184DC438297014565B3828067
:1003F000EFF21FD883A7818303A7C1834111AC33D8
:10040000184FC833029783A78183B82705C72AC628
:1004100015E1D82305E3BC2391EF83A70184DC47D2
:10042000829783A781833245D833B8B7B833D8A72A
:1004300041018DB30945EDBF83A78183942393F6D2
:10044000F60781EA98371377F7FD98B701473A85A1
:10045000828009460947E39CC6FEB623EDFAD42301
:10046000FDF6EFF2FFD0D03337670040130707C027
:100470001375F6F7131425003A946206144061864A
:100480006355060493F6060383C501810947637C1F
:10049000B50295CABC2785CB1C40635B060293F767
:1004A00007034147639CE7001374F50F2285EF00B3
:1004B000503C930500032285EF00702783A7018439
:1004C000DC4B829701473A85F1B10D67F98E6DBF1C
:1004D000C164FD140D67E58FF98F0567E390E7FEB2
:1004E0001DEDB707002083C5C707EF0030451C404E
:1004F00071771307F7F8F98FC2070D67C183B98FBA
:10050000617713070708D98FC207C1831CC08D66A6
:100510001840658F758FE303D7FA1CC0D5BFEF0075
:1005200010321C4071771307F7F8F98FC2070D6777
:10053000C183B98F617713070708D98FC207C183B9
:100540001CC08D661840658F758FE309D7F61CC0F7
:10055000D5BF03A68183B7670040938707C0543295
:1005600093F5F6F713972500BA97E2069843E186CC
:1005700063DE06041377070303C80181094563F6A8
:1005800005092E22D9E151C3382641C3EFF25FBEDF
:10059000984363D20604E5769386F6FB758F42078F
:1005A0004183E1761347070193860608558F42077A
:1005B000418398C34146944393F60603639BC60068
:1005C00083A701849C4F82970145E9B60D65698F29
:1005D00065B798C3CDB7F1769386F6F8758F420765
:1005E00085664183358FE17693860608558F4207ED
:1005F0004183416698C37D160D6585659443F18EF0
:10060000E98EE38FB6FA98C3D5BF8280EFF25FB66A
:1006100003A781831C3793E707021CB783A70184D4
:10062000DC4F82970145BDB603A781833E2B11E5C0
:10063000CA211D8D0AAB0145828088413E9582808A
:10064000EFF21FB3B707002083C5C7070145EF00CE
:10065000F02E83A781838827A1476318F5000567DB
:100660002393E18441472394E1845D1513351500FC
:1006700015B6EFF2FFAF03A98183376600408327E9
:1006800006C583468900254741116385E604416418
:100690001307F4FFB7360020F98F9106B697860747
:1006A0008043798C060432941C202300F9001C300E
:1006B000A300F9004A20EF00B0322311A9000A2458
:1006C00003A98183EF00D0312312A9005A2483A704
:1006D0008183FAA383A78183054798A7FA238033F0
:1006E0006319070C98231377F70755E3254763151C
:1006F000E400C93925E12DA015476316E4040387FA
:10070000370063590700A14703A781831CA70D3F4A
:10071000410149B4B82365FBDA2375F7BC27E5F737
:10072000B767004083A707C5373700200907C2070E
:10073000C183BA97860723A00700130700032394F9
:10074000E1849947D1B70D476315E402B4330547F7
:10075000638DE60083A7C1832285DC4B82970D471A
:10076000A547E303E5FA4DDD79BFDE23E5F7793DE3
:1007700051B70547E310E4FEB833E31D87FCDA23E5
:1007800071FB9C3793F70702F1D77D31A5B78547F9
:100790006317F700AD47E31FF4FA9939A1BF894603
:1007A000E31AD7FAE303F4FE8D47E315F4FA553361
:1007B00091B719476319E40298231377F70771EB90
:1007C000BC23854603A7C1836395D7005C4FF1C363
:1007D00089A089466394D7001C53D5BF8D46639A80
:1007E000D70A5C53EDB761E8BA2345E7D843C17631
:1007F0009386F60F758FB7060200631CD7089823FF
:100800001377F70705EFDE23C9E7B70700009387E3
:10081000872803A781830145231907001CCF8297EE
:10082000014583A78183C166FD169A2B630FD70606
:1008300089466303D50069EF21478DA88546631E6D
:10084000D70003A7C183C8338145184F029731E110
:1008500083A78183BC27D5FB2DA88946631BD702BC
:10086000D833B7660040938606C01376F700931717
:100870002600B6979C4393168701E18663DA060249
:1008800093F7070383C601816375D60013770707C3
:1008900079D303A7818383A7C18308339C4B8297B5
:1008A0008D47E310F5F883A78183254798A785B581
:1008B0008D66F58FC1BF2147631BE4009C2393F72E
:1008C000F707E1FBB70700009387872499B729470B
:1008D000E311E4FC982385461377F707E31BD7FA67
:1008E000B82745DBBA2355F7D843C1769386F60F70
:1008F000758FC166E31FD7F803A7C183C83381454D
:10090000184F029759F5B70700009387872611B74C
:100910008386070063D1060483A6C183EE2303C642
:10092000C6022EC6324593160601C1826377E500E2
:1009300032479AABD6ABC532D9BBE37DB7FE637500
:10094000D70023A80182FDB73367C70265F70546C4
:1009500023A8C182C5B70D4798A70D672393E184EB
:100960007DB3EFF24FFF03A48183A1441C241387BE
:10097000E7FF1377D70F2DC71387D7FF1377D70F4D
:1009800049EF1C4C85CB0628B9C05A2863739700E1
:10099000BA84C204C180268582971E28AA8901458F
:1009A000858F1EA83E28A6973EA8992FAA85268641
:1009B0004E853D231E2881CF0D6781450145239338
:1009C000E184EF00C075130700032394E1841E281F
:1009D000562803A7818363EBD7008D471CA7042704
:1009E00083A7818384A7A9396FF02FFA99C395470C
:1009F000F5B799471CA7B767004083A707C5B73667
:100A000000208906C207C183B697860723A0070086
:100A1000930600032394D184D9B71D47A144E391E1
:100A2000E7FC83A7C183DC4782975DBF03C30181D5
:100A300037660040C1650568A1680147130606C016
:100A4000FD151308F8F093880808636967001365BB
:100A50000508B767004023A6A7C482809316270025
:100A6000B2969C42ED8FB3F70701D98FB3E7170118
:100A70009CC20507D9BFEFF2AFEF83A7818394270C
:100A80001387E6FF1377D70F01EFEFF0DF8883A717
:100A90008183982783A7818398A75D366FF08FEFB6
:100AA00019462147E398C6FE94331547639CE60038
:100AB00098231377F70719E7A8338D3F83A701849D
:100AC0009C53829783A7C1839C4782972147D9B7BC
:100AD0008280EFF2EFE99387018823ACF182094726
:100AE00098A7370700209306070523AED182B707E2
:100AF00000209387070A23A0F184832707058297A4
:100B00006FF04FE9EFF24FE44111370A0020B70AC6
:100B10000020E17923170100130A8A01938A4A030E
:100B200093890908B765004083A745C41397070157
:100B30004183239CE184139707016357071683D7EA
:100B400081853A84BD8B238BF182938605C06396A1
:100B5000073003A705C093876184420741839AA3A6
:100B60009A2393868184137707039AA29A238D662A
:100B70002166758F9AA303A705C0A5679387F7FB26
:100B80007D8F83A705C0B1669386F6F8F58F8966D9
:100B9000B58F1347070293160701130606085D8FEA
:100BA000518FC18223A0E5C033E736014207938409
:100BB0006184138981843766004093050002418374
:100BC000832606C093F606036393B60EB3E7370198
:100BD000C166C20737660040FD160D658965C18391
:100BE000032706C0130406C0758F698F6314B70C02
:100BF00083D78185C18BE1EB1C40A5691387F9F090
:100C0000F98F1CC08D3D18401440B1679387F7F8E9
:100C1000F58F96209389F9FB3377370113963601C8
:100C2000635406008566B58F96201396260163549B
:100C300006008966B58F83560900C18A99C2134799
:100C400007018356090093F6060299C2134707026B
:100C5000216693160701130606085D8F518F3766CC
:100C600000402320E6C06177C18213070708558F33
:100C700042074183832606C08355090093F6060385
:100C8000639DB602617713070708D98FC166C20753
:100C900037660040FD160D65C183032706C08E2010
:100CA000758F698F631EB70041016FF06FCD2320F0
:100CB000E6C039B72320F6C025B72320E6C05DBFC4
:100CC0002320F6C0D9BF1C40856BC207C1837C8737
:100CD0003C87139747016350070C1C401387FBF8B0
:100CE000F98F1CC0EFF0FF981840A5679387F7FBBA
:100CF00014407D8FB1679387F7F8F58F9620139690
:100D0000360163540600B3C7770196201396260177
:100D1000635406008966B58F83560900C18A99C25B
:100D2000134707018356090093F6060299C2134739
:100D30000702216693160701130606085D8F518F7F
:100D4000376600402320E6C06177C1821307070899
:100D5000558F42074183832606C08355090093F6C9
:100D600006036397B602617713070708D98FC16638
:100D7000C20737660040FD160D65C183032706C014
:100D80008E20758F698FE301B7F22320F6C0FDB77F
:100D90002320E6C0C9B73C87C207C187E3D407D880
:100DA0001C401387FBF8F98F1CC0653E1840A567EF
:100DB0009387F7FB14407D8FB1679387F7F8F58F22
:100DC00096201396360163540600B3C77701962028
:100DD00013962601635406008966B58F8356090071
:100DE000C18A99C2134707018356090093F6060288
:100DF00099C21347070221669316070113060608D6
:100E00005D8F518F376600402320E6C06177C18235
:100E100013070708558F42074183832606C0835571
:100E2000090093F606036397B60261771307070874
:100E3000D98FC166C20737660040FD160D65C183B4
:100E4000032706C08E20758F698FE30FB7E4232038
:100E5000F6C0FDB72320E6C0C9B713972700369721
:100E60001443C206C18274873487C206C18663DD1B
:100E70000600FD1714438A070566D6971306F6F891
:100E80009C43F18E14C382973C8793F70708E38B4A
:100E900007C883C76183B7660040938606C013976F
:100EA00027003697FD1714438A07D2972566130645
:100EB000F6F09C43F18E14C38297ADB1B737002092
:100EC0000506BE950586860511E282801C31182133
:100ED0009105A207D98F239EF5FE09057D16EDB772
:100EE000B73700200506BE950586860511E282808B
:100EF0009C4109057D16231FF5FE9105C5BF61992B
:100F000042054181B767004023A8A7C48280B76724
:100F10000040938707C00A053E951C41657713077B
:100F2000F798F98FDD8DC205C1810CC18280B7674A
:100F30000040938707C00A053E951C41657713075B
:100F4000F7FBF98FC20713F70501C18319C393C7D4
:100F5000070113F7050219C393C707026177130747
:100F60000708D98FC207C1831CC118411377070333
:100F7000E31CB7FE8280B7670040938707C00A056D
:100F80003E951C4171771307F7F8F98FC207139745
:100F90003501C183635407000567B98F1397250195
:100FA000635407000967B98F617713070708D98F62
:100FB000C207C183C1661CC1FD160D661841758F3D
:100FC000718F6313B70082801CC1CDBFB76700402B
:100FD000938707C00A053E951C4171771307F7F800
:100FE000F98FC2070D67C183B98F617713070708AF
:100FF000D98FC207C183C1661CC1FD160D66184199
:10100000758F718F6313C70082801CC1CDBFB76716
:101010000040938707C00A053E951C4105671307EA
:10102000F7E0F98F617713070708D98FC207C183EB
:101030001CC18280EFF2CF93D93F6FF0AF95B767B5
:101040000040938707C00A053E951441C167138786
:10105000F7FF9397160163DD07001C41F98F0567C1
:101060001307F7F0F98F316713070708D98F1CC1F1
:101070008280B7670040938707C00A053E951C41F0
:1010800093F7070491CF1C4141677D17F98F0567DE
:101090001307F7F0F98F21671307070CD98F1CC1CD
:1010A0008280B767004083A707C50E058581C20708
:1010B000C1833E95B73700203E95060586050CC1D5
:1010C0008280B767004083A707C50E058581C207E8
:1010D000C1833E95B737002091073E9506058605EA
:1010E0000CC18280B767004083A707C50E05C20701
:1010F000C1833E95B73700203E9506050A218280C0
:10110000B767004083A707C50E05C207C1833E9598
:10111000B737002091073E9506050A218280B76700
:10112000004083A707C50E05C207C1833E95B737A8
:10113000002089073E9506050CC18280B7670040F4
:1011400083A707C513173500C207C183BA9737377E
:1011500000201907BA971307E00386076373B704E3
:1011600013D75500FD8981E57D17420741832A0782
:10117000A166558F98C30DE5B707002083C7C70741
:101180001307E0036376F70213D75700FD8B81E75F
:101190007D17420741832A07E1775D8F2396E1841B
:1011A000828013D71500858991C105072A07D9B711
:1011B00013D71700858B91C305072A07C5B7B767F3
:1011C000004083A707C50E05C207C1833E95B73708
:1011D000002099073E95060508411375F53F82806A
:1011E000935785001375F50F22055D8D8280376753
:1011F0000040F177232207C4938707F02392F184FC
:10120000B167938707F02320F7C401458280EFE29E
:101210003FF632849374F507268542042E89418077
:10122000D1352286AA854A8551392685A285C53DB4
:1012300001456FE03FF637050400EF00B04F730043
:101240002030CD2273002030EFE29FF203A781818E
:10125000B74795089387074009456300F702B7E74A
:10126000B8059387078005456309F700B777DC0267
:10127000938707C06315F7000145EF00F06B8545C4
:1012800037058000EF00B07A6FE0DFF0EFE25FEE4D
:10129000373500001305855FEF10A02B0D4723A203
:1012A000E1866FE03FEFEFE2BFEC3735000013055A
:1012B0004561EF10002A03C7A18811C7154723A273
:1012C000E1866FE03FED0547DDBFEFE27FEA011108
:1012D00037050400EF001046B707040005443EC878
:1012E0000808C1473ECC22CE02CAEF00103E930749
:1012F000401228007C8422C623050100EF007059AB
:101300009307A00328007C84EF00B05805616FE0CC
:101310007FE8EFE2FFE5AA842E8411458545EF00C2
:10132000306FB1CCB766004083A706C4416775171C
:10133000F98F23A0F6C4B717014003A74780B7165B
:10134000F0FFFD16758F23A2E78003A7C780F9760B
:101350009386F67F758F23A6E78003A74780B7465D
:101360000400558F23A2E780374702408327078078
:1013700021C893E727002320F7806FE0BFE137679C
:101380000040832707C4B716F0FFFD1693E7270038
:10139000C207C1832320F7C4B717014003A74780C2
:1013A000758F23A2E78003A7C780F9769386F67F1F
:1013B000758F23A6E78003A74780B736030055B78C
:1013C000F59B55BF8280238501848280EFE25FDA3E
:1013D0008D476312F5029384A184802009EC1305E4
:1013E000300835358547930500030D459CA08136AF
:1013F00022856FE03FDA0544E5BFEFE27FD7397120
:101400000945753B2A840945E5392286AA850A855E
:10141000C13C8A8522860D45553F0945453E2161DF
:101420006FE05FD7EFE2DFD437680040032708C5DD
:10143000C1651385F5FF83D6C184B7370020698F56
:1014400013866700329706071843938505C001117C
:10145000F98D638CD500832708C593F606C0E98F04
:10146000B29786079843D98E94C3B766004083A786
:1014700046C413878185C207C1831EA31A2383D75D
:101480004184138481857D8F1377072009CF4167BD
:101490001307F7DF23A2E6C49386E18498220507A9
:1014A0001377F70F98A21A20F98FC207C18763D468
:1014B0000700EFF02FE51E2003D74184F98F93F743
:1014C000074089CFC1679387F7BF37670040232262
:1014D000F7C4B707002083A7470582971A2083D750
:1014E00041847D8F9316270163D806003967B7665C
:1014F00000407D1723A2E6C41A20F98F1397370105
:10150000635A0700BD6737670040FD172322F7C401
:101510000145E92B03D741841E20F98F139747011A
:10152000635E070083A74181638F070EE929BD67CA
:10153000376700409387F77F2322F7C41E2003D725
:101540004184F98F93F70710E1CFC16737670040F7
:101550009386F7EF2322D7C4032687C49386018599
:101560009315060163DA050A9042050690C28C4283
:101570000D466375B60A032607C4FD17218A59EE86
:10158000032607C4938541857D8E3765004090C151
:10159000138741850146130305C0A1489315260012
:1015A00033886500032808000010A2953378F800FE
:1015B00023A005FF0506E31316FF1043136616006C
:1015C00010C310437D8E2320C5C41043799A10C3E5
:1015D0001843F98F2320F5C437670040832747C499
:1015E00093F70740E5DFC1679387F7BF3765004092
:1015F000C1652322F7C4130505C08147FD152148A5
:101600001397270010103A96032606FE2A9785079F
:101610006D8E10C3E39607FF23A006001D45F92138
:1016200005616FE03FB70945D12111B783C7A18894
:1016300081C7154723A2E1868280114723A2E18654
:101640008280828091E5854733B5A70006058280B8
:101650000945828083A781831D4701459AAB82801B
:1016600003A781839306100209451C2393F7F7070C
:10167000639CD70214336384F602930700026395D8
:10168000F602B72700009387A79CEFE27FAE1CCF3E
:10169000231907000145829701456FE0BFAFB717D7
:1016A000000093874765D5B7828003A7818393069F
:1016B000100201451C3318231377F707631AD7006C
:1016C0009387E7FD93F7F70F05453335F5000605DA
:1016D0008280EFE2FFA983A7818323850700FD2C89
:1016E000B7670040856637660040938707C09386DA
:1016F000F6F0930506C298439107758F23AEE7FE77
:10170000E39BB7FE9307F00F2322F6C4EFF03FAE42
:101710008145014523A20186ED3E5145EF009043EE
:1017200085450545FD366FE0FFA6EFE27FA40D6716
:101730000347776383A78183014598B72395070003
:10174000EFF0EFFB930500200145EFF04FFCC145A2
:101750000145EFF0CFFD930500040145EFF07F96C2
:10176000930500080145EFF0DF930145EFF09F8CF2
:10177000B707002083C5C7070145EFF03F9C01452F
:10178000EFF0DF8437670040032607C0C167938608
:10179000F7FF9317160163DF0700832707C0F58F54
:1017A00085669386F6F0F58FB16693860608D58F29
:1017B0002320F7C037670040832707C093F707044B
:1017C00085C3832707C0C166FD16F58F856693869E
:1017D000F6F0F58FA1669386060CD58F2320F7C00F
:1017E000930500600545EFF08FF293050002054573
:1017F000EFF0EFF39305000C0545EFF09F8A81456C
:101800000545EFF04FF737670040832747C093F750
:10181000070485C3832747C0C166FD16F58F85661B
:101820009386F6F0F58FA1669386060CD58F23225A
:10183000F7C037670040032647C0C1679386F7FFAC
:101840009317160163DF0700832747C0F58F85666E
:101850009386F6F0F58FB16693860608D58F23221E
:10186000F7C081450945EFF08FEA81450945EFF062
:101870000FEC930500100945EFF0BF8493050004B9
:101880000945EFF0BF8B8D650945EFF0CFEE376767
:101890000040032687C0C1679386F7FF93171601A0
:1018A00063DF0700832787C0F58F85669386F6F090
:1018B000F58FB16693860608D58F2324F7C0376766
:1018C0000040832787C093F7070485C3832787C019
:1018D000C166FD16F58F85669386F6F0F58FA166D5
:1018E0009386060CD58F2324F7C081450D45EFF074
:1018F0000FE2930500020D45EFF06FE3930500142E
:101900000D45EFF00FFA81450D45EFF0CFE6376753
:1019100000408327C7C093F7070485C38327C7C048
:10192000C166FD16F58F85669386F6F0F58FA16684
:101930009386060CD58F2326F7C037670040032611
:10194000C7C0C1679386F7FF9317160163DF0700CF
:101950008327C7C0F58F85669386F6F0F58FB1664D
:1019600093860608D58F2326F7C001452385018479
:10197000EFF0CF8B054723A2E1866FE0BF81EFE256
:101980002FFF93858180EFE03FCA6FE0BF80EFE2D9
:101990002FFEB705002093858513EFE0FFC86FE0A9
:1019A0006FFF83A78183AC33914763EEB700EFE20B
:1019B0002FFCB7070020938707088E05BE95EFE040
:1019C000BFC66FE02FFD0145828083A781831D473D
:1019D00001459AAB8280828082808280B767004016
:1019E000054723A0E7C423A007C4096723A207C4AF
:1019F000130707C02392E1840967130707C023A0D8
:101A0000E7C401458280EFE2AFF6B767004083A7E5
:101A100007C4376700404168C207C183814613038A
:101A200007C07D189385C189A14813962600330508
:101A3000660008412E9685063375050108C2E396B7
:101A400016FF93E607402320D7C493E61740F99B7F
:101A5000C207C1832320D7C493E607402320D7C4FD
:101A6000B766004003A746C41377074065DF4167A8
:101A70001307F7BF23A2E6C44168376700408146D9
:101A8000130307C07D18A148139626003385C500AF
:101A900008411A9685063375050108C2E39616FFBC
:101AA00093E787402320F7C4832707C4C207C18375
:101AB00093E747002320F7C4EFF04FFD6FE08FED71
:101AC000EFE20FEB37640040832704C4C207C183F1
:101AD000ED9BC207C1832320F4C4EFF0CFFCB167B4
:101AE000938707F02320F4C46FE0CFEAEFE24FE8DA
:101AF0009D471384C1856303F50008C01C4015474A
:101B0000636DF7000D678A071307076BBA979C434D
:101B1000828783A7818681E76537994711A095471A
:101B20001CC039A0713F91471CC0054723A4E18622
:101B30006FE04FE689475CA08D47DDB75C20FD175D
:101B400093F7F70F5CA05C2093F7F70FF5F391473D
:101B5000C1BF37670040832707C4C207C18393E72B
:101B600007012320F7C495471CC0A9475CA0C9B74B
:101B70005C20FD1793F7F70F5CA05C2093F7F70F3D
:101B8000C5FB37670040832707C4C207C183BD9BDD
:101B9000C207C1832320F7C499471CC023A4018630
:101BA00041BFEFE2EFDC41118545114502C202C49D
:101BB00002C6B92D85477C82371501409307800204
:101BC0003EC64C008D47130505803EC48D2E410155
:101BD0006FE04FDCEFE2CFD93715014085451305A3
:101BE0000580B9216FE00FDBEFE28FD84111854509
:101BF000214502C202C402C6212D91477C823715BD
:101C00000140C1473EC64C008D47130505C03EC488
:101C10003D2641016FE00FD8EFE28FD53714014028
:101C20009145130504C01521854791456317F500BB
:101C3000130504C091216FE0EFD5130504C01D21E9
:101C4000DDBF7300203001A0EFE28FD209453D29AE
:101C5000F92D7165130505200D2FA1377137373523
:101C600000001305856CEF00D00E3735000013051A
:101C7000456EEF00100E373500001305C56FEF00FD
:101C8000500D3735000013058571EF00900C83A5CA
:101C90008181373500001305C572EF00407A373572
:101CA00000001305C573EF00D00AEFF0EFD913045D
:101CB000A00FEFE01FE28144EFF02FE11309A00F26
:101CC0008504B3F7840291E3813F293719E505457F
:101CD0005125FDB713052003B52DED3D65FD6305C9
:101CE00024011304A00FE5B713044006CDB7B717BE
:101CF00002409843B706FFF841111367170098C3D5
:101D0000D84337060200758FD8C39843B706F7FE4D
:101D1000FD16758F98C39843B706FCFFFD16758FA7
:101D200098C3D843B70681FFFD16758FD8C3370710
:101D30009F0098C702C402C69843C166558F98C3D6
:101D4000B716024005679C42F18F3EC6A247850741
:101D50003EC4B24781E7A247E397E7FEB7170240C8
:101D60009C431397E7006357070685473EC63247F3
:101D70008547631FF704B7170240D843B706C1FF72
:101D8000FD16D8C3D843D8C3D84313670740D8C378
:101D9000D843758FD8C3D843B7062900558FD8C309
:101DA0009843B7060001558F98C398439316670070
:101DB000E3DD06FED843B7160240719BD8C3D84373
:101DC00013672700D8C32147DC42B18BE39EE7FEAF
:101DD0004101828002C661BF01A001A001A001A053
:101DE00001A001A001A001A001A001A001A001A0EB
:101DF00001A001A001A001A001A001A001A001A0DB
:101E000001A001A001A001A001A001A001A001A0CA
:101E100001A001A001A001A001A001A001A001A0BA
:101E200001A001A001A001A001A001A001A001A0AA
:101E300001A001A001A001A001A001A001A001A09A
:101E400001A001A097F1FF1F938141AF173100203E
:101E50001301411B172500001305459997E5FF1F46
:101E60009385451A1386018363FAC5008322050012
:101E700023A0550011059105E3EAC5FE13850183F2
:101E80009385018C6377B500232005001105E36D70
:101E9000B5FEFD42739002BC8D4273904280930266
:101EA000800873A0023097E2FFFF9382221993E229
:101EB000320073905230EFF09FE39702000093825C
:101EC000E2D8739012347300203058410328050083
:101ED0004C4537060140930706403E979346F8FF6E
:101EE000B1C583250640F58D2320B640D043F18E41
:101EF000D4C31443B3E6060114C318419047934674
:101F0000F7FF758E90C7D047F18ED4C71445414670
:101F10006399C6009447D98E94C7D447558FD8C7C4
:101F20008280B6979443558F98C382801C43F58F67
:101F30001CC38280B707014023AAA74082809C452A
:101F400013F7070113F8F70001C7D8413368E80019
:101F500037270240145B3707000F758F4DEB85461E
:101F60002386D186371701406315E5009A21358312
:101F70009AA18E2113F7F50F39C318418146854E7A
:101F80003D4F930F800293028004214E3396DE0072
:101F9000B3F8C500631116039398260033131F018D
:101FA0001343F3FF3377E300B318180133E7E80076
:101FB0006397F70750C98506E39AC6FD18C1130752
:101FC000F00F6375B70454412146854E3D4F930F82
:101FD000800293028004414EB398CE0033F715017E
:101FE0006392E8021317260001173313EF0013431F
:101FF000F3FFB376D3003317E800D98E6395F70368
:10200000232A15010506E319C6FD54C1828037173E
:102010000140E310E5F603C7C18621DF81BFE39CE1
:1020200057F810C949BFE39F57FC23281501D9BFB2
:10203000B71701406316F50083C7C18691C3B58108
:1020400008456D8D3335A0008280B71701406316B7
:10205000F50083C7C18691C3B58148456D8D333581
:10206000A0008280B71701406316F50083C7C186C0
:1020700091C3B5810CC98280B71701406316F50082
:1020800083C7C18691C3B5814CC9828023A8A1862C
:102090008280938701879443182181E63C2192072F
:1020A00021A894430546639FC6023C211031920744
:1020B0006314D60093E707F8B7E600E093F7F70F4D
:1020C000BA962380F6408546935757003397E6002B
:1020D0005441A5C2938707048A07B7E600E0B69784
:1020E00098C382808C4389466391D50214313C2188
:1020F0006365D6008A06B6975DB79386E6038A06BF
:10210000B69793F7F70F920775B790438D46631C08
:10211000D60014313C216364D6008606E9BF93865D
:10212000C6078606F1BF94439147E39EF6F81C313B
:10213000BDB7938707064DB7B7170240D843B70618
:1021400040FFFD16758FD8C3D8435A05598DC8C3B3
:102150008280371702405C439146B18B6385D7007C
:10216000A1466382D706B7177A00938707201CC160
:10217000371602405C42370700201307470C918353
:10218000BD8BBA9794231C41B3D7D7005CC154428E
:10219000A1829D8ABA969422B3D6D70014C5544220
:1021A000AD829D8A36971823B3D7E7005CC55842A5
:1021B0003983937637001387C18136971823B3D7B5
:1021C000E7021CC982805C435843C166C983BD8B4A
:1021D000758F8907C5466393D700C94701EF374715
:1021E000024003270780418B09CF37177A00130776
:1021F000072021A83717024058439316E700E3D67B
:1022000006FE37173D0013070790B387E70285B72F
:1022100099C5371702401C4F5D8D08CF8280B717D4
:102220000240984F1345F5FF798D88CF828099C57C
:10223000371702405C4F5D8D48CF8280B717024050
:10224000D84F1345F5FF798DC8CF8280EFD25FF26A
:102250001629F577FD17F58FF621DA257971D58FD7
:102260001EA95625FD779387379FF58FD6212A849F
:102270002EC6D58F9625D58FB625D58F5EA55E291E
:10228000C207C18393F7F7CFD98F5EA96808D1350C
:10229000B747014093870780B245631AF404A257F9
:1022A00056246547B387E702C206C186984163D2C8
:1022B0000604060752244206B3D7E7021307400676
:1022C0004186B3D6E702B3F7E702920663550602EA
:1022D0008E0793872703B3D7E70213F77700B36717
:1022E000D700C207C1831EA445616FD0BFEA9257D1
:1022F00045BF0A07C1B7920793872703B3D7E70201
:10230000BD8BD58FF9BF91C55E250967D98F5EA5B5
:1023100082805A25F977FD17F98FD5BF93F5F51F00
:102320004EA182800A216D8D3335A000828083A763
:10233000818137177A0013070720B3D7E70293F795
:10234000F70F238BF1861307803EB387E702239AAA
:10235000F1868280B7F700E0D8438146799BD8C3E5
:1023600003D741873306A70290CBD4CB984313679A
:10237000070198C398431367170298C3D843058B86
:1023800075DF9843799B98C38280EFD27FDE2A84E1
:102390001165011185451105A53D930700207C823B
:1023A000371501408D473EC44C00E14713050580B9
:1023B0003EC6EFF0DFB822C837440140B707080037
:1023C0000C08130504803ECC02CA231E0100BD3D4B
:1023D000854513050480053F05616FD0BFDBEFD253
:1023E0009FD7B7440140AE89328901449384048069
:1023F000634524014A856FD05FD993050004268583
:10240000153765DDB38789008385070026850504B8
:10241000C205C1812137E9BF138701821C4393861E
:10242000018C3E95636BD500B756002093860680DD
:1024300063E5A60008C33E858280FD57EDBF397174
:102440003EDA2ED232D436D63AD842DC46DE9387F4
:10245000418222CC804326CA06CEAA8409C41C4CE1
:1024600099E32285ED290C4454102686228536C630
:10247000EF007012F2406244D24421618280011167
:1024800026CA4AC806CE22CC4EC652C4AA842E8979
:1024900001C51C4D91E3E1219C4C804499E32685C4
:1024A0007D29971700009387A72C631BF402C04077
:1024B0005E24A18BB1C71C48A1C7FD59294A1C4401
:1024C00083450900FD17B1E91CC463DD07062286B8
:1024D000A94526856120FD576308F502294535A0E9
:1024E000971700009387C72A6314F4008044C9B784
:1024F000971700009387C725E31CF4FAC0444DBF2B
:10250000A2852685112A55D97D55F2406244D244D0
:102510004249B249224A056182801CC4050963D739
:102520000700184C63CAE700638845011C40138705
:10253000170018C08CA361B7228626850520E310FA
:1025400035F9D9B71C401387170018C0294798A33D
:1025500071B793874182AA85884315B7011122CCB0
:1025600026CA4AC806CE4EC6AA842E89328401C520
:102570001C4D91E3ED26971700009387671F6317A3
:10258000F406C0401C4C1CC45E24A18BC1C31C4873
:10259000B5CF1C4808409379F90F1379F90F1D8DB9
:1025A0005C486346F500A2852685692C25E51C4418
:1025B0000505FD171CC41C401387170018C0238095
:1025C00037015C486388A7005E24858B81CBA947CF
:1025D0006316F900A2852685B5240DEDF24062440C
:1025E0004A85D2444249B24905618280971700006A
:1025F0009387071A6314F400804469B797170000A3
:1026000093870715E310F4F8C044ADBFA285268573
:10261000212041D17D59D9B741119387418226C2EA
:10262000844322C44AC006C62A892E8489C49C4C8D
:1026300099E326852D269717000093876713631B60
:10264000F402C0400317C40093170701C18393F637
:102650008700ADEA93F6070195EEA5472320F90020
:10266000136707045AA47D55B2402244924402499C
:102670004101828097170000938787116314F4004B
:102680008044C9B7971700009387870CE31CF4FABE
:10269000C0444DBF918B9DC34C5889C993074404D6
:1026A0006384F5004A853123232A04025E24232211
:1026B000040093F7B7FD5EA41C481CC05E2493E79A
:1026C00087005EA41C4899EB5E241307002093F753
:1026D00007286385E700A2854A85A1215E2413F7B8
:1026E00017001DC35C4823240400B307F0401CCC32
:1026F0001C480145B5FB8317C40013F707082DD705
:1027000093E707045EA485B7898B014791E3584896
:1027100018C4F9BFDE25011122CC26CA06CE4AC84C
:102720004EC613F78700AA842E8479EBD841634DF7
:10273000E000B841634AE0000145F2406244D244FF
:102740004249B2490561828058547DD703A90400EB
:102750009396370123A0040063DB060670485E24CD
:10276000918B99C75C401D8E5C5899C33C401D8E6F
:102770005C540C50814626858297FD575A24631D70
:10278000F5009440F54763E8D706B7074020850772
:10279000B3D7D700858BA5C31C48232204001CC0D7
:1027A0009317370163D80700FD576314F5009C4069
:1027B00091E368C84C5823A02401BDDD930744046D
:1027C0006384F5002685F526232A0402B5B70C504C
:1027D0000146854626850297FD572A86E311F5F8BE
:1027E0009C40B5DF75476385E70059476393E7046D
:1027F00023A0240191B7136707045AA47D5535BF60
:1028000083A90501E38A09F203A905008D8B23A0A2
:10281000350133093941014791E3D84918C4E35DD3
:1028200020F11C540C50CA864E8626858297634739
:10283000A0005E2493E707045EA4C9B7AA993309F0
:10284000A940F1BF9C49B9CF011122CC06CE2A8400
:1028500011C51C4D81E72EC61922B24597170000FD
:10286000938707F1639BF5004C408397C50095C79C
:1028700022856244F240056171BD9717000093877D
:1028800027F16394F5000C44CDB7971700009387A8
:1028900027ECE39CF5FC4C44C9BFF240624401457F
:1028A0000561828001458280411122C406C62A84C6
:1028B0004EA572A523200500232205002324050030
:1028C0002322050623280500232A0500232C0500C2
:1028D000214681451305C505EFD09F8C9717000051
:1028E000938787B15CD0971700009387A7B31CD458
:1028F00097170000938787B75CD4971700009387DA
:10290000E7B900D01CD8B24022444101828097052B
:102910000000938565F3A9A2411126C21306800623
:102920009384F5FFB384C4024AC02E8922C406C62C
:10293000938544071D262A8401CD232005002322E8
:102940002501310508C4138684068145EFD05F85D3
:102950002285B240224492440249410182801C4DAA
:10296000ADE3411106C622C497070000938767FABA
:102970001CD59387C1829C43232405042326050488
:10298000232805046314F50085471CCD2A841D28DF
:1029900048C02285052808C422852D2048C4484007
:1029A00001469145113708440546A545F53D484483
:1029B0000946C945D53D85471CCCB240224441015A
:1029C0008280828041119387C18226C284434AC09B
:1029D00006C69C4C22C42A8999E3268549379384EC
:1029E00084048044DC40FD1763D607009C40B9CFC7
:1029F0008440C5BF0317C40039E7C1778507232288
:102A000004062320040023220400232404005CC4C1
:102A100023280400232A0400232C04002146814596
:102A20001305C405EFD0CFF7232A0402232C040298
:102A300023240404232604042285B2402244924421
:102A40000249410182801304840671BF91454A8581
:102A5000E13588C051FDB1472320F9000144E9BFA9
:102A6000797122D44AD052CC56CA5AC85EC606D60C
:102A700026D24ECE2A8AAE8A130485040149054B1C
:102A8000FD5B09ECB25022544A8592540259F24936
:102A9000624AD24A424BB24B456182800444832948
:102AA0004400FD1963D409000040E1BFDE24637BCC
:102AB000FB008397E40063877701A6855285829A9D
:102AC0003369A90093848406E9BF1971A6DAAE843C
:102AD0008395E500A2DC86DE328463DB0500DE241C
:102AE00023A0060093F7070885E7930700401DA081
:102AF000300836C6EF001020B246E34205FE7247AA
:102B0000BD67F98F7977BA9793B717009CC2F1BF69
:102B1000930700041CC0F6506654D6540145096161
:102B20008280DE25011122CC06CE26CA4AC8898BB6
:102B30002E8489CF930774041CC01CC885475CC8C9
:102B4000F2406244D2444249056182807400300000
:102B5000AA84A53FA2452A892685012219E983175F
:102B6000C40013F7072069FFF19B93E727005EA4D9
:102B7000D1B7970700009387C7D99CD45E2408C0BB
:102B800008C893E707085EA4A2475CC8B24781CF94
:102B90008315E4002685EF00901811C55E24F19B93
:102BA00093E717005EA45E243369F900231624011D
:102BB00041BFDDC183A7C5FF411122C406C626C29D
:102BC0001384C5FF63D307003E94AA84EF00F01B73
:102BD000938781879C4381EF2322040023AC818665
:102BE0002244B2402685924441016F00301A637E30
:102BF000F40014403307D4006396E7009843DC43A5
:102C0000369718C05CC0D9BFBA87D84319C3E37DD3
:102C1000E4FE94433386D700631F86001040B296CB
:102C200094C33386D700E31DC7FA10435843B296C6
:102C300094C3D8C375B76375C400B1479CC04DB782
:102C40001040B306C4006316D70014435843B2962D
:102C500014C058C0C0C369B78280011126CA9384CA
:102C60003500F19806CE22CC4AC84EC6A104B14721
:102C700063F3F404B14463E2B4042A89EF00F01072
:102C80009387818798433A8439E09387C1879C432F
:102C900091E781454A85152F23AEA186A6854A85F1
:102CA0002D27FD5963193507B1472320F9004A85BF
:102CB000EF00D00D29A0E3D004FCB1471CC10145B1
:102CC000F2406244D2444249B249056182801C40CC
:102CD000858F63CF0702AD4663F6F6001CC03E94B5
:102CE00004C031A05C406313870223ACF1864A859F
:102CF000EF00D0091305B40093074400619933072E
:102D0000F5405DDF3A94898F1CC05DBF5CC3C5B7D9
:102D10002287404095BF130435007198E30285FC7B
:102D2000B305A4404A855525E31C35FBB5BF1C46B9
:102D3000FD171CC663DA0700184E63C5E700A947F4
:102D40006394F5006FF09F811C422E851387170056
:102D500018C28CA38280011122CC26CA4AC84EC652
:102D600052C406CE2A89AE893284B304D6007D5A75
:102D700063149400014501A80C204E864A85453F06
:102D80000504E31745FFF2406244D2444249B24988
:102D9000224A05618280357122CD26CB4AC94EC7B1
:102DA00006CF52C556C35AC1DEDEE2DCE6DAAA8996
:102DB000AE843289368409C51C4D99E3EFF03FBAE1
:102DC000971700009387C79A6397F40C83A4490070
:102DD000DE24A18BFDC39C48EDC393070002A3042E
:102DE000F1029307000302D22305F10222C6930BDE
:102DF0005002971A0000938AAA9B054C294B4A84DB
:102E00001C2099C3639E770DB30C2441638D0C0085
:102E1000E6864A86A6854E853D3FFD57630FF51C25
:102E20009256E69636D21C206389071CFD5713097B
:102E3000140002C802CE3ECA02CCA309010482D407
:102E400083450900154656852D2713041900C247EE
:102E500051E913F7070109C713070002A309E104A9
:102E600013F7870009C71307B002A309E1048346DB
:102E700009001307A002638FE606F2474A848146E1
:102E80002546182093051400130707FD6377E60A0B
:102E9000B5CA3ECE85A8971700009387678F6395C4
:102EA000F40083A489002DB7971700009387478A01
:102EB000E390F4F283A4C90021BFA6854E85EFF00C
:102EC000AFF501DD7D55FA406A44DA444A49BA4912
:102ED0002A4A9A4A0A4BF65B665CD65C0D61828090
:102EE000050439BF330555413315AC00C98F3EC8C1
:102EF0002289B9B7324793064700184336C663475D
:102F000007023ACE18209307E002631DF704183039
:102F10009307A002631BF702B24709041387470017
:102F20009C433AC663C107023ECA2DA83307E0405E
:102F300093E727003ACE3EC8F1B7B38767038546CB
:102F40002E84BA973DBFFD57C5B7050402CA814616
:102F500081472546182093051400130707FD637465
:102F6000E606F9F20C200D46171500001305C5847E
:102F7000092511CD97170000938707841D8D9307AE
:102F80000004B397A700424505045D8D2AC80C20B4
:102F90001946171500001305658213091400230450
:102FA000B102C12B35C197D7FFFF9387A70595E7DE
:102FB0004247B2471377071009CF91073EC6925791
:102FC000D2973ED22DBDB387670385462E84BA972C
:102FD00051B79D07E19BA107D5B778009706000080
:102FE0009386A6D726860C084E8597000000E7003A
:102FF0000000FD572A8AE314F5FCDE2493F707044A
:10300000E39207EC1255C1B578009706000093864D
:10301000C6D426860C084E85012AE1BF797156CAAE
:103020009C49BA8A984522D426D24ECE52CC06D696
:103030004AD05AC85EC6AA892E84B284368A63D31F
:10304000E700BA879CC00347340419C385079CC0B6
:103050001C4093F7070281C79C4089079CC0032945
:10306000040013796900631A0900130B9401FD5BD6
:103070005C449840998F634CF9041C4083463404A7
:1030800093F70702B336D000A5EB13063404D285BC
:103090004E85829AFD576303F5041C401146984003
:1030A000998B544481446397C700B384E64063D34B
:1030B000040081441C4418486354F700998FBE945F
:1030C000014969047D5B63982405014509A885468B
:1030D0005A86D2854E85829A631E75017D55B250FF
:1030E000225492540259F249624AD24A424BB24B9C
:1030F000456182800509ADBF3307D4001306000384
:10310000A301C7040347540493871600A2978906B6
:10311000A381E7049DBF85462286D2854E85829A8B
:10312000E30E65FB050945B7797122D426D24AD052
:103130004ECE06D652CC56CA5AC8B689942D93079D
:1031400090063289AA842E8413863504638DF60294
:1031500063E2D706930780056386F61863EDD70010
:10316000638E062093073004638EF60A930A2404C4
:103170002301D404C9A0930730066385F60A930798
:103180004006E395F6FE1C40084393F607089305B6
:103190004500C5C61C410CC363D807001307D00205
:1031A000B307F040A301E40497060000938686610C
:1031B000294765A8930700076382F61663E5D702DF
:1031C0009307E0066389F6189307F006E390F6FA92
:1031D0000C401C4313F805081385470063070806D5
:1031E00008C39C4385A893075007E383F6FE930723
:1031F00080076389F61293073007E399F6F61C43BC
:10320000D04181459386470014C383AA07005685A1
:103210008D2601C53305554148C05C401CC8A3013B
:10322000040461A81C43930A2404938647009C432A
:1032300014C32301F4048547D5B793F607041C4152
:103240000CC3B9DAC207C18781BF93F5050408C36F
:10325000C9D99E231307F0066387E60E9706000080
:10326000938646562947A30104044C400CC463C509
:10327000050008406D9908C099E3B28A89CDB28AE9
:10328000B3F5E702FD1AB6958C212380BA00B3D5B9
:10329000E70263F0E70CA147631EF7001C40858B33
:1032A00091CB58401C4863C7E70093070003A38FE6
:1032B000FAFEFD1A3306564110C84E87CA867000C2
:1032C000A2852685EFF09FD57D5A631D450B7D5560
:1032D000B250225492540259F249624AD24A424BA5
:1032E00045618280A382D504970600009386864DAF
:1032F0000C40084313F805081C411105630D080232
:1033000008C313F7150001C793E505020CC0414738
:10331000B9FB0C4093F5F5FD0CC0B1B79C4193E7A8
:1033200007029CC193078007A302F40497060000DC
:103330009386864A75BF13F8050408C3E30308FCA7
:10334000C207C1837DBF970600009386A647214729
:1033500019BFAE8735B794411C43CC4913F8060812
:10336000138547006306080008C39C438CC339A03B
:1033700008C393F606049C43F5DA8EA323280400C1
:10338000B28A25BF14485686CA8526858299E300ED
:1033900045F51C40898B8DE7B2474844E35AF5F266
:1033A0003E853DB785465686CA8526858299E300C7
:1033B00065F3050A5C443247998FE345FAFEE9BF9D
:1033C000014A930A94017D5BF5B7411122C42A8416
:1033D0002E8523AE018A06C6EFF00F84FD576317D2
:1033E000F5009387C18B9C4391C31CC0B24022441B
:1033F00041018280411122C42E848395E50006C6D6
:103400007922634905007C48AA977CC8B2402244CF
:10341000410182805E247D777D17F98F5EA4FDB720
:10342000DE25011122CC26CA4AC84EC606CE93F725
:103430000710AA842E843289B68991C78395E50046
:103440008946014609225E247D777D17F98F5EA4A7
:103450008315E4006244F240CE864A86B24942496E
:103460002685D244056125A8411122C42E84839566
:10347000E50006C6C928FD575A24631AF500FD77F2
:10348000FD17F98F5EA4B240224441018280856716
:10349000D98F5EA468C8C5BF8395E50005A8411112
:1034A00022C42A842E85B285368623AE018A06C6BA
:1034B000EFE0FFF2FD576317F5009387C18B9C4344
:1034C00091C31CC0B240224441018280411122C4F8
:1034D0002A842E8523AE018A06C6C520FD576317B0
:1034E000F5009387C18B9C4391C31CC0B24022441A
:1034F00041018280411122C42A842E85B28523AEE7
:10350000018A06C6C920FD576317F5009387C18B52
:103510009C4391C31CC0B2402244410182804111AE
:1035200022C42A842E8523AE018A06C65D20FD575B
:103530006317F5009387C18B9C4391C31CC0B240B5
:10354000224441018280411122C42A842E85B28501
:10355000368623AE018A06C65920FD576317F5004B
:103560009387C18B9C4391C31CC0B240224441014C
:10357000828093F5F50F2A966314C5000145828079
:103580001C21E38EB7FE0505C5BF828082804111F4
:1035900022C42A842E85B285368623AE018A06C6C9
:1035A000A920FD576317F5009387C18B9C4391C3F6
:1035B0001CC0B2402244410182809307800523AEA3
:1035C000F18A7D5582809307800523AEF18A7D556F
:1035D00082809307800523AEF18A0145828093079C
:1035E000800523AEF18A7D5582809307800523AE46
:1035F000F18A7D558280000075736220656E746566
:1036000072206C6F7720706F776572206D6F6465C4
:103610000D000000757362206C65617665206C6F2B
:103620007720706F776572206D6F64650D00000004
:103630000902430002010080320904000001020275
:1036400001000524001001052401000104240202E8
:10365000052406000107058103400001090401005B
:10366000020A00000007050202400000070583026D
:10367000400000001201100102000040861A0CFEFA
:103680000001010200010000160355005300420032
:103690002000530065007200690061006C000000AA
:1036A0000E037700630068002E0063006E000000C8
:1036B000121B0000241B0000341B00003C1B0000F8
:1036C000521B0000701B00000D0A576541637420F7
:1036D00053747564696F20436F726520426F617225
:1036E000640D0000776561637473747564696F2E8F
:1036F00074616F62616F2E636F6D0D00776561633A
:103700007473747564696F2E616C69657870726525
:1037100073732E636F6D0D00777777772E77656102
:1037200063742D74632E636E0D0A0D0053797374E8
:10373000656D436C6B3A25640D0A00007573625F1A
:103740006364635F61636D0D0000000000000000B2
:103750000000000000000000000000000000000069
:103760000000000000000000000000000000000059
:103770000000000000000000000000000000000049
:103780000000000000000000000000000000000039
:103790000000000000000000000000000000000029
:1037A000000000000000000000000000232D302B6E
:1037B00020000000686C4C006566674546470000C5
:1037C0003031323334353637383941424344454657
:1037D0000000000030313233343536373839616219
:0837E00063646566000000004F
:1037E8001603300031003200330034003500360053
:1037F8003700380039000000C4130000D00A000068
:10380800C6130000D00A0000D00A0000D00A000049
:10381800D00A0000D00A0000FA130000D00A000005
:10382800D00A0000D00A0000D00A0000D00A000028
:10383800D21600002A170000D8190000DA19000073
:1038480060160000AA160000441600007E19000049
:103858008E190000A21900000000000040000000BE
:103868006001002004000000A03600000E000000E7
:103878008836000016000000000000201600000036
:10388800D00A00002C160000D00A0000D00A000060
:10389800D00A0000D6190000D00A00004216000025
:1038A8003A160000000000000102030401020304AC
:1038B80006070809000000006C3700008C3700007C
:1038C8004C3700000000000000000000000000006D
:1038D80000000000000000000000000000000000E0
:1038E80000000000000000000000000000000000D0
:1038F80000000000000000000000000000000000C0
:1039080000000000000000000000000000000000AF
:1039180000000000000000003036000043000000F6
:1039280074360000120000000F01000001000000C2
:1039380000D8B80502040608F8010020D4000020C9
:0839480004030904D40000206F
:00000001FF
