:100000006F007004130000001300000013000000D4
:100010001300000013000000130000001300000094
:100020001300000013000000130000001300000084
:08003000130000007300100032
:100038006FF09FFC000000006F00A0246F00A02458
:1000480000000000000000000000000000000000A8
:100058000000000000000000000000000000000098
:100068006F00A078000000006F00407800000000DA
:100078006F00E0776F00C0776F00A0776F00406473
:100088006F0060776F0040776F0020776F00007710
:100098006F00E0766F00C0766F00A0766F00807604
:1000A8006F0060766F0040766F0020766F000076F4
:1000B8006F00E0756F00C0756F00A075000000004C
:1000C8000000000000000000000000006F008074C5
:1000D8006F0060746F0040746F0020746F000074CC
:1000E8006F00E0736F00C0736F00A0736F008073C0
:1000F8006F0060736F0040736F0020736F000073B0
:100108006F00E0726F00C0726F00A0726F008072A3
:100118006F0060726F0040726F0020726F00007293
:1001280000000000000000000000000000000000C7
:080138000000000000000000BF
:100140003D432A876373C3029377F700BDEFADE5A4
:10015000937606FF3D8ABA960CC34CC30CC74CC7B6
:100160004107E36BD7FE11E28280B306C3408A06E3
:100170009702000096966780A6002307B700A306A3
:10018000B7002306B700A305B7002305B700A304F3
:10019000B7002304B700A303B7002303B700A302EB
:1001A000B7002302B700A301B7002301B700A300E3
:1001B000B7002300B700828093F5F50F9396850072
:1001C000D58D93960501D58D61B79396270097023B
:1001D000000096968682E78086FA9680C1171D8F6A
:1001E0003E96E374C3F8A5B701118545114506CEC7
:1001F00002C202C402C6EF00501F85472312F1005D
:1002000037150140930780023EC64C008D47130509
:1002100005803EC4EF00606FF240056182800111ED
:100220008545214506CE02C202C402C6EF00F01B7E
:1002300091472312F10037150140C1473EC64C00DB
:100240008D47130505C03EC4EF00206CF2400561E8
:100250008280411122C4371401409145130504C026
:1002600006C6EF00A076854791456319F500130592
:1002700004C02244B24041016F002076130504C03F
:100280002244B24041016F0000757300203001A08C
:100290000111094506CE22CC26CA4AC84EC652C410
:1002A00056C2EF00C073EF00904071651305052042
:1002B000EF009045153FA537372500001305451F72
:1002C000EF00B0623725000013050521EF00F06153
:1002D0003725000013058522EF0030613725000027
:1002E00013054524EF007060B707002083A50707BA
:1002F0003725000013058525EF00904D37250000B8
:1003000013058526EF00705E012681449309803E27
:10031000372A00001384C182B72A00008504B3F78E
:1003200034039DE713054A27EF00305C83554400F2
:1003300003466400834674000347840083C7C18278
:10034000034814008348240013858A29EF0050488D
:100350000545EF007038D9B79377350099EF13074B
:1003600040063377E502854719E79307001933758F
:10037000F502933715003E8582808147EDBF130853
:10038000E5844208135808019308100863ED080F2C
:10039000397162CC66CA373CE101B78CE20122DCDC
:1003A00026DA4AD84ED652D456D25AD05ECE06DE7F
:1003B0006AC86EC63E8B3A84B68A3289AE89AA8BE9
:1003C0008144130A207B130C0C38938C0C506392DD
:1003D0004B09FD19896C556C014A93F9F90F938CFF
:1003E0004C2B130C0C18854D131D0A01135D0D01C8
:1003F000636C3D071307C00385663304E4029386EC
:1004000006E15566130606187D198545370500185F
:10041000B38ADA025A943309C9025694EF00C07EB7
:10042000054571254A9426942285EF00700CEF0053
:10043000D010F2506254D2544259B259225A925AB0
:10044000025BF24B624CD24C424DB24D01452161F0
:1004500082805285113719C5E694050A420A135A5B
:100460000A01B5B7E294D5BFB3874C0183C7070033
:100470005E85B3878703BE94C53501C56313BD018F
:10048000E294050A95B70545828013074006B377C5
:10049000E5023355E5024D471375F50F6374A70068
:1004A0009387470613D527003E951D473375E50210
:1004B00009671307072C2E970347F7FF8D8B3A9692
:1004C0002A9699E7894763E5B7007D16420641827F
:1004D0001D453375A6028280797122D4556426D2D7
:1004E00006D64AD04ECE52CC56CA5AC85EC662C450
:1004F00013040418EF00407C3354850293878181F4
:1005000003D70700AA846305870623908700130991
:10051000207B9309C016130AD01663F189024A851D
:10052000253D050955C963084401130424E942091E
:1005300013590901DDB74209135909011387C18213
:10054000896A2312270181491389C1826D4B938ADD
:100550004A2B854B714C138A190063628B08137AFE
:10056000FA0F0504230349011374F40FA303890050
:10057000D56793870718B3F4F4028567938707E17B
:1005800033D7F402B3F4F4021377F70F2386E18232
:100590001307C0031384C182B3D7E402B3F4E402A7
:1005A00093F7F70FA300F4002301940003554400D0
:1005B0008345640003467400C93D2304A400B2507F
:1005C000225492540259F249624AD24A424BB24BE7
:1005D000224C014545618280130434E989BF0355EB
:1005E00049009D3B19C9639A7901E30A84F70D1408
:1005F00093190A0193D90901B9BFD69983C7090094
:10060000E36FF4F41D8CEDB7011185453705001833
:1006100006CE22CC26CACD2B054551291145F924F9
:10062000A9679387171A6309F508592C05457521A1
:1006300001449304A00F13051004312505E163184C
:1006400094000545F2406244D2440561828005046D
:1006500051451374F40FEF003008F1BF9307A00F5A
:100660000545E301F4FE1305001061290545452108
:10067000E925E12D85450945F52BC125092D216584
:100680007D15492D5D2D954581470147B14665464C
:100690001305607EED312925A9659385151A11454D
:1006A000052C02C4CD472304F100280085473EC62F
:1006B000152E1D35014579B7014529217925854537
:1006C00005454D2B9D2DF1BF0545652D19C12935DA
:1006D000493609457D2501C50945E125F53B154507
:1006E000C925A12D73002030B71702409843B706E3
:1006F000FFF841111367170098C3D843370602006B
:10070000758FD8C39843B706F7FEFD16758F98C34B
:100710009843B706FCFFFD16758F98C3D843B706FC
:1007200081FFFD16758FD8C337079F0098C702C495
:1007300002C69843C166558F98C3B7160240130787
:1007400000509C42F18F3EC6A24785073EC4B24787
:1007500081E7A247E397E7FEB71702409C43139750
:10076000E7006354070885473EC632478547631C48
:10077000F706B72702409843B706C1FFFD16136777
:10078000070198C39843719B98C398431367270048
:1007900098C3B7170240D843D8C3D843D8C3D84367
:1007A00013670740D8C3D843758FD8C3D843B7065B
:1007B0001D00558FD8C39843B7060001558F98C3C5
:1007C000984393166700E3DD06FED843B716024050
:1007D000719BD8C3D84313672700D8C32147DC4295
:1007E000B18BE39EE7FE4101828002C6BDBF01A03E
:1007F00001A001A001A001A001A001A001A001A0F1
:1008000001A001A001A001A001A001A001A001A0E0
:1008100001A001A001A001A001A001A001A001A0D0
:1008200001A001A001A001A001A001A001A001A0C0
:1008300001A001A001A001A001A001A001A001A0B0
:1008400001A001A001A0970100209381A1021741FE
:1008500000201301217B17250000130525B197F512
:10086000FF1F9385257A1386818163FAC500832251
:10087000050023A0550011059105E3EAC5FE138587
:1008800081819385C1836377B5002320050011051D
:10089000E36DB5FE9302800873A0023097F2FFFF6C
:1008A0009382C27993E2120073905230EFF0DFE34B
:1008B000970200009382029E7390123473002030DE
:1008C0004111054506C68526B24001454101A1AE4C
:1008D0004111B777004002C6938707C03EC6B247B2
:1008E0003E952AC6B2478CC3410182804111B77739
:1008F000004002C6938707C03EC6B2473E952AC64F
:10090000B24703D50700410182809C4513F70701D8
:1009100013F8F70001C7D8413368E80083D5050014
:1009200013F7F50F39C318418146854E3D4F930F9C
:10093000800293028004214E3396DE00B3F8C50096
:10094000631116039398260033131F011343F3FF1B
:100950003377E300B318180133E7E800639FF70526
:1009600050C98506E39AC6FD18C11307F00F6375D9
:10097000B70454412146854E3D4F930F80029302A8
:100980008004414EB398CE0033F715016392E8021C
:100990001317260001173313EF001343F3FFB37649
:1009A000D3003317E800D98E639DF701232A150180
:1009B0000506E319C6FD54C18280E39457FA10C9B5
:1009C0004DB7E39757FE23281501DDB748456D8DD8
:1009D0003335A00082800CC982804CC9828023AE4E
:1009E000A18082809387C18194430347050089E6F3
:1009F00083472500920731A8944305466391C604B6
:100A0000834725000346150092076314D60093E739
:100A100007F8B7E600E093F7F70FBA962380F640A1
:100A20008546935757003397E6005441ADC69387E8
:100A300007048A07B7E600E0B69798C382808C4324
:100A400089466393D5028346150083472500636575
:100A5000D6008A06B69779BF9386E6038A06B697CC
:100A600093F7F70F920765B790438D46631ED60044
:100A700083461500834725006364D6008606D9BFE8
:100A80009386C6078606E1BF94439147E39AF6F83A
:100A90008347150085B7B7E600E093870706B042A5
:100AA000C1458A07ACC2B69798C3B0C28280377777
:100AB00000401C4309C593E707101CC3828093F7CD
:100AC000F7EFE5BF377700405C4309C593E70710B0
:100AD0005CC3828093F7F7EFE5BFB717024023802E
:100AE00007022380070205476306E50011476306F6
:100AF000E50082802380A702828015472380E702D9
:100B00008280371702401C535D8D08D3828001C953
:100B1000371702401C53A166D58F1CD38280B716AD
:100B200002409C5261777D17F98F9CD282803717E3
:100B300002405C439146B18B6385D700A146638632
:100B4000D706B7177A00938707201CC137160240D3
:100B50005C4237070020130707009183BD8BBA97CB
:100B600083C607001C41B3D7D7005CC15442A182A1
:100B70009D8ABA9683C60600B3D6D70014C55442E0
:100B8000AD829D8A369703470700B3D7E7005CC55F
:100B9000584239839376370013874180369703474D
:100BA0000700B3D7E7021CC982805C435443C98362
:100BB000BD8B1396F6008907634D06003747024048
:100BC00003270780418B19CB37177A0013070720BB
:100BD00011A858439316E700E3D806FE37173D00E7
:100BE00013070790B387E7028DB799C537170240FF
:100BF0001C4F5D8D08CF8280B7170240984F134578
:100C0000F5FF798D88CF828099C5371702405C4FF8
:100C10005D8D48CF8280B7170240D84F1345F5FF4E
:100C2000798DC8CF828001C9371702401C53C16635
:100C3000D58F1CD38280B71602409C5241777D1716
:100C4000F98F9CD282809357550005476399E7003E
:100C5000B71702409C4333D5A70005898280094716
:100C60006396E700B71702409C53F5B7B7170240E9
:100C7000DC53D5B7B737004003D7078089C5598DF6
:100C80002390A78082801345F5FF798DD5BFB737B4
:100C9000004003D74780136707012392E7808280D3
:100CA0003737004083574780C207C183BD9BC207C7
:100CB000C1832312F7808280B736004083D78681B4
:100CC00003D5C68103D78681C207131605014207E3
:100CD000C18341834182938606806387E70003D501
:100CE000C6014207598D828013950701518D82807C
:100CF000011106CE2AC6613F3245B7370040F240A7
:100D0000135705014205239CE7804181239EA7805C
:100D1000056179B7011106CE2AC6953F3245B7372E
:100D20000040F240135705013D8B42052394E780B4
:100D300041812396A7800561A5B7373700408357C7
:100D4000478093F70702E5DF8280373700408357FB
:100D50004780C207C183DD9BC207C1832312F7808E
:100D60003737004083574780A18BEDDF8280B7374C
:100D7000004003D747801345F5FF798D2392A78064
:100D80008280373700408357478003570780C20768
:100D9000698FC18309C77D8D3335A00082800145ED
:100DA0008280F1B783560501F577FD17F58F83D65D
:100DB0006500397122DC06DED58F03D7C500231804
:100DC000F5008356C500FD779387379FF58F83D64F
:100DD00045002A842EC6D58F83D68500D58F83D62D
:100DE000A500D58F2316F50083574501C207C1839F
:100DF00093F7F7CFD98F231AF50068080D3BB74753
:100E0000014093870780B245631EF404A2578356BE
:100E1000C4006547B387E702C206C186984163D51F
:100E2000060406070356C4004206B3D7E7021307B9
:100E300040064186B3D6E702B3F7E702920663574E
:100E400006028E0793872703B3D7E70213F77700CD
:100E5000B367D700C207C1832314F400F250625471
:100E600021618280925765B70A076DBF9207938709
:100E70002703B3D7E702BD8BD58FE9BF81C983575D
:100E8000C5000967D98F2316F50082800357C50076
:100E9000F977FD17F98FC5BF93F5F51F2312B5003C
:100EA0008280035505006D8D3335A0008280B70721
:100EB000002083A7070737177A0013070720B3D747
:100EC000E70293F7F70F2381F1821307803EB38780
:100ED000E7022390F1828280B7F700E023A00700A9
:100EE00003D7018223820700A38207002383070020
:100EF0003305A702A3830700054798C337F700E02F
:100F00005C43E37FF5FE8280797122D42A841165E7
:100F10008545110506D6D139930700202312F1002B
:100F2000371501408D473EC44C00E147130505804D
:100F30003EC6E13A22C837440140B70708000C0812
:100F4000130504803ECC02CA231E0100A13D1305F7
:100F5000048085452537B2502254456182800111B5
:100F600026CAB744014022CC4AC84EC606CEAE8936
:100F70003289014493840480634A2401F24062442C
:100F80004A85D2444249B2490561828093050004F2
:100F90002685013F65DDB3878900838507002685A7
:100FA0000504C205C181CD3DC1BF138781801C43AB
:100FB0009386C1833E95636BD500B7560020938618
:100FC000068063E5A60008C33E858280FD57EDBF1D
:100FD00039713EDA2ED232D436D63AD842DC46DEE9
:100FE0009387C18022CC804326CA06CEAA8409C436
:100FF0001C4C99E3228515230C4454102686228527
:1010000036C6EF007016F2406244D24421618280FD
:10101000011126CA4AC806CE22CC4EC652C4AA84A2
:101020002E8901C51C4D91E3CD299C4C804499E348
:101030002685E521971700009387872B631CF40210
:10104000C0408357C400A18BB1C71C48A1C7FD593C
:10105000294A1C4483450900FD17B1E91CC463DE1D
:1010600007062286A94526857120FD576308F502EB
:10107000294535A097170000938787296314F4004A
:101080008044C1B79717000093878724E31BF4FAC5
:10109000C04445BFA2852685312A55D97D55F240E9
:1010A0006244D2444249B249224A056182801CC44A
:1010B000050963D70700184C63CBE7006389450136
:1010C0001C401387170018C02380B70059B7228629
:1010D00026850D20E31F35F7D1B71C401387170075
:1010E00018C029472380E70061B79387C180AA858C
:1010F000884339BF011122CC26CA4AC806CE4EC643
:10110000AA842E89328401C51C4D91E33921971799
:1011100000009387E71D6319F406C0401C4C1CC4F3
:101120008357C400A18BC9C31C48BDCF1C480840CD
:101130009379F90F1379F90F1D8D5C486346F5001B
:10114000A2852685652C2DE51C440505FD171CC4CC
:101150001C401387170018C0238037015C4863893F
:10116000A7008357C400858B81CBA9476316F9007C
:10117000A285268561240DEDF24062444A85D24461
:101180004249B2490561828097170000938747184A
:101190006314F400804459B79717000093874713EE
:1011A000E31EF4F6C0449DBFA285268521203DDDC7
:1011B0007D59D9B741119387C18026C2844322C487
:1011C0004AC006C62A892E8489C49C4C99E3268588
:1011D000A926971700009387A711631CF402C0404B
:1011E0000317C40093170701C18393F68700B5EE78
:1011F00093F607019DEEA5472320F9001367070426
:101200002316E4007D55B240224492440249410134
:101210008280971700009387A70F6314F40080441F
:10122000C1B7971700009387A70AE31BF4FAC044DD
:1012300045BF918B8DC74C5889C99307440463847B
:10124000F5004A85352B232A04028357C400232244
:10125000040093F7B7FD2316F4001C481CC0835705
:10126000C40093E787002316F4001C4881EF8357DE
:10127000C4001307002093F707286385E700A285C1
:101280004A8585218357C40013F7170005C75C48BA
:1012900023240400B307F0401CCC1C480145A5F7EB
:1012A0008317C40013F7070839DF93E707042316F1
:1012B000F40089BF898B014791E3584818C4F1BFF6
:1012C00083D7C500011122CC26CA06CE4AC84EC615
:1012D00013F78700AA842E8471EFD841634DE00094
:1012E000B841634AE0000145F2406244D2444249B9
:1012F000B2490561828058547DD703A904009396B2
:10130000370123A0040063DD060670488357C4003C
:10131000918B99C75C401D8E5C5899C33C401D8ED3
:101320005C540C50814626858297FD570357C400B4
:10133000631DF5009440F54763E8D706B7074020E2
:101340008507B3D7D700858BA5C31C48232204008B
:101350001CC09317370163D80700FD576314F500CD
:101360009C4091E368C84C5823A02401ADDD93074D
:1013700044046384F50026852121232A0402A5B7AD
:101380000C500146854626850297FD572A86E31FA5
:10139000F5F69C40A5DF75476385E70059476394E0
:1013A000E70423A0240181B7136707042316E40090
:1013B0007D551DBF83A90501E38709F203A9050037
:1013C0008D8B23A0350133093941014791E3D84979
:1013D00018C4E35A20F11C540C50CA864E86268548
:1013E00082976349A0008357C40093E7070423163C
:1013F000F4007DBFAA993309A940E1BF9C49B9CF48
:10140000011122CC06CE2A8411C51C4D81E72EC6BF
:101410002922B24597170000938787ED639BF5005B
:101420004C408397C50095C722856244F240056110
:1014300041BD971700009387A7ED6394F5000C4416
:10144000CDB7971700009387A7E8E39CF5FC4C44C1
:10145000C9BFF24062440145056182800145828036
:10146000411122C406C62A842316B5002317C500DD
:10147000232005002322050023240500232205063E
:1014800023280500232A0500232C05002146814539
:101490001305C505EFE0DFCA97170000938767B40F
:1014A0005CD0971700009387C7B61CD4971700002D
:1014B000938707BB5CD4971700009387C7BD00D004
:1014C0001CD8B240224441018280970500009385D8
:1014D00025F3A9A2411126C2130680069384F5FFC5
:1014E000B384C4024AC02E8922C406C69385440729
:1014F000252E2A8401CD2320050023222501310534
:1015000008C4138684068145EFE09FC32285B2405C
:10151000224492440249410182801C4DADE34111B5
:1015200006C622C497070000938767FA1CD59387E5
:1015300001819C4323240504232605042328050454
:101540006314F50085471CCD2A841D2848C02285D8
:10155000052808C422852D2048C4484001469145ED
:10156000013708440546A545E53D48440946C945B7
:10157000C53D85471CCCB240224441018280828017
:1015800041119387018126C284434AC006C69C4C00
:1015900022C42A8999E326854937938484048044A8
:1015A000DC40FD1763D607009C40B9CF8440C5BF1F
:1015B0000317C40039E7C1778507232204062320D7
:1015C000040023220400232404005CC42328040014
:1015D000232A0400232C0400214681451305C40559
:1015E000EFE01FB6232A0402232C04022324040460
:1015F000232604042285B240224492440249410138
:1016000082801304840671BF91454A85E13588C004
:1016100051FDB1472320F9000144E9BF797122D47B
:101620004AD052CC56CA5AC85EC606D626D24ECE2C
:101630002A8AAE8A130485040149054BFD5B09EC37
:10164000B25022544A8592540259F249624AD24A0F
:10165000424BB24B45618280044483294400FD190A
:1016600063D409000040E1BF83D7C400637BFB0063
:101670008397E40063877701A6855285829A336950
:10168000A90093848406E1BF1971A6DAAE8483951C
:10169000E500A2DC86DE328463DC050083D7C4006B
:1016A00023A0060093F7070885E7930700401DA0D5
:1016B000300836C6EF00B023B246E34105FE72475C
:1016C000BD67F98F7977BA9793B717009CC2F1BFBE
:1016D000930700041CC0F6506654D65401450961B6
:1016E000828083D7C500011122CC06CE26CA4AC803
:1016F000898B2E8489CF930774041CC01CC885472E
:101700005CC8F2406244D244424905618280740060
:101710003000AA84953FA2452A892685312201ED11
:101720008317C40013F7072069FFF19B93E7270095
:101730002316F400C9B797070000938747D99CD4B4
:101740008357C40008C008C893E707082316F400AD
:10175000A2475CC8B24791CF8315E4002685EF000D
:10176000B01B01C98357C400F19B93E717002316F0
:10177000F4008357C4003369F9002316240151B7DC
:10178000DDC183A7C5FF411122C406C626C213844A
:10179000C5FF63D307003E94AA84EF00D01E938751
:1017A00041829C4381EF2322040023A281822244B0
:1017B000B2402685924441016F00101D637EF40003
:1017C00014403307D4006396E7009843DC43369710
:1017D00018C05CC0D9BFBA87D84319C3E37DE4FE03
:1017E00094433386D700631F86001040B29694C39B
:1017F0003386D700E31DC7FA10435843B29694C30B
:10180000D8C375B76375C400B1479CC04DB71040CD
:10181000B306C4006316D70014435843B29614C0ED
:1018200058C0C0C369B78280011126CA93843500AD
:10183000F19806CE22CC4AC84EC6A104B14763F344
:10184000F404B14463E2B4042A89EF00D01393870F
:10185000418298433A8439E0938781829C4391E79F
:1018600081454A85812F23A4A182A6854A8599278F
:10187000FD5963193507B1472320F9004A85EF0068
:10188000B01029A0E3D004FCB1471CC10145F240CF
:101890006244D2444249B249056182801C40858F2E
:1018A00063CF0702AD4663F6F6001CC03E9404C049
:1018B00031A05C406313870223A2F1824A85EF00C6
:1018C000B00C1305B4009307440061993307F54049
:1018D0005DDF3A94898F1CC05DBF5CC3C5B72287AA
:1018E000404095BF130435007198E30285FCB305B1
:1018F000A4404A85C125E31C35FBB5BF1C46FD1736
:101900001CC663DA0700184E63C5E700A947639455
:10191000F5006FF02FFE1C422E851387170018C2AA
:101920002380B7008280011122CC26CA4AC84EC645
:1019300052C406CE2A89AE893284B304D6007D5AB9
:1019400063149400014509A8834504004E864A8526
:1019500075370504E31645FFF2406244D24442491C
:10196000B249224A05618280357122CD26CB4AC90F
:101970004EC706CF52C556C35AC1DEDEE2DCE6DAF8
:10198000AA89AE843289368401C51C4D91E3713633
:10199000971700009387C795639BF40C83A44900B5
:1019A00083D7C400A18BF5C79C48E5C79307000205
:1019B000A304F1029307000302D22305F10222C619
:1019C000930B5002971A0000938A8A96054C294B74
:1019D0004A848347040099C36390770FB30C244172
:1019E000638D0C00E6864A86A6854E852D3FFD5701
:1019F0006306F51E9256E69636D283470400638F3F
:101A0000071CFD571309140002C802CE3ECA02CCBF
:101A1000A309010482D48345090015465685B927D8
:101A200013041900C24759E913F7070109C713073F
:101A30000002A309E10413F7870009C71307B002E6
:101A4000A309E104834609001307A0026380E608A6
:101A5000F2474A8481462546034704009305140053
:101A6000130707FD6379E60AB5CA3ECE85A8971726
:101A700000009387E7896395F40083A489000DB77C
:101A8000971700009387C784E39CF4F083A4C900F0
:101A900001BFA6854E85EFF0EFF109D97D55FA40DB
:101AA0006A44DA444A49BA492A4A9A4A0A4BF65BD6
:101AB000665CD65C0D618280050421BF330555410B
:101AC0003315AC00C98F3EC82289B1B7324793069F
:101AD0004700184336C6634907023ACE034704005D
:101AE0009307E002631FF704034714009307A00263
:101AF000631BF702B2470904138747009C433AC6A9
:101B000063C107023ECA35A83307E04093E72700C8
:101B10003ACE3EC8E1B7B387670385462E84BA97AD
:101B200025BFFD57C5B7050402CA81468147254632
:101B30000347040093051400130707FD6376E606C8
:101B4000F1F2834504000D46170500001305C57E1C
:101B5000312D11CD970700009387077E1D8D9307C8
:101B60000004B397A700424505045D8D2AC883454C
:101B700004001946170500001305457C13091400DD
:101B80002304B102E5233DC197E7FFFF9387874711
:101B900095E74247B2471377071009CF91073EC632
:101BA0009257D2973ED22DB5B387670385462E84D0
:101BB000BA97BDBF9D07E19BA107D5B778009706EF
:101BC0000000938686D626860C084E859700000076
:101BD000E7000000FD572A8AE314F5FC83D7C40010
:101BE00093F70704E39C07EA125555BD7800970662
:101BF0000000938686D326860C084E85012AD9BF1D
:101C0000797156CA9C49BA8A984522D426D24ECEBA
:101C100052CC06D64AD05AC85EC6AA892E84B2844F
:101C2000368A63D3E700BA879CC00347340419C3DC
:101C300085079CC01C4093F7070281C79C40890719
:101C40009CC00329040013796900631A0900130B6F
:101C50009401FD5B5C449840998F634CF9041C40EF
:101C60008346340493F70702B336D000A5EB13067E
:101C70003404D2854E85829AFD576303F5041C40D7
:101C800011469840998B544481446397C700B384AC
:101C9000E64063D3040081441C4418486354F700B1
:101CA000998FBE94014969047D5B639824050145C1
:101CB00009A885465A86D2854E85829A631E75018B
:101CC0007D55B250225492540259F249624AD24A86
:101CD000424BB24B456182800509ADBF3307D4004A
:101CE00013060003A301C704034754049387160097
:101CF000A2978906A381E7049DBF85462286D285E7
:101D00004E85829AE30E65FB050945B7797122D4A9
:101D100026D24AD04ECE06D652CC56CA5AC8B6891A
:101D200083C68501930790063289AA842E84138680
:101D30003504638DF60263E2D70693078005638757
:101D4000F61863EDD7006380062293073004638E94
:101D5000F60A930A24042301D404C9A09307300689
:101D60006385F60A93074006E395F6FE1C40084398
:101D700093F6070893054500C5C61C410CC363D8FC
:101D800007001307D002B307F040A301E40497064D
:101D900000009386265B29476DA89307000763839D
:101DA000F61663E5D7029307E006638AF6189307F1
:101DB000F006E390F6FA0C401C4313F8050813856F
:101DC00047006307080608C39C438DA89307500784
:101DD000E383F6FE93078007638AF61293073007C2
:101DE000E399F6F61C43D04181459386470014C31E
:101DF00083AA070056859D2E01C53305554148C06D
:101E00005C401CC8A301040471A81C43930A240469
:101E1000938647009C4314C32301F4048547D5B738
:101E200093F607041C410CC3B9DAC207C18781BF0E
:101E300093F5050408C3C9D983D707001307F00633
:101E40006387E60E970600009386C64F2947A301D5
:101E500004044C400CC463C5050008406D9908C0DB
:101E600099E3B28A91CDB28AB3F5E702FD1AB6952D
:101E700083C505002380BA00B3D5E70263FFE70AF4
:101E8000A147631EF7001C40858B91CB58401C482E
:101E900063C7E70093070003A38FFAFEFD1A33061A
:101EA000564110C84E87CA867000A2852685893B98
:101EB0007D5A631E450B7D55B250225492540259EF
:101EC000F249624AD24A424B45618280A382D504DC
:101ED00097060000938606470C40084313F8050850
:101EE0001C411105630D080208C313F7150001C753
:101EF00093E505020CC04147B9FB0C4093F5F5FD95
:101F00000CC0B1B79C4193E707029CC193078007BF
:101F1000A302F404970600009386064475BF13F8E5
:101F2000050408C3E30308FCC207C1837DBF97060D
:101F3000000093862641214719BFAE8735B79441EB
:101F40001C43CC4913F806081385470063060800B4
:101F500008C39C438CC301A808C393F606049C43A2
:101F6000F5DA2390B70023280400B28A25BF14486D
:101F70005686CA8526858299E30F45F31C40898BD6
:101F80008DE7B2474844E359F5F23E8535B78546BB
:101F90005686CA8526858299E30F65F1050A5C4459
:101FA0003247998FE345FAFEE9BF014A930A94014B
:101FB0007D5BF5B7411122C42A842E8523AC0182B2
:101FC00006C6EFE09FFEFD576317F50093878183F8
:101FD0009C4391C31CC0B240224441018280411104
:101FE00022C42E848395E50006C645226349050078
:101FF0007C48AA977CC8B240224441018280835722
:10200000C4007D777D17F98F2316F400EDB783D7D1
:10201000C500011122CC26CA4AC84EC606CE93F787
:102020000710AA842E843289B68991C78395E5006A
:102030008946014631228357C4007D777D17F98F89
:102040002316F4008315E4006244F240CE864A86EB
:10205000B24942492685D24405613DA8411122C4B6
:102060002E848395E50006C6E128FD570357C4007A
:10207000631BF500FD77FD17F98F2316F400B240BE
:102080002244410182808567D98F2316F40068C8F5
:10209000FDB78395E50005A8411122C42A842E8549
:1020A000B285368623AC018206C6EFE05FEBFD57B2
:1020B0006317F500938781839C4391C31CC0B24092
:1020C000224441018280411122C42A842E8523ACFE
:1020D000018206C6CD20FD576317F50093878183E3
:1020E0009C4391C31CC0B2402244410182804111F3
:1020F00022C42A842E85B28523AC018206C6D12053
:10210000FD576317F500938781839C4391C31CC0DF
:10211000B240224441018280411122C42A842E858A
:1021200023AC018206C66520FD576317F50093872F
:1021300081839C4391C31CC0B240224441018280F0
:10214000411122C42A842E85B285368623AC0182B1
:1021500006C66120FD576317F500938781839C4372
:1021600091C31CC0B24022444101828093F5F50F17
:102170002A966314C5000145828083470500E38DDC
:10218000B7FE0505FDB782808280411122C42A84F2
:102190002E85B285368623AC018206C6A920FD575E
:1021A0006317F500938781839C4391C31CC0B240A1
:1021B0002244410182809307800523ACF1827D5542
:1021C00082809307800523ACF1827D55828093073E
:1021D000800523ACF182014582809307800523AC02
:1021E000F1827D5582809307800523ACF1827D5575
:1021F000828000000D0A5765416374205374756432
:10220000696F20436F726520426F6172640D000038
:10221000776561637473747564696F2E74616F623E
:10222000616F2E636F6D0D007765616374737475F4
:1022300064696F2E616C69657870726573732E6363
:102240006F6D0D00777777772E77656163742D74E6
:10225000632E636E0D0A0D0053797374656D436CC4
:102260006B3A25640D0A0000525443205465737480
:102270000D000000796561722F6D6F6E74682F64B8
:1022800061792F7765656B2F686F75722F6D696E39
:102290002F7365633A0D000025642D25642D256498
:1022A00020202564202025643A25643A25640D0AFF
:1022B000000000001F1C1F1E1F1E1F1F1E1F1E1FB1
:1022C00000030306010406020500030500000000E8
:1022D00000000000000000000000000000000000FE
:1022E00000000000000000000000000000000000EE
:1022F00000000000000000000000000000000000DE
:1023000000000000000000000000000000000000CD
:1023100000000000000000000000000000000000BD
:10232000000000000000000000000000232D302B02
:1023300020000000686C4C00656667454647000059
:1023400030313233343536373839414243444546EB
:1023500000000000303132333435363738396162AD
:082360006364656600000000E3
:102368000000000001020304010203040607080933
:1023780000000000EC2200000C230000CC2200002A
:102388000000000000000000000000000000000045
:102398000000000000000000000000000000000035
:1023A8000000000000000000000000000000000025
:1023B8000000000000000000000000000000000015
:1023C8000000000000000000000000000000000005
:1023D80000A24A0402040608AC00002010000020F5
:0823E8001000002000000000BD
:00000001FF
