:040000006F00100E6F
:1000040000000000000000009403000096030000BC
:1000140000000000DE0800000000000000000000F6
:10002400DE080000DE080000000000000000000000
:10003400DE08000000000000DE08000000000000F0
:10004400DE080000DE080000DE080000A603000051
:10005400DE080000DE080000DE080000DE08000004
:10006400DE080000DE080000DE080000DE080000F4
:10007400DE080000DE080000DE080000DE080000E4
:10008400DE080000DE080000DE080000DE080000D4
:10009400DE080000DE080000DE080000DE080000C4
:1000A400DE080000DE080000DE080000DE080000B4
:1000B400DE080000DE080000DE080000DE080000A4
:1000C400DE080000DE080000DE080000DE08000094
:1000D400DE080000DE080000DE080000DE08000084
:1000E400DE080000DE08000000000000DE0800005A
:1000F400DE080000DE080000DE080000DE08000064
:1001040000000000DE080000DE080000DE08000039
:10011400DE080000DE080000DE080000DE08000043
:10012400DE080000DE080000DE080000DE08000033
:10013400DE080000000000000000000000000000D5
:10014400000000000000000000000000DE080000C5
:10015400000000000000000000000000DE080000B5
:10016400DE080000DE080000DE080000DE080000F3
:10017400DE080000DE080000DE080000DE080000E3
:10018400DE080000DE080000DE080000DE080000D3
:10019400DE080000DE080000DE080000DE080000C3
:1001A400000000000000000000000000000000004B
:0C01B4000000000000000000000000003F
:1001C000397101436EC619A0397141536AC866CAB4
:1001D00062CC5ECE19A0397101535AD056D252D496
:1001E0004ED64AD826DA22DC06DE3301614082820E
:1001F00041114AC026C222C406C68282B24D4101C4
:10020000024D924C224CB24B4101024B924A224A7F
:10021000B2494101024992442244B24041018280E4
:100220003D432A876373C3029377F700BDEFADE5C3
:10023000937606FF3D8ABA960CC34CC30CC74CC7D5
:100240004107E36BD7FE11E28280B306C3408A0602
:100250009702000096966780A6002307B700A306C2
:10026000B7002306B700A305B7002305B700A30412
:10027000B7002304B700A303B7002303B700A3020A
:10028000B7002302B700A301B7002301B700A30002
:10029000B7002300B700828093F5F50F9396850091
:1002A000D58D93960501D58D61B79396270097025A
:1002B000000096968682E78086FA9680C1171D8F89
:1002C0003E96E374C3F8A5B7EFF29FF2411185455E
:1002D000114502C202C402C6EF00701785477C8236
:1002E00037150140930780023EC64C008D47130529
:1002F00005803EC4EF00C06A410129BFEFF25FEF05
:1003000037150140854513050580EF00607519B765
:10031000EFF21FEE41118545214502C202C402C61B
:10032000EF00F01291477C8237150140C1473EC66D
:100330004C008D47130505C03EC4EF0060664101C7
:10034000D1BDEFF2FFEA371401409145130504C017
:10035000EF00A071854791456317F500130504C0B0
:10036000EF00807145BD130504C0EF00A070DDBF34
:10037000EFF21FE8914501C937150140130505C08B
:10038000EF00406F41BD37150140130505C0EF0078
:10039000A06ECDBF01A0B707EFBE37E700E093879F
:1003A00007083CC701A00545EF00902611C1AD220A
:1003B0000945EF00F02509C50945EF007027A92A76
:1003C0001545EF00F026EF003020730020309377C2
:1003D000350099EF130740063377E502854719E7A3
:1003E000930700193375F502933715003E85828017
:1003F0008147EDBF1308E5844208135808019308AC
:10040000100863E2080DEFF2BFDB373CE101B78C67
:10041000E2013E8B3A84B68A3289AE89AA8B814446
:10042000130A207B130C0C38938C0C5063944B07ED
:10043000FD19896C556C014A93F9F90F938C0C23C3
:10044000130C0C18854D131D0A01135D0D01636E0D
:100450003D051307C00385663304E402938606E175
:100460005566130606187D19854537050018B38AA9
:10047000DA025A943309C9025694EF00207F0545E9
:10048000B92D4A9426942285EF00F00EEF00D01388
:100490000145ADB35285253F19C5E694050A420AC8
:1004A000135A0A0161B7E294D5BFB3874C019C236C
:1004B0005E85B3878703BE94193F01C56313BD01F1
:1004C000E294050A49B70545828013074006B377D1
:1004D000E5023355E5024D471375F50F6374A70028
:1004E0009387470613D527003E951D473375E502D0
:1004F00009671307C7232E970347F7FF8D8B3A969B
:100500002A9699E7894763E5B7007D16420641823E
:100510001D453375A6028280EFF21FCB5564EF00B4
:10052000E07F1304041833548502938781819A2352
:10053000AA846305870482A39309207B1309C0164C
:10054000130AD016636E89069387C182896A239243
:1005500037011389C18281496D4B938A0A23854BE8
:10056000714C138A1900636C8B06137AFA0F050419
:10057000230349011374F40FA3038900D5679387FC
:100580000718B3F4F4028567938707E11384C182E7
:1005900033D7F402B3F4F4021377F70F18A013075C
:1005A000C003B3D7E402B3F4E40293F7F70F1CB02F
:1005B00024A04A206C207030093F08A4014589B16D
:1005C0004E85313511C9E30144F9130424E9850945
:1005D000C20993D90901BDB7130434E9CDBF03554E
:1005E0004900F53319C9639A7901E30084F90D14C0
:1005F00093190A0193D90901ADB7D69983C70900A8
:10060000E365F4F61D8CEDB7EFF29FBE4111854511
:1006100037050018A12D0545D9210945EF005001E6
:100620000545EF00F00091260545E92101449304BA
:10063000A00F13051004952D11ED63169400854449
:1006400026854101C1BE050451451374F40FEF0026
:10065000D00CC5B79307A00F8544E303F4FE130540
:1006600000106D290545C921EF000076EF00C07626
:10067000854505459525EF002075A52D21657D153E
:10068000EF00E071EF0040741307A003B546214668
:1006900093077003A9451305307EA93BA525A965DD
:1006A0009385151A1145D12CCD4702C428005C84CE
:1006B00026C6C12E9535814461B7EFF2DFB10945F9
:1006C000752E6922EF00D002716513050520EF0039
:1006D0003008B707002083A5070837250000130559
:1006E000851BEF001012452CAA8537250000130545
:1006F000851CEF001011372500001305851DEF0044
:1007000090211937D136293105459D31814413098E
:10071000800C9309803E372A00001384C182B72AD7
:1007200000008504E13E1DE5B3F734039DE71305A2
:100730000A1FEF00501E4E207020743018241C2019
:10074000034814008348240013854A21EF00700BEE
:10075000CD3E21A0B3F72403E5DF0545EF00E07BA4
:10076000C9B7B71702409843B706FFF041111367A6
:10077000170098C3D84337060200758FD8C3984333
:10078000B706F7FEFD16758F98C39843B706FCFFB2
:10079000FD16758F98C3D843B70601FFFD16758FF8
:1007A000D8C337079F0098C702C402C69843C166E2
:1007B000558F98C3B716024005679C42F18F3EC61D
:1007C000A24785073EC4B24781E7A247E397E7FE09
:1007D000B71702409C431397E70063570706854706
:1007E0003EC632478547631FF704B7170240D84318
:1007F000B706C1FFFD16D8C3D843D8C3D843136783
:100800000740D8C3D843758FD8C3D843B7063D0037
:10081000558FD8C39843B7060001558F98C39843A6
:1008200093166700E3DD06FED843B7160240719BBE
:10083000D8C3D84313672700D8C32147DC42B18B04
:10084000E39EE7FE4101828002C661BFB716024007
:10085000DC42370700201146B18B13070708638578
:10086000C70021466388C702B7177A00938707201D
:100870001CC3B7170240DC43918393F6F700B70718
:10088000002093870700B69794231C43B3D7D70063
:100890001CC38280DC42D4424166C983BD8BF18E89
:1008A000890745466393C700C94781EEB7460240B2
:1008B00083A60680C18A89CEB7167A009386062061
:1008C00021A8B7160240D4421396E600E35606FE6E
:1008D000B7163D0093860690B387D70251BF01A09B
:1008E00097010020938101FA177100201301817193
:1008F000172500001305459F97F5FF1F9385857009
:100900001386818163FAC5008322050023A0550068
:1009100011059105E3EAC5FE138581819385C183A5
:100920006377B500232005001105E36DB5FEFD4298
:10093000739002BCAD4273904280B7620000938214
:1009400082087390023097F2FFFF9382E26B93E28A
:10095000320073905230EFF0DFE097020000938294
:1009600002D67390123473002030EFF27F88054571
:10097000292E0145192E6FF0FF894111B7770040EC
:1009800002C6938707C03EC6B2473E952AC6B24705
:100990008CC341018280B7F7FF1F03A54770828097
:1009A0009C4513F7070113F8F70001C7D8413368D6
:1009B000E8008E2113F7F50F39C318418146854EA3
:1009C0003D4F930F800293028004214E3396DE0048
:1009D000B3F8C500631116039398260033131F0163
:1009E0001343F3FF3377E300B318180133E7E8004C
:1009F000639FF70550C98506E39AC6FD18C1130722
:100A0000F00F6375B70454412146854E3D4F930F57
:100A1000800293028004414EB398CE0033F7150153
:100A20006392E8021317260001173313EF001343F4
:100A3000F3FFB376D3003317E800D98E639DF70137
:100A4000232A15010506E319C6FD54C18280E394EB
:100A500057FA10C94DB7E39757FE23281501DDB7A4
:100A600008456D8D3335A000828048456D8D333546
:100A7000A00082800CC982804CC9828023AEA180F4
:100A8000828003A7C181894710216311F7021431C5
:100A90008D4763EDD7003C219A0637E700E09607C3
:100AA000D58F93F7F70F32972300F740544105474E
:100AB000935756003317C70089CA938707048A07DC
:100AC000B7E600E0B69798C3828093870706B7E63B
:100AD00000E08A07B69798C30F100000828037772E
:100AE00000401C4309C593E707101CC3828093F79D
:100AF000F7EFE5BFB7170240238007022380070204
:100B000005476306E50011476306E5008280238000
:100B1000A702828015472380E702828037170240B0
:100B20001C535D8D08D3828001C9371702401C53C6
:100B3000A166D58F1CD38280B71602409C52617784
:100B40007D17F98F9CD28280371702405C43914613
:100B5000B18B6385D700A1466382D706B7177A00A9
:100B6000938707201CC1371602405C4237070020DC
:100B7000130707019183BD8BBA9794231C41B3D708
:100B8000D7005CC15442A1829D8ABA969422B3D602
:100B9000D70014C55442AD829D8A36971823B3D727
:100BA000E7005CC55842398393763700138741804C
:100BB00036971823B3D7E7021CC982805C4354439D
:100BC0004167C983F98E37F7FF1F0327C770BD8BB5
:100BD00089071316170163480600454601476392CB
:100BE000C702C94739A809476389E7023D476388B7
:100BF000E70241476388E702454601476393C70020
:100C0000C14785E6B746024083A60680C18A8DC6E5
:100C1000B7167A009386062025A00147D9B7054765
:100C2000B547C5B70147BD47E9BFB7160240D44233
:100C30001396E600E35E06FCB7163D009386069029
:100C4000B387D7021CC105D31C41858321BF99C539
:100C5000371702401C4F5D8D08CF8280B7170240C6
:100C6000984F1345F5FF798D88CF828099C5371746
:100C700002405C4F5D8D48CF8280B7170240D84F4D
:100C80001345F5FF798DC8CF828001C9371702401F
:100C90001C53C166D58F1CD38280B71602409C526C
:100CA00041777D17F98F9CD2828093575500054775
:100CB0006399E700B71702409C4333D5A700058925
:100CC000828009476396E700B71702409C53F5B747
:100CD000B7170240DC53D5B7B737004003D70780BA
:100CE00089C5598D2390A78082801345F5FF798DA2
:100CF000D5BFB737004003D747801367070123925A
:100D0000E78082803737004083574780C207C1831E
:100D1000BD9BC207C1832312F78082803736004013
:100D2000835686810357868142074183E31AD7FEA3
:100D3000373600408356C6818357C681C207C183B8
:100D4000E39AD7FEB735004003D6858103D5858168
:100D500042054181E31AC5FE630CA700B736004087
:100D600003D7C68183D7C681C207C183E39AE7FE52
:100D700042055D8D8280EFF2AFC741112AC6953FD3
:100D80003245B7370040135705014205239CE780E1
:100D90004181239EA780BD3741016FF0AFC7EFF2BD
:100DA0002FC541112AC6B1373245B7370040135716
:100DB00005013D8B42052394E78041812396A7805E
:100DC000913741016FF00FC5373700408357478097
:100DD00093F70702E5DF828037370040835747806B
:100DE000C207C183DD9BC207C1832312F780373757
:100DF000004083574780A18BEDDF8280B7370040EA
:100E000003D747801345F5FF798D2392A780828011
:100E1000373700408357478003570780C207698FE1
:100E2000C18309C77D8D3335A00082800145828052
:100E3000EFF20FBCE1376FF0EFBDEFF26FBB162999
:100E4000F577FD17F58FF621DA257971D58F1EA973
:100E50005625FD779387379FF58FD6212A842EC696
:100E6000D58F9625D58FB625D58F5EA55E29C2076D
:100E7000C18393F7F7CFD98F5EA96808F131B747DF
:100E8000014093870780B245631EF402A25765476D
:100E9000B387E7029841930640060A07B3D7E702F3
:100EA00033D7D702B3F7D7021207920793872703E6
:100EB000B3D7D702BD8BD98FC207C1831EA44561AA
:100EC0006FF04FB59257E1B791C55E250967D98F8D
:100ED0005EA582805A25F977FD17F98FD5BF93F566
:100EE000F51F4EA182800A216D8D3335A0008280CE
:100EF000B707002083A7070837177A0013070720D2
:100F0000B3D7E70293F7F70F2381F1821307803EEF
:100F1000B387E7022390F1828280B7F700E0D843DD
:100F20008146799BD8C303D701823306A70290CBB1
:100F3000D4CB98431367070198C3984313671702EC
:100F400098C3D843058B75DF9843799B98C38280FB
:100F5000EFF20FAA2A841165011185451105C539E3
:100F6000930700207C82371501408D473EC44C001A
:100F7000E147130505803EC6253422C837440140A9
:100F8000B70708000C08130504803ECC02CA231ED4
:100F9000010065358545130504803D3705616FF017
:100FA0006FA7EFF24FA3B7440140AE8932890144E5
:100FB00093840480634524014A856FF00FA593054F
:100FC000000426850D3765DDB3878900838507001A
:100FD00026850504C205C1811937E9BF13878180C1
:100FE0001C439386C1833E95636BD500B786002072
:100FF0009386068063E5A60008C33E858280FD5780
:10100000EDBF39713EDA2ED232D436D63AD842DC30
:1010100046DE9387C18022CC804326CA06CEAA84AE
:1010200009C41C4C99E32285ED290C4454102686F2
:10103000228536C6EF007012F2406244D24421612C
:101040008280011126CA4AC806CE22CC4EC652C49E
:10105000AA842E8901C51C4D91E3E1219C4C80445A
:1010600099E326857D299717000093872720631B26
:10107000F402C0405E24A18BB1C71C48A1C7FD5932
:10108000294A1C4483450900FD17B1E91CC463DDEE
:1010900007062286A94526856120FD576308F502CB
:1010A000294535A0971700009387471E6314F40065
:1010B0008044C9B79717000093874719E31CF4FAD7
:1010C000C0444DBFA2852685112A55D97D55F240D1
:1010D0006244D2444249B249224A056182801CC41A
:1010E000050963D70700184C63CAE7006388450108
:1010F0001C401387170018C08CA361B72286268571
:101100000520E31035F9D9B71C401387170018C024
:10111000294798A371B79387C180AA85884315B7DB
:10112000011122CC26CA4AC806CE4EC6AA842E89F0
:10113000328401C51C4D91E3ED269717000093877B
:10114000E7126317F406C0401C4C1CC45E24A18B3C
:10115000C1C31C48B5CF1C4808409379F90F1379D7
:10116000F90F1D8D5C486346F500A2852685692C24
:1011700025E51C440505FD171CC41C4013871700FA
:1011800018C0238037015C486388A7005E24858BE4
:1011900081CBA9476316F900A2852685B5240DEDFC
:1011A000F24062444A85D2444249B2490561828094
:1011B000971700009387870D6314F400804469B784
:1011C0009717000093878708E310F4F8C044ADBF79
:1011D000A2852685212041D17D59D9B74111938718
:1011E000C18026C2844322C44AC006C62A892E84EE
:1011F00089C49C4C99E326852D2697170000938778
:10120000E706631BF402C0400317C40093170701ED
:10121000C18393F68700ADEA93F6070195EEA547E3
:101220002320F900136707045AA47D55B2402244D5
:101230009244024941018280971700009387070575
:101240006314F4008044C9B7971700009387070020
:10125000E31CF4FAC0444DBF918B9DC34C5889C91F
:10126000930744046384F5004A853123232A04024A
:101270005E242322040093F7B7FD5EA41C481CC023
:101280005E2493E787005EA41C4899EB5E24130755
:10129000002093F707286385E700A2854A85A121EE
:1012A0005E2413F717001DC35C4823240400B30712
:1012B000F0401CCC1C480145B5FB8317C40013F754
:1012C00007082DD793E707045EA485B7898B0147EC
:1012D00091E3584818C4F9BFDE25011122CC26CA73
:1012E00006CE4AC84EC613F78700AA842E8479EB2F
:1012F000D841634DE000B841634AE0000145F24047
:101300006244D2444249B2490561828058547DD733
:1013100003A904009396370123A0040063DB0606AB
:1013200070485E24918B99C75C401D8E5C5899C3B0
:101330003C401D8E5C540C50814626858297FD579B
:101340005A24631DF5009440F54763E8D706B707B4
:1013500040208507B3D7D700858BA5C31C4823221F
:1013600004001CC09317370163D80700FD576314AE
:10137000F5009C4091E368C84C5823A02401BDDDD2
:10138000930744046384F5002685F526232A040286
:10139000B5B70C500146854626850297FD572A862B
:1013A000E311F5F89C40B5DF75476385E7005947C1
:1013B0006393E70423A0240191B7136707045AA499
:1013C0007D5535BF83A90501E38A09F203A905000C
:1013D0008D8B23A0350133093941014791E3D84969
:1013E00018C4E35D20F11C540C50CA864E86268535
:1013F00082976347A0005E2493E707045EA4C9B701
:10140000AA993309A940F1BF9C49B9CF011122CC57
:1014100006CE2A8411C51C4D81E72EC61922B2457D
:1014200097170000938787E4639BF5004C408397F0
:10143000C50095C722856244F240056171BD9717CA
:1014400000009387A7E46394F5000C44CDB7971789
:1014500000009387A7DFE39CF5FC4C44C9BFF24032
:10146000624401450561828001458280411122C4A8
:1014700006C62A844EA572A5232005002322050056
:10148000232405002322050623280500232A05001E
:10149000232C0500214681451305C505EFE05FD8E3
:1014A00097170000938747B15CD097170000938788
:1014B00067B31CD497170000938747B75CD497177E
:1014C00000009387A7B900D01CD8B2402244410144
:1014D000828097050000938565F3A9A2411126C279
:1014E000130680069384F5FFB384C4024AC02E8994
:1014F00022C406C6938544071D262A8401CD2320D5
:10150000050023222501310508C413868406814580
:10151000EFE01FD12285B2402244924402494101AA
:1015200082801C4DADE3411106C622C4970700001E
:10153000938767FA1CD5938701819C432324050474
:1015400023260504232805046314F50085471CCDD4
:101550002A841D2848C02285052808C422852D20FC
:1015600048C4484001469145113708440546A54501
:10157000F53D48440946C945D53D85471CCCB24098
:10158000224441018280828041119387018126C2D9
:1015900084434AC006C69C4C22C42A8999E3268506
:1015A0004937938484048044DC40FD1763D60700E8
:1015B0009C40B9CF8440C5BF0317C40039E7C17749
:1015C0008507232204062320040023220400232469
:1015D00004005CC423280400232A0400232C0400F4
:1015E000214681451305C405EFE09FC3232A040269
:1015F000232C040223240404232604042285B2405D
:10160000224492440249410182801304840671BF3E
:1016100091454A85E13588C051FDB1472320F90045
:101620000144E9BF797122D44AD052CC56CA5AC873
:101630005EC606D626D24ECE2A8AAE8A130485040A
:101640000149054BFD5B09ECB25022544A85925486
:101650000259F249624AD24A424BB24B45618280FA
:10166000044483294400FD1963D409000040E1BF0C
:10167000DE24637BFB008397E40063877701A68504
:101680005285829A3369A90093848406E9BF19714F
:10169000A6DAAE848395E500A2DC86DE328463DBC5
:1016A0000500DE2423A0060093F7070885E79307CB
:1016B00000401DA0300836C6EF00D01FB246E342FE
:1016C00005FE7247BD67F98F7977BA9793B7170010
:1016D0009CC2F1BF930700041CC0F6506654D65458
:1016E000014509618280DE25011122CC06CE26CA81
:1016F0004AC8898B2E8489CF930774041CC01CC8E8
:1017000085475CC8F2406244D24442490561828008
:1017100074003000AA84A53FA2452A8926850122AB
:1017200019E98317C40013F7072069FFF19B93E7BA
:1017300027005EA4D1B7970700009387C7D99CD430
:101740005E2408C008C893E707085EA4A2475CC8E7
:10175000B24781CF8315E4002685EF00501811C5EC
:101760005E24F19B93E717005EA45E243369F900C1
:101770002316240141BFDDC183A7C5FF411122C447
:1017800006C626C21384C5FF63D307003E94AA840D
:10179000EF00B01B938741829C4381EF232204001A
:1017A00023A281822244B2402685924441016F00E7
:1017B000F019637EF40014403307D4006396E70009
:1017C0009843DC43369718C05CC0D9BFBA87D8436A
:1017D00019C3E37DE4FE94433386D700631F86007C
:1017E0001040B29694C33386D700E31DC7FA104366
:1017F0005843B29694C3D8C375B76375C400B14754
:101800009CC04DB71040B306C4006316D700144304
:101810005843B29614C058C0C0C369B78280011142
:1018200026CA93843500F19806CE22CC4AC84EC60B
:10183000A104B14763F3F404B14463E2B4042A8918
:10184000EF00B0109387418298433A8439E0938740
:1018500081829C4391E781454A85052F23A4A1827B
:10186000A6854A851D27FD5963193507B1472320F1
:10187000F9004A85EF00900D29A0E3D004FCB147A0
:101880001CC10145F2406244D2444249B24905615B
:1018900082801C40858F63CF0702AD4663F6F60059
:1018A0001CC03E9404C031A05C406313870223A295
:1018B000F1824A85EF0090091305B40093074400B4
:1018C00061993307F5405DDF3A94898F1CC05DBF95
:1018D0005CC3C5B72287404095BF1304350071989B
:1018E000E30285FCB305A4404A854525E31C35FB8E
:1018F000B5BF1C46FD171CC663DA0700184E63C54A
:10190000E700A9476394F5006FF09F811C422E8584
:101910001387170018C28CA38280011122CC26CA1B
:101920004AC84EC652C406CE2A89AE893284B30450
:10193000D6007D5A63149400014501A80C204E8600
:101940004A85453F0504E31745FFF2406244D2440F
:101950004249B249224A05618280357122CD26CBA7
:101960004AC94EC706CF52C556C35AC1DEDEE2DCB5
:10197000E6DAAA89AE843289368401C51C4D91E32A
:101980004D36971700009387678E6397F40C83A4F6
:101990004900DE24A18BFDC39C48EDC393070002E0
:1019A000A304F1029307000302D22305F10222C629
:1019B000930B5002971A0000938A4A8F054C294BCB
:1019C0004A841C2099C3639E770DB30C2441638D18
:1019D0000C00E6864A86A6854E858137FD57630F43
:1019E000F51C9256E69636D21C206389071CFD57DB
:1019F0001309140002C802CE3ECA02CCA309010496
:101A000082D48345090015465685252713041900FD
:101A1000C24751E913F7070109C713070002A309D9
:101A2000E10413F7870009C71307B002A309E10413
:101A3000834609001307A002638FE606F2474A8433
:101A400081462546182093051400130707FD637788
:101A5000E60AB5CA3ECE85A897170000938707838C
:101A60006395F40083A489002DB79707000093873E
:101A7000E77DE390F4F283A4C90021BFA6854E85DB
:101A8000EFF0CFF501DD7D55FA406A44DA444A496A
:101A9000BA492A4A9A4A0A4BF65B665CD65C0D61E3
:101AA0008280050439BF330555413315AC00C98F19
:101AB0003EC82289B9B7324793064700184336C655
:101AC000634707023ACE18209307E002631DF7042C
:101AD00018309307A002631BF702B247090413876B
:101AE00047009C433AC663C107023ECA2DA833078C
:101AF000E04093E727003ACE3EC8F1B7B3876703CB
:101B000085462E84BA973DBFFD57C5B7050402CA66
:101B1000814681472546182093051400130707FDC9
:101B20006374E606F9F20C200D4617050000130554
:101B30006578012511CD970700009387A7771D8D44
:101B400093070004B397A700424505045D8D2AC89A
:101B50000C2019461705000013050576130914001B
:101B60002304B102F92335C197E7FFFF9387874923
:101B700095E74247B2471377071009CF91073EC652
:101B80009257D2973ED22DBDB387670385462E84E8
:101B9000BA9751B79D07E19BA107D5B77800970683
:101BA00000009386C6D726860C084E859700000055
:101BB000E7000000FD572A8AE314F5FCDE2493F7C2
:101BC0000704E39207EC1255C1B5780097060000B0
:101BD0009386E6D426860C084E85012AE1BF7971EA
:101BE00056CA9C49BA8A984522D426D24ECE52CCA7
:101BF00006D64AD05AC85EC6AA892E84B284368ACE
:101C000063D3E700BA879CC00347340419C3850730
:101C10009CC01C4093F7070281C79C4089079CC069
:101C20000329040013796900631A0900130B940156
:101C3000FD5B5C449840998F634CF9041C408346DB
:101C4000340493F70702B336D000A5EB130634042F
:101C5000D2854E85829AFD576303F5041C401146D8
:101C60009840998B544481446397C700B384E640FD
:101C700063D3040081441C4418486354F700998FCF
:101C8000BE94014969047D5B63982405014509A858
:101C900085465A86D2854E85829A631E75017D558A
:101CA000B250225492540259F249624AD24A424BEB
:101CB000B24B456182800509ADBF3307D4001306DE
:101CC0000003A301C7040347540493871600A29797
:101CD0008906A381E7049DBF85462286D2854E856D
:101CE000829AE30E65FB050945B7797122D426D2A5
:101CF0004AD04ECE06D652CC56CA5AC8B689942D72
:101D0000930790063289AA842E8413863504638D46
:101D1000F60263E2D706930780056385F61863ED44
:101D2000D700638D062093073004638EF60A930A6A
:101D300024042301D404C9A0930730066385F60A5E
:101D400093074006E395F6FE1C40084393F6070808
:101D500093054500C5C61C410CC363D80700130793
:101D6000D002B307F040A301E40497060000938675
:101D70002655294765A8930700076381F61663E592
:101D8000D7029307E0066388F6189307F006E390FE
:101D9000F6FA0C401C4313F8050813854700630747
:101DA000080608C39C4385A893075007E383F6FE03
:101DB000930780076388F61293073007E399F6F6D6
:101DC0001C43D04181459386470014C383AA070072
:101DD0005685852601C53305554148C05C401CC861
:101DE000A301040461A81C43930A240493864700BA
:101DF0009C4314C32301F4048547D5B793F6070425
:101E00001C410CC3B9DAC207C18781BF93F5050431
:101E100008C3C9D99E231307F0066386E60E97060A
:101E200000009386E6492947A30104044C400CC4F2
:101E300063C5050008406D9908C099E3B28A89CD51
:101E4000B28AB3F5E702FD1AB6958C212380BA0059
:101E5000B3D5E70263FFE70AA147631EF7001C4002
:101E6000858B91CB58401C4863C7E700930700035C
:101E7000A38FFAFEFD1A3306564110C84E87CA8654
:101E80007000A2852685A13B7D5A631D450B7D55BB
:101E9000B250225492540259F249624AD24A424BF9
:101EA00045618280A382D50497060000938646414F
:101EB0000C40084313F805081C411105630D080286
:101EC00008C313F7150001C793E505020CC041478D
:101ED000A1FF0C4093F5F5FD0CC0B9B79C4193E709
:101EE00007029CC193078007A302F4049706000031
:101EF0009386463E75BF13F8050408C3E30308FC48
:101F0000C207C1837DBF970600009386663B2147C9
:101F100021BFAE873DB794411C43CC4913F8060856
:101F2000138547006306080008C39C438CC339A08F
:101F300008C393F606049C43F5DA8EA32328040015
:101F4000B28A2DBF14485686CA8526858299E30039
:101F500045F51C40898B8DE7B2474844E35AF5F2BA
:101F60003E853DB785465686CA8526858299E3001B
:101F700065F3050A5C443247998FE345FAFEE9BFF1
:101F8000014A930A94017D5BF5B7411122C42A846A
:101F90002E8523AC018206C6EFF04F84FD576317F0
:101FA000F500938781839C4391C31CC0B2402244B7
:101FB00041018280411122C42E848395E50006C62A
:101FC0007922634905007C48AA977CC8B240224424
:101FD000410182805E247D777D17F98F5EA4FDB775
:101FE000DE25011122CC26CA4AC84EC606CE93F77A
:101FF0000710AA842E843289B68991C78395E5009B
:102000008946014609225E247D777D17F98F5EA4FB
:102010008315E4006244F240CE864A86B2494249C2
:102020002685D244056125A8411122C42E848395BA
:10203000E50006C6C928FD575A24631AF500FD7746
:10204000FD17F98F5EA4B24022444101828085676A
:10205000D98F5EA468C8C5BF8395E50005A8411166
:1020600022C42A842E85B285368623AC018206C618
:10207000EFE03FF3FD576317F500938781839C439F
:1020800091C31CC0B240224441018280411122C44C
:102090002A842E8523AC018206C6C520FD5763170E
:1020A000F500938781839C4391C31CC0B2402244B6
:1020B00041018280411122C42A842E85B28523AC3D
:1020C000018206C6C920FD576317F50093878183F7
:1020D0009C4391C31CC0B240224441018280411103
:1020E00022C42A842E8523AC018206C65D20FD57BA
:1020F0006317F500938781839C4391C31CC0B24052
:10210000224441018280411122C42A842E85B28555
:10211000368623AC018206C65920FD576317F500A9
:10212000938781839C4391C31CC0B24022444101E8
:10213000828093F5F50F2A966314C50001458280CD
:102140001C21E38EB7FE0505C5BF82808280411148
:1021500022C42A842E85B285368623AC018206C627
:10216000A920FD576317F500938781839C4391C392
:102170001CC0B2402244410182809307800523ACF9
:10218000F1827D5582809307800523ACF1827D55D5
:1021900082809307800523ACF182014582809307FA
:1021A000800523ACF1827D5582809307800523ACA6
:1021B000F1827D558280000053797374656D436CA4
:1021C0006B3A25640D0A00004368697049443A255A
:1021D0003038780D0A000000546869732069732054
:1021E000727463206578616D706C650D000000008D
:1021F000796561722F6D6F6E74682F6461792F77C6
:1022000065656B2F686F75722F6D696E2F736563CF
:102210003A0D000025642D25642D256420202564B9
:10222000202025643A25643A25640D0A0000000048
:102230001F1C1F1E1F1E1F1F1E1F1E1F0003030625
:102240000104060205000305000000000000000074
:10225000000000000000000000000000000000007E
:10226000000000000000000000000000000000006E
:10227000000000000000000000000000000000005E
:10228000000000000000000000000000000000004E
:10229000000000000000000000000000000000003E
:1022A0000000000000000000232D302B2000000063
:1022B000686C4C0065666745464700003031323334
:1022C0003435363738394142434445460000000032
:1022D000303132333435363738396162636465669C
:0422E00000000000FA
:1022E40000000000000000000102030406070809C2
:1022F40000000000010203040102030406070809A8
:10230400000000006822000088220000482200002B
:1023140000000000000000000000000000000000B9
:1023240000000000000000000000000000000000A9
:102334000000000000000000000000000000000099
:102344000000000000000000000000000000000089
:102354000000000000000000000000000000000079
:102364000044950802040608BC0000202000002058
:08237400200000200000000021
:00000001FF
