:020000040800F2
:1000000018040020050100080F030008DF020008A3
:100010000D030008C1010008B90A00080000000033
:10002000000000000000000000000000950800082B
:10003000C301000800000000ED030008B10800083B
:100040001F0100081F0100081F01000881060008A9
:100050001F0100081F0100081F0100081F01000800
:100060001F0100081F0100081F0100081F010008F0
:100070001F0100081F0100081F0100081F010008E0
:100080001F0100081F0100081F0100081F010008D0
:100090001F0100081F0100081F0100081F010008C0
:1000A0001F0100081F0100081F0100081F010008B0
:1000B0001F0100081F0100081F0100081F010008A0
:1000C0001F0100081F0100081F0100081F01000890
:1000D0001F0100081F0100081F0100081F01000880
:1000E0001F0100081F0100081F0100081F01000870
:1000F000DFF80CD000F02EF800480047490B00084C
:10010000180400200648804706480047FEE7FEE73F
:10011000FEE7FEE7FEE7FEE7FEE7FEE7FEE7FEE7B7
:10012000B5080008F100000830B50B460146002074
:100130002022012409E021FA02F59D4205D303FAA9
:1001400002F5491B04FA02F52844151EA2F101022A
:10015000F1DC30BD064C074D06E0E06840F00103DD
:1001600094E8070098471034AC42F6D3FFF7C4FF79
:10017000980E0008B80E000880B5012000F050F974
:100180000020BDE8804000F04BB9000081B00021A4
:1001900000910A4900910099084400900098008855
:1001A00001B0704781B000220092044A0092009A88
:1001B000104400900098016001B07047006C00404E
:1001C000FEE7704780B56FF0040000F065FB06485D
:1001D000B3494FF47A720068B0FBF1F00C49087033
:1001E000C0B25043488080BD0400002008494988BF
:1001F00041430848416000218160016841F00101EC
:100200000160016801F001110129FAD000F0C1B8C4
:100210001400002010E000E02DE9F04391F8039075
:1002200009F00F085FEAC96344BF8B7848EA030806
:1002300009880B0621D0046800254FF0010E4FF00D
:100240000F0C0027082F17D00EFA07F30B4210D01F
:100250000CFA05F208FA05F6B9F1480F24EA020291
:1002600042EA060404D0B9F1280F08BF436100E058
:10027000036104350137E5E70460B1F5807F23D3DE
:10028000446800254FF4807E4FF00F0C0027082FA4
:1002900019D00EFA07F606EA0102B24210D10CFAA2
:1002A00005F308FA05F2B9F1480F24EA030343EA1B
:1002B000020404D0B9F1280F08BF466100E00661CE
:1002C00004350137E3E74460BDE8F083C0680840C7
:1002D00018BF012070474161704701617047FEE718
:1002E00081071CBF002070476421B0FBF1F202FBC4
:1002F000110109B1012070474FF4C871B0FBF1F250
:1003000002FB1100B0FA80F040097047FEE7704729
:1003100070B5C2781149A2B1154A07231268457811
:100320008678047823EA12220F23D340C2F1040214
:10033000334005FA02F21A430B19120183F8002325
:1003400000E080310078012300F01F02C0F342106A
:1003500003FA02F241F8202070BD00BF00E100E086
:100360000249084302490860704700BF0000FA05CF
:100370000CED00E04FF4616000990BFB00F001FB15
:1003800007000A99C1EB011100EB81000B990844A9
:100390007047016821F00101016000218160704710
:1003A000104308607047088820F0100008807047EC
:1003B0004FF0C050012100F01BB80A8822EA00006B
:1003C000088070479B4688464FF0000A40F2B2759D
:1003D0000092704701490860704700BF20000E423C
:1003E00001490860704700BFA0000E42704700003E
:1003F000044A002911680CBF21EA0000084310607C
:10040000704700BF1C100240044A002911680CBF4D
:1004100021EA000008431060704700BF1810024036
:1004200001490860704700BF4004424210B51B49B3
:100430000A6802F00C031A4A082B0CD10B680C68EE
:10044000C3F383430233E40323D4174C2468E40644
:1004500000D4144A5A430260144C0B68C3F30313CC
:10046000E35CDA4042600B68C3F30223E35C22FAE8
:1004700003F383600B68C3F3C223E35CDA400C4BE5
:10048000C2600968C1F38131595CB2FBF1F10161CD
:1004900010BD0C68A403DCD4DCE700BF04100240EC
:1004A00000127A0000093D0000380240340E0008B6
:1004B000300E000801220849B2EB501F04D0420957
:1004C000022A14BF24312031096800F01F0021FAEC
:1004D00000F000F0010070470010024000220A49BD
:1004E00001280A700A7002D0042801D10520087082
:1004F000704700BF01490860704700BF3C0442429A
:1005000001490A68FFF74CBF20100240E049FFF79D
:1005100054BF00BFDE48018841F0100101807047E0
:10052000DB48018821F01001018070472DE9F84374
:1005300000F060F88046BF482C4DB8FBF0F92888E1
:10054000814532D02A4E40F2B2744F46A5F8009051
:10055000B7F5B67F0ED9A0B2FFF7C2FE20B178087A
:10056000B628304602D804E06FF4B6700744013470
:10057000EEE70134B04EEC8000241C2F11D3E88844
:10058000FFF7AEFEA1B2012904D118B11D2F07D388
:100590001D3F03E0705C874203D33F1A0134ECE750
:1005A0000124601C2872781C687240F2A3204FF46A
:1005B000616109FB00F0A8EBC010B0FBF1F202FB97
:1005C0001100AA703C2281B2B1FBF2F1E970C1EBDB
:1005D0000111A0EB81002871E888297A6A7A00F07D
:1005E00023F8A8720020BDE8F88300BF08000020AF
:1005F00092FEFFFF054A11889088138899421CBF1C
:100600009088194640EA0140704700BF1828004012
:100610002D4A91881288024204D0084000061CBF6F
:100620000120704700207047B0B583B26424B3FB4B
:10063000F4F303F0FC0503FB1400132D88BF6430B2
:1006400000EB9003DBB20724B3FBF4F5C5EBC50563
:100650005B1B1A44094B80070B4413F8013C1A44F6
:10066000104608BF0138032928BF104680B2B0FBEE
:10067000F4F1C1EBC101401AB0BD00BF8C0E0008FF
:1006800080B50120FFF7C4FF18B1FFF74FFF00F05E
:1006900033FA0220FFF7BCFF20B10220FFF736FF3C
:1006A000FFF744FF0520FFF731FFBDE8804000F071
:1006B000DFB80000044A002911880CBF21EA0000BD
:1006C00008431080704700BF002800401FB5FFF7A7
:1006D0006FFE0120FFF77EFE0420FFF757FD4AF270
:1006E000A11188420DD1FFF763FE0020FFF778FECD
:1006F00000F0C4F801200121FFF7DCFF00F0B8F89A
:100700003CE0FFF739FD0120FFF7E8FE002441201F
:10071000FFF7D0FEF92C05D820B91420FFF766FDAD
:100720000134F4E7F92C01D901202FE04FF4807057
:10073000FFF7E6FE0120FFF7DDFE154CA04700F0B5
:100740009DF801200121FFF7B5FFA047FFF7E2FE6A
:1007500047F6FF7000F080F8A0470020052119221D
:100760000C23CDE9000040F2E67000F015F8FFF729
:10077000D7FE04204AF2A111FFF714FD05480390AB
:1007800003A8FFF7C5FDFFF7D1FE002004B010BDA0
:1007900071080008030000012DE9F84F064640F2F9
:1007A000B270864203D340F63300864202D901205C
:1007B000BDE8F88F224FFFF705FEA8B2B0420CD279
:1007C000FFF78EFD0028384605F1010504BF43F20E
:1007D0008030C0F2E1108244EFE7A8F10100154F2C
:1007E000DFF854904FF00008C5B2454511D019F814
:1007F000080000FB07A43046FFF772FDA246002860
:1008000018BFBA44B8F1010F08F1010818BFA24699
:10081000EBE7FFF7CDFD0120FFF7DCFDFFF7AAFDB9
:1008200006495044084400F00DF800F021F800207B
:10083000BDE8F88F80510100440E000880AEFEFF35
:100840000085E20112490A8842F010020A80020C77
:100850008A820883FFF7A7BD0D490A8842F010027B
:100860000A80C0F303428A800881FFF79CBD00BF65
:10087000074801888906FCD5704700BF04480188F5
:1008800021F00801018001880907FCD5704700BFED
:100890000428004070470000044904280A6822F038
:1008A000040208BF04320A60704700BF10E000E095
:1008B0007047000082B03648364A016841F00101B5
:1008C000016041681140344A416001681140016093
:1008D000016821F480210160416821F4FE0141603A
:1008E0004FF41F018160002101910091016841F4E2
:1008F00080310160016801F40031009101990131FA
:100900000191009919B90199B1F5A06FF2D101686F
:10091000890354BF0021012100910099012936D19A
:100920001E490A6842F010020A600A6822F00302B7
:100930000A600A6842F002020A6041684160416848
:100940004160416841F480614160416821F47C115B
:100950004160416841F4E8114160016841F08071F3
:10096000016001688901FCD5416821F00301416003
:10097000416841F002014160416801F00C01082921
:10098000FAD107484FF00061016002B07047FEE7FE
:10099000001002400000FFF8FFFFF6FE00200240BA
:1009A00008ED00E0002918BF0121828922F40052DD
:1009B00042EA4131818170470088084018BF012018
:1009C0007047000070B586B004460D46C888218A7D
:1009D00021F4405108434EF6F3112082A0890840CB
:1009E000A98808432989084369890843A081A889FF
:1009F000A18A21F440710843A08201AE3046FFF77E
:100A000015FD504906F108006FF063038C4208BFE2
:100A100006F10C000068192101224843B4F90C10BA
:100A2000B1F1FF3FC8BF0222296803259140B0FB06
:100A3000F1F06421B0FBF1F202FB0300B4F90C30D9
:100A4000B3F1FF3FC8BF0425A8403230B0FBF1F03E
:100A50000721B3F1FF3FC8BF0F21084040EA021051
:100A6000208106B070BD00BFB0B586B0054644F227
:100A700004000121FFF7C8FC0C48324C0590A4F596
:100A8000405005A9FFF7C8FB0020ADF81000CDE9E4
:100A900001504FF40020039001A92046FFF792FF78
:100AA00020460121FFF77EFF06B0B0BD000203180B
:100AB0006FF35F2181807047FEE70000E0B50548D5
:100AC000012101900420FFF79FFC034801A9FFF7D3
:100AD000A3FB8CBD0100032800080140E0B50548D8
:100AE000012101900820FFF78FFC0D4801A9FFF7B5
:100AF00093FB8CBD0400031010B5094C0421204663
:100B0000FFF7E4FB012805D120460421BDE8104091
:100B1000FFF7E1BB20460421BDE81040FFF7DDBB35
:100B2000000C0140B0B5074D044628464021FFF7B0
:100B300043FF0028F9D0E1B22846FFF7B9FF20466D
:100B4000B0BD00BF0038014084B04FF4A060FFF793
:100B500007FCFFF737FB4FF4E130FFF785FFFFF7A6
:100B6000ADFFFFF7BBFF264C1EA0A04725A0A04766
:100B70002AA0A04730A0A0473448016834A000F064
:100B80007BF837A0A047FFF7A1FDDFF8E080DFF892
:100B9000E0B0DFF8E0904FF0FF3601274FF47A7AAB
:100BA000B7FBFAF000FB0A60A8B9404600F02EF946
:100BB000BBF804109BF806209BF807309BF8080050
:100BC0009BF800409BF801509BF802C08DE8311063
:100BD000484600F051F80120FFF708FB0137013EBD
:100BE000DEE700BF0D0A57654163742053747564D6
:100BF000696F20436F726520426F6172640D00005F
:100C00000D0E0008776561637473747564696F2EE7
:100C100074616F62616F2E636F6D0D007765616344
:100C20007473747564696F2E616C69657870726530
:100C300073732E636F6D0D00777777772E7765610D
:100C400063742D74632E636E0D0A0D000400002082
:100C500053797374656D436C6B3A25640D0A00001B
:100C600052544320546573740D000000690E00084F
:100C70000A000020500E00080FB4054B10B503A960
:100C8000044A029800F018F810BC5DF814FB00004C
:100C9000250B00080000002002E008C8121F08C150
:100CA000002AFAD170477047002001E001C1121FED
:100CB000002AFBD1704700002DE9FF4F89B09B4609
:100CC0000446002506E025280BD05A460B9990478C
:100CD000641C6D1C20780028F5D10DB02846BDE8B5
:100CE000F08F0027B8460122474900E0074314F877
:100CF000013F203B02FA03F00842F7D120782E286A
:100D000019D114F8010F47F004072A280ED06FF00C
:100D10002F022078A0F1300109290CD808EB8801B6
:100D200002EB410100EB0108641CF2E70A98641C25
:100D300050F8048B0A9020780028CED0642808D080
:100D4000692806D075281ED05A460B9990476D1C0D
:100D500058E00A994FF00A0901C90A91002802DAFD
:100D600040422D2102E0390504D52B218DF82010B9
:100D7000012103E0F90704D02021F7E78A4608AEF5
:100D80000DE00021FAE70A994FF00A0901C90A911A
:100D9000F7E74946FFF7C8F9303106F8011D00288A
:100DA000F7D1ADEB060000F12009780701D44FF030
:100DB0000108C84502DDA8EB090000E000208046DC
:100DC000002706E008A85A46C05D0B9990476D1CA5
:100DD0007F1C5745F6DB04E030205A460B999047BC
:100DE0006D1CB8F10001A8F10108F5DC05E016F86A
:100DF000010B5A460B9990476D1CB9F10001A9F1FE
:100E00000109F4DC641C65E70928010010B50446FB
:100E100001E0FFF787FE14F8010B04490028F8D120
:100E2000BDE810400A20FFF77DBE00000000002052
:100E3000020406080000000001020304010203048A
:100E4000060708091F1C1F1E1F1E1F1F1E1F1E1F17
:100E500025642D25642D256420202564202025640B
:100E60003A25643A25640D0A00796561722F6D6F29
:100E70006E74682F6461792F7765656B2F686F7565
:100E8000722F6D696E2F7365633A0D0000030306C0
:100E90000104060205000305B80E0008000000204A
:100EA00008000000980C0008C00E00080800002090
:100EB00010040000A80C00080000000000A24A0472
:04000005080000F1FE
:00000001FF
